:020000040000FA
:0600000002011D021D8635
:03002B0002242488
:030033000224069E
:0300430002247A1A
:03004B0002244844
:03005300021DFC8F
:03006B000223DD90
:10008300021C77E5C754F84401F5C7790122000043
:100093000080FB120086B90003020107E47921788E
:1000A30008B800028004F709D8FCE479297802B87B
:1000B30000028004F709D8FCE490028A78CE79071D
:1000C3008002F0A3D8FCD9FA781A90014D7A01BACC
:1000D30000028007E493A3F608DAF9900957AA828D
:1000E300AB8390014E78FD79038015E493A3AC8232
:1000F300AD838A828B83F0A3AA82AB838C828D83A8
:10010300D8E9D9E775820375839C740312012F75AF
:100113008291758300740012012F75D00075813FA1
:1001230075188A751902759F00020096C09FF59F86
:10013300E473D09F22D083D082C09FE493C0E07445
:100143000193C0E0740293F59F2201FF0000B40005
:100153000028002800283075A000A000A000A000FF
:1001630000080008E001F00010001000100010006B
:100173001000100050005000500010001000D00775
:100183000000000000000F003075070010000100A0
:1001930081FF0000FF480666064E06FF02020A0AB8
:1001A300025000A0000000E803029D900100008CB3
:1001B30090029990010000A809029190010000BBF0
:1001C30002029990010000A909028F90010000D159
:1001D30002029990010000AA0902B990030000D31A
:1001E30002029990010000AB0902A390030000D41E
:1001F30002029990010000AC0902A190010000AD38
:1002030009FF0100FF20029D9001000083900299E5
:1002130090010000110A0293900000000000029573
:100223009003000021037E0C7E0C7E0C7E0C7E0C62
:100233007E0C7E0C7E0C7E0C7E0C7E0C7E0C7E0C6B
:10024300540F6C0F4E0FFFFF020202020202020262
:1002530002010D0000001001029D90010000869034
:10026300029990010000540A02B5900100007E0734
:10027300029990010000550A02B390010000628FB9
:10028300029990010000560A02B190010000478FC5
:10029300029990010000570A02AF90010000A38E5B
:1002A300029990010000580A02AD90010000918E5E
:1002B300029990010000590A02AB900100007F8E61
:1002C3000299900100005A0A02A990010000B58E1C
:1002D3000299900100005B0A02A790010000398F88
:1002E3000299900100005C0A02A5900100005D0ADA
:1002F30001E803053F10FF0001307503020106000A
:1003030000000000000000000000000000000000EA
:100313000000000000000000000000FFFF06008056
:100323000CE8031309140953696D706C65424C455D
:100333005065726970686572616C0512060006008B
:10034300020A000201060302F0FF53696D706C6537
:1003530020424C45205065726970686572616CB0CB
:10036300130000BC130A43686172616374657269A8
:100373007374696320310002436861726163746559
:100383007269737469632032000843686172616340
:100393007465726973746963203300104368617212
:1003A300616374657269737469632034001243680E
:1003B30061726163746572697374696320350002E5
:1003C3009D900100008990029990010000710B0239
:1003D300C7900300003809029790010000720B02D6
:1003E3009990010000830B02C390010000390902B8
:1003F3009790010000840B029990010000950B0275
:10040300C1900200003A09029790010000960B0286
:100413009990010000A70B02BF900000003B090266
:1004230095900300004C09029790010000A80B026D
:100433009990010000B90B02BB900400005209021D
:100443009790010000BA0B1201384A900312013849
:10045300619003120138909003120138C99003127E
:100463000138F190031201381F91031201383691BC
:10047300031201384D9103120138639103120138BD
:100483008A91031201389D9103120138B39103122B
:100493000138C69103120138EB9103120138828CA3
:1004A30002120138818D02120138B68D0212013811
:1004B300D78D02120138E78D02120138088E02121D
:1004C3000138148F02120138E18F0212013854905F
:1004D30002120138DA90021201381D91021201381A
:1004E300549102120138DA9102120138AC920212CD
:1004F30001380A93021201382293021201389C93A5
:10050300021201389F9302120138A293021201389A
:100513004994021201386194021201389194021233
:100523000138B194021201389F9502120138559691
:100533000212013801DF0212013829DF02120138E9
:1005430057DF021201388EDF02120138F6DF021282
:1005530001383FE0021201388AE002120138C8E094
:100563000212013805E10212013833E102120138A7
:10057300DAE102120138E4E102120138F1E1021278
:10058300013824E202120138E6E202120138F2E2F3
:10059300021201380AE30212013814E3021201388D
:1005A3007E98031201388C9803120138A498031221
:1005B3000138BC98031201382CA001120138CAA0DB
:1005C3000112013842A10112013857A20112013868
:1005D30091A2011201383AA3011201380FA40112AA
:1005E300013873A501120138CAA50112013851A6B9
:1005F3000112013838A70112013885A70112013809
:1006030013A80112013837A8011201380CAA0112EC
:1006130001384DAA011201386FAA01120138F0AA5C
:1006230001120138DAAB01120138A0AC0112013812
:1006330040C10212013812C202120138BBC20212B7
:100643000138FEC2021201388BC30212013817C4EB
:1006530002120138F8C40212013827C50212013808
:1006630023C6021201386BC6021201386DC702128B
:100673000138B1C702120138D7C7021201389E9A56
:100683000312013880F00212013896F00212013889
:10069300BCF002120138E4F102120138EEF1021249
:1006A300013847F30212013847F4021201384CD5DE
:1006B3000212013859D6021201388DD602120138BE
:1006C300CFD60212013889D802120138CF90011215
:1006D3000138329101120138779201120138879261
:1006E30001120138AA9201120138F5920112013860
:1006F3009A93011201389094011201385A9501120C
:100703000138D29601120138149701120138B297B9
:1007130001120138FF97011201382598011201389F
:10072300139A01120138189A01120138F99B011228
:1007330001384D9C01120138AF9C01120138D79C3E
:10074300011201387B9D011201383D9E01120138CF
:100753006E9E01120138719E01120138B99E011279
:100763000138FB9E01120138629F01120138D885BE
:1007730003120138EB850312013804860312013892
:100783004F86031201382A8703120138B9870312EF
:100793000138048803120138B82400120138C42434
:1007A30000120138FD2400120138422500120138DD
:1007B300F925001201387F2600120138E4260012C1
:1007C30001381027001201384927001201385D292A
:1007D30000120138392B00120138242D0012013880
:1007E3005B2E00120138BB3000120138A731001212
:1007F3000138ED3200120138FA3300120138173490
:10080300001201384F3400120138693400120138E4
:10081300D134001201386B39001201380C3A00123E
:1008230001385D3A00120138843A00120138D23A95
:1008330000120138F03A00120138443B001201382B
:100843001D3C00120138A43D001201382C3E001259
:1008530001380ECF0212013818CF02120138DFCF50
:10086300021201382ED00212013852D0021201387E
:10087300ADD002120138E5D0021201380DD10212B7
:1008830001383DD20212013868D20212013893D2E4
:1008930002120138E2D202120138F8D202120138F0
:1008A3003ED30212013878D302120138BAD30212AE
:1008B300013802D4021201383ED4021201388CD41A
:1008C30002120138D5D402120138FFD402120138C2
:1008D30024D5021201388BEC0212013855ED0212B5
:1008E300013841EE02120138B7EE02120138F9EE77
:1008F3000212013826F00212013800800212013878
:1009030029800212013842800212013887810212C3
:100913000138658202120138848202120138118380
:1009230002120138548302120138A18402120138E1
:10093300408502120138BF8702120138568802121D
:1009430001382A89021201380C8A02120138788B85
:10095300021201380B8C02120138D1FE0212013847
:100963003AFF021201388EFF02120138B5FF02125C
:10097300013836E802120138A3E802120138EEE822
:1009830002120138E3E902120138DFEA02120138E8
:10099300C9EB0212013857A90212013899A90212B0
:1009A300013873AA021201384CAB0212013847AC6A
:1009B3000212013826AD0212013892AD021201383B
:1009C30059AE02120138C4AE021201382BAF021223
:1009D300013856AF02120138C7AF021201385AB0BC
:1009E30002120138C3B002120138D8B00212013822
:1009F30020B10212013839B1021201389EB102123C
:100A03000138A1B102120138008003120138288095
:100A1300031201386680031201382481031201385E
:100A23008F8103120138AB8103120138D381031282
:100A330001380382031201381282031201388C82B7
:100A430003120138B28203120138D5AE0112013804
:100A530060B001120138FCB101120138C2B20112B7
:100A6300013809B30112013850B3011201386EB3D2
:100A730001120138B0B301120138C6B301120138B3
:100A830012B4011201384AB4011201387DB40112C3
:100A93000138CEB40112013838B50112013832B829
:100AA30001120138D4B9011201381ABA01120138FE
:100AB30051BB01120138AEBB0112013823BC011234
:100AC300013877BC01120138A4BC01120138CFBC34
:100AD3000112013861A0021201387EA0021201380E
:100AE3000BA6021201380DA70212013887A80212C1
:100AF300013835A902120138933E00120138DC3E59
:100B030000120138093F001201383C3F001201383E
:100B1300493F00120138553F00120138673F001268
:100B230001383C40001201389A4000120138CF408E
:100B3300001201386B4200120138A542001201383D
:100B4300134300120138B8430012013874440012F1
:100B53000138F34400120138B74500120138C64585
:100B630000120138474600120138E64600120138E8
:100B7300184700120138B347001201381148001218
:100B830001384B4800120138CC480012013895490E
:100B9300001201383E4A00120138C54A00120138DA
:100BA3001D4B001201387E4B00120138A74B001277
:100BB30001385D4C00120138A74D00120138EA4D8F
:100BC30000120138074E00120138264E0012013878
:100BD300714E00120138964E00120138BF4E0012BA
:100BE30001382E4F00120138704F00120138745033
:100BF300001201380E5100120138DA510012013887
:100C0300F35100120138C0960212013813970212F1
:100C130001381F9702120138F497021201381B980A
:100C230002120138569802120138C2980212013892
:100C3300F698021201382F990212013847990212CD
:100C43000138A09902120138B99902120138029AA7
:100C530002120138159A021201382F9A0212013832
:100C6300459A02120138619B02120138729C0212EA
:100C73000138BF9D02120138A49E02120138F47F8D
:100C830000120138F2E60112013826E70112013899
:100C930091EA01120138DBEB01120138A5EC0112D4
:100CA30001382FEE011201380AEF0112013844EF27
:100CB3000112013867EF01120138A9EF011201385F
:100CC300B2EF01120138FCEF0112013806F00112F4
:100CD3000138B2F00112013886F101120138DAF15C
:100CE300011201383CF2011201388FF2011201386E
:100CF300BEF201120138FDF2011201389C650012A7
:100D03000138F66D00120138FC6D00120138AF7323
:100D130000120138957700120138EAF70212013800
:100D230060F80212013876F802120138B3F80212A1
:100D33000138EBF80212013868F902120138A3F9FD
:100D4300021201381EFA021201385AFA021201384D
:100D530063FA021201386FFA0212013889FA021299
:100D63000138AEFA02120138C4FA02120138EDFA60
:100D73000212013850FB021201383FDA0212013825
:100D830052DA021201386CDA0212013895DA0212D1
:100D93000138D8DA0212013817DB0212013855DBA9
:100DA30002120138BADB02120138CFDB021201381A
:100DB300DADB02120138E7DB02120138FEDB021232
:100DC30001380CDC0212013817DC0212013823DC73
:100DD3000212013836DC0212013841DC02120138FA
:100DE30064DC021201380DDD021201381DDD02122E
:100DF300013837DD0212013854DD0212013870DD8B
:100E03000212013895DD021201389FDD021201380A
:100E1300B3DD02120138D2DD0212013833DE0212D1
:100E2300013839DE021201383FDE0212013845DE95
:100E33000212013851DE0212013884DE0212013837
:100E4300EECB0112013870CC0112013819CD011219
:100E5300013861CE011201386FD00112013855D12A
:100E6300011201388AD101120138ACD101120138C3
:100E730055D20112013825D4011201384ED4011282
:100E83000138C6D401120138F8D40112013805D54E
:100E93000112013850D50112013874D501120138FD
:100EA300C5D701120138CFD8011201382BD901124D
:100EB30001386BBD011201387CBE0112013860BFDD
:100EC300011201386ABF011201388CBF01120138C7
:100ED30098BF011201383CC10112013869C10112E6
:100EE30001387FC201120138D4C20112013823C470
:100EF30001120138F8C40112013854C50112013836
:100F0300BFC501120138F4C50112013837C60112F9
:100F1300013801C90112013819C901120138AAC9DE
:100F230001120138B8C90112013805CA011201388A
:100F330013CA011201387FCA01120138FACA011219
:100F4300013851CB01120138D8F301120138FAF3F9
:100F5300011201380BF601120138CAF801120138E7
:100F6300F4F901120138B2FA011201389EFB0112A1
:100F73000138918E03120138B68E031201382C8F7B
:100F83000312013823BA021201382CBA02120138B3
:100F930035BA021201380DBB02120138BEBC02126F
:100FA3000138EEBC0212013819BD0212013849BDE5
:100FB3000212013874BD02120138A8BD02120138B1
:100FC300D4BD0212013817BE0212013842BE02120A
:100FD300013889BE02120138DEBE0212013820BF79
:100FE300021201387ABF02120138A5BF021201387A
:100FF300F4BF0212013824C0021201384FC002129A
:1010030001387DC002120138A0C002120138279BAB
:1010130003120138539B03120138809B03120138DA
:101023008A9B031201389A9B03120138C5B102123D
:101033000138CFB1021201380DB20212013856B293
:101043000212013890B202120138EAB202120138D8
:101053000BB302120138E3B502120138ECB50212E8
:10106300013839B60212013862B6021201386CB681
:1010730002120138D8B6021201386AB702120138D7
:10108300B4B702120138EAB70212013876B8021275
:101093000138B7B802120138EEB80212013800B9AC
:1010A300021201381FB90212013828B9021201389D
:1010B300F5B902120138AA9603120138A08C031263
:1010C3000138D68C031201380C8D03120138578E68
:1010D30003120138069A031201381C9A03120138CD
:1010E300269A03120138709A03120138A49B031243
:1010F3000138A9E302120138BEE3021201386EE49B
:1011030002120138AEE402120138C7E402120138B8
:1011130002E5021201384FE50212013881E502129D
:101123000138C3E502120138C4E7021201383395CE
:10113300031201385C95031201388B9503120138B1
:10114300239603120138659603120138FA820312BB
:1011530001381F83031201384983031201385B9C52
:1011630003120138255200120138EB5300120138E3
:101173008A55001201383E5600120138C856001233
:1011830001384D5700120138765700120138FC5AC6
:1011930000120138785B00120138A45C0012013898
:1011A300DE5C001201381F5D00120138675E001219
:1011B3000138C45E001201380D5F00120138715FFF
:1011C30000120138BF5F00120138EE5F00120138D0
:1011D300066000120138F860001201382F61001216
:1011E3000138D46100120138EB61001201381D622D
:1011F30000120138CC63001201385964001201381F
:101203009864001201385599031201386699031244
:101213000138B19C03120138F09C031201386C9D14
:1012230003120138A19703120138B1970312013851
:10123300C69703120138789803120138F6FE01129B
:1012430001387BFF01120138E1FF01120138FD91E2
:10125300031201382692031201388C9203120138CB
:10126300AC9203120138FD92031201385893031212
:10127300013892930312013895930312013880FBCE
:101283000212013895FB02120138C0FC0212013828
:101293003CFD02120138B0FD02120138CAFD0212F0
:1012A3000138E1FD02120138F4FD021201380EFE8D
:1012B3000212013825FE021201384BFE02120138D8
:1012C3009CFE02120138E6FF02120138F6FF0212F9
:1012D3000138F9FF02120138F87F00120138738ACE
:1012E30003120138F68B03120138578C03120138AD
:1012F3009D8C031201389F9303120138F19303125B
:101303000138649403120138CD94031201382E88F6
:101313000312013858880312013826890312013851
:10132300018A03120138E47700120138AB78001206
:101333000138E478001201384479001201389A79AF
:1013430000120138F779001201388F7A0012013840
:101353009E7B00120138357D00120138C27D0012D8
:101363000138297E00120138407E00120138807F47
:101373000012013878D9011201380FDD011201384A
:1013830086DE01120138D6DE01120138F3DE0112C6
:10139300013871DF0112013893E10112013859E577
:1013A300011201384CC802120138D9CA021201389D
:1013B3006CCB0212013882CC02120138A1CD021289
:1013C300013814CE0212013895CE0212013851F4BD
:1013D3000212013896F402120138B3F402120138F2
:1013E30077F502120138D5F5021201389BF6021285
:1013F3000138B1F702120138FA9C03120138BE7F9B
:1014030000120138269D031201384E9D03E06670D9
:101413001008A3E066700A08A3E066700408A3E05E
:101423006622C3E7960809E7960809E7960809E7DD
:101433009622C3E09608A3E09608A3E09608A3E0EB
:101443009622C008C3E096F50808A3E09642080870
:10145300A3E096420808A3E09645087001D3D0089C
:1014630022080808EAC0E0EBC0E086F0E7A4FA1817
:101473000986F0E7A42AFA180986F0E7A42AFA18DD
:101483000986F0E7A42AFA1986F0E7A4FBE5F02A17
:10149300FA190886F0E7A42BFBE5F03AFA19088657
:1014A300F0E7A42BFBE5F03AFA18180986F0E7A455
:1014B300C5F02BFBE43AFA1908E7C5F0C6A426F6F3
:1014C300E5F03BFBE43AFA1886F0E7A4F6E5F0080A
:1014D30026F6E43B08F6E43A08F6D0E0FBD0E0FA5F
:1014E30022E4CFC0E0E4CEC0E0E4CDC0E0E4CCC071
:1014F300E075F020C3E633F608E633F608E633F684
:1015030008E633F6181818EC33FCED33FDEE33FE22
:10151300EF33FFC3EC9709ED9709EE9709EF97199E
:101523001919400FFFEC97FC09ED97FD09EE97FEA3
:10153300191906D5F0BEECF709EDF709EEF709EF37
:10154300F7191919D0E0FCD0E0FDD0E0FED0E0FFA0
:10155300226016080808C6C313C618C613C618C6E1
:1015630013C618C613C6D5E0EA2270090808082274
:101573006016181818C6C333C608C633C608C63360
:10158300C608C633C6D5E0EA22E627F60809E637D9
:10159300F60809E637F60809E637F622E026F608E4
:1015A300A3E036F608A3E036F608A3E036F622E019
:1015B30026F008A3E036F008A3E036F008A3E036EF
:1015C300F022C3E697F60809E697F60809E697F6C8
:1015D3000809E697F622C3E096F008A3E096F00820
:1015E300A3E096F008A3E096F022E056F608A3E005
:1015F30056F608A3E056F608A3E056F622E056F0A6
:1016030008A3E056F008A3E056F008A3E056F02242
:10161300E0F608A3E0F608A3E0F608A3E0F622E666
:10162300F008A3E6F008A3E6F008A3E6F022E0FA48
:10163300A3E0FBA3E0FCA3E0FD22EAF0A3EBF0A30D
:10164300ECF0A3EDF022CAC0E0E6F0A308DAFAD08A
:10165300E0FA22CAC0E0E0A3C582CCC582C583CD2F
:10166300C583F0A3C582CCC582C583CDC583DAE625
:10167300D0E0CA22C3E498F8E499F91216B8802698
:10168300C3E49AFAE49BFBE920E7E91216B8E4986D
:10169300F8E499F922C3E498F8E499F91216B8E446
:1016A30098F8E499F9C3E49AFAE49BFB22EB20E768
:1016B300CFE920E7E0B90010BB0008E88AF084F81E
:1016C300AAF022E4FBC8FA22EB70227B10C833C8CD
:1016D300C933C9335007C39AC3DBF280069A50015A
:1016E3002ADBEAC833F4C8C933F4C9FA2275F0080F
:1016F300E4C833C8C933C933C99AC99B5004C92A3A
:10170300C93BD5F0ECFBC833F4C8E4C9FA22600D39
:1017130008C6A2E713C618C613C6D5E0F322600CA9
:1017230008C6C313C618C613C6D5E0F42270042234
:10173300600D18C6C333C608C633C6D5E0F41822F5
:10174300251810AF08F518400215198008F5184040
:10175300021519D2AF22C0D0251810AF08F51850C2
:101763000205198008F51850020519D2AFD0D0220E
:101773002518F58210AF08F518400215198008F5F1
:101783001840021519D2AF851983222518F582E472
:101793003519F58322E4732518C582C0E0E51934B1
:1017A300FFC583C0E0E518C3958224F810AF088510
:1017B30083198582188008858319858218D2AFCE54
:1017C300F0A3E520F0A37808E608F0A3DEFAEFF033
:1017D300A3E58124FAF8E608F0A3E608F0A3E608F7
:1017E300F0A30808E608F0A3E608F0A31581158125
:1017F300D0E0FED0E0F8158115811581E8C0E0EE58
:10180300C0E0222518C582C0E0E51934FFC583C0B6
:10181300E0E518C3958224F910AF08858319858202
:10182300188008858319858218D2AFCEF0A3E520EE
:10183300F0A37808E608F0A3DEFAEFF0A3E581242D
:10184300FBF8E608F0A3E608F0A30808E608F0A30F
:10185300E608F0A315811581D0E0FED0E0F81581EC
:101863001581E8C0E0EEC0E022851983851882E087
:10187300A3FEE0A3F5207808E0A3F608DFFAE0A3CF
:10188300FFE0A3C0E0E0A3C0E0E0A3C0E0E0A3C0AA
:10189300E0E0A3C0E010AF088582188583198008B3
:1018A300858218858319D2AFD083D0820201358512
:1018B3001983851882E0A3FEE0A3F5207808E0A34E
:1018C300F608DFFAE0A3FFE0A3C0E0E0A3C0E0E096
:1018D300A3C0E0E0A3C0E010AF0885821885831998
:1018E3008008858218858319D2AFD083D08222C025
:1018F300D02518C582C0E0E51934FFC583C0E0E5F3
:1019030018C3958224F310AF088583198582188044
:1019130008858319858218D2AFC8F0A3E9F0A3EA3A
:10192300F0A3EBF0A37908E709F0A3D8FAECF0A34E
:10193300EDF0A3EEF0A3EFF0A3D0E0F0A3D0E0F03E
:10194300A3D0E0F0A3E520F0A3E5F0F0A3228519EE
:1019530083851882E0C0E0A3E0F9A3E0FAA3E0FBEB
:10196300A37808E0F608A3DFFAE0FCA3E0FDA3E018
:10197300FEA3E0FFA3E0C0E0A3E0C0E0A3E0F5D056
:10198300A3E0F520A3E0A3F5F010AF088583198544
:1019930082188008858319858218D2AFD082D083BC
:1019A300D0E0F8D0E032740480067402800274013F
:1019B300C0E0F404121773D0E012164922740480B5
:1019C3000474028000CCC0E0EDC0E0E518C39CCCF9
:1019D300AD1950011D10AF068C188D1980068C1897
:1019E3008D19D2AF121656D0E0FDD0E0FC22D08381
:1019F300D082E9C0E0E493A3C386F0C5F095F0F983
:101A030008E493A386F0C5F095F0700BE493A3C3A9
:101A1300994005E9048002A3E475F002A42582F548
:101A230082E5F03583F583D0E0F9E493A3C0E0E4E5
:101A330093C0E022D083D082ECC0E0EDC0E0E49319
:101A4300A3FCE493A3FDED4C600D121A83EC24FF79
:101A5300FCED34FFFD80EFE493A3FCE493A3FDEDE1
:101A63004C600D121AC2EC24FFFCED34FFFD80EF35
:101A7300D0E0FDD0E0FCE493A3C0E0E493C0E02217
:101A8300C0E0C3E49396087401939618400FE4935F
:101A930066700808740193661870007019A3A3C3D5
:101AA300E49396087401939618A3A3400DD0E0D055
:101AB300E0D0E0021A73A3A3A3A3A3A3D0E022C0A0
:101AC300E0C0F088F0E49366700808740193661828
:101AD3007000A8F0A3A3700BD0F0D0E0D0E0D0E06A
:0A1AE300021A73A3A3D0F0D0E02292
:101AF00074F5121806EAFEEBFFEE2434F8EF34001A
:101B0000F988088909EE2435121C28F8EE243712CA
:101B10001C28F50AEC850AF0A4FCAAF0850AF0ED71
:101B2000A42AFDE82CF8E43DF97A257B001216B8CA
:101B3000EA850882850983F05407F87401B8000229
:101B40008004C333D8FCC0E0E0131313541FF8EE35
:101B500028F8EF3400F9E8245DF582E93400F583D4
:101B6000D0E0F8E0586008850882850983801DEE82
:101B70002436121C28F5F0EA84A8F0EE28F8EF3499
:101B800000F9E82438F582E93400F583E0F97F04B0
:101B90000218B274F5121806EAFEEBFFEE243412B6
:101BA0001C28C0E0EE2435F582EF3400F583D0E048
:101BB000F08E828F83A3A3A3A3A3E0FAA3E0FB8EFE
:101BC000828F83A3A3A3A3A3A3A3E0FCA3E0FDECC4
:101BD000C39AF50AED9BF50BEE2480F508EF34006F
:101BE000F509850882F583E06401702BEE2481F508
:101BF00082EF3400F5831219C4121C3174021217DB
:101C000059E960137C047D05EEFAEFFB120BAC85FD
:101C10000882850983E4F0AC0AAD0BEEFAEFFB1203
:101C20001AF01223CF021B8EF582EF3400F583E009
:101C300022C082C083851882851983E0F8A3E0F969
:101C4000C3EA9CEB9D500BC3EC98ED9940127901CF
:101C50008010C3EA98EB9940F5C3EC98ED9950EEEB
:101C60007900D083D08222EAC39CFAEB9DFB22004C
:101C70008521878522C622C0E074EF1218F2759B79
:101C800000906182E0A2E64003021D38E591A2E6E1
:101C90004003021D387591BF9003CBE064057008C6
:101CA000120D4A120D568003120D50752100120DAF
:101CB000C2E99003CCF07900120DB6120B1C7A0128
:101CC0007B009003CAE0F912108C907803E0644224
:101CD0006003021D81900565E014F06003021D8120
:101CE000C2AF121CE500782AD0E0F618D0E0F6E585
:101CF0009F5407F97005908FFF80039090637808D8
:101D0000121613E9C4C0E07829E65508F50808E67C
:101D10005509F509740B7808121721D0E02508F849
:101D2000906270E0A2E740F8E8C333906272F090EE
:101D30006270E0D2E0F08049E0A2E55024E591A293
:101D4000E5501E7591DF9003CBE0640D7013900396
:101D5000EDE004F064287002E4F07A00E0F9120E7D
:101D600034906181E0A2E35009E5E9A2E3500375F4
:101D7000E9F7A3E0A2E75009E591A2E750037591C6
:101D80007F7F04021951C0E0C0D0C082C08390613F
:101D900083E0A2E05009E5BFA2E0500375BFFEE07A
:101DA000A2E15009E5BFA2E1500375BFFDE0A2E248
:101DB0005009E5BFA2E2500375BFFBE0A2E3500962
:101DC000E5BFA2E3500375BFF7E0A2E45009E5BF09
:101DD000A2E4500375BFEFE0A2E55009E5BFA2E51C
:101DE000500375BFDFE0A2E65009E5BFA2E650034D
:101DF00075BFBFD083D082D0D0D0E032C0E074F2C3
:101E00001218F2E5A7A2E4500FE5A1A2E45009538D
:101E1000A7EF75A1EF121E50E5A7A2E5500CE5A1B2
:101E2000A2E5500653A7DF75A1DFE5A7A2E150099F
:101E3000E5A1A2E1500375A1FDE5A7A2E2500CE5E2
:101E4000A1A2E2500653A7FB75A1FB7F0102195125
:101E500074F81218067521019003CBE06406700730
:101E60007A007B00120D32A2AFE433FED2AF9003B2
:101E7000D1E0640170187A207B009003CAE0F91267
:101E800011167A207B009003CAE0F912109290613B
:101E900082E0D2E6F0900564E0602185C6228016DB
:101EA0009003D0E064017008E5C654F84405F5C617
:101EB00053BEFC121C707401652160E4EEA2E09236
:101EC000AF7F010218B200008E238F2485822885FF
:101ED0008327851882851983E0CEA3E0CF852882E9
:101EE000852783EBC9EAC8EDCBECCA75F010C3E8CF
:101EF00033C8E933C9EA33CAEB33CBC3EA9EF526CC
:101F0000EB9FF525B35004AB25AA26EC33CCED337B
:101F1000CDD5F0DAAE23AF242274E912180674FA94
:101F2000121743EAFEEBFF8C088D099003CBE024E7
:101F3000F7C394055006909007022040120CAE8A19
:101F40000A8B0BEA450B700302203D120D688A0CC8
:101F50008B0D120D68EA650C7003EB650D60ECEEFD
:101F6000FCEFFD851882851983AA82AB83120D6E62
:101F7000850A82850B83A3A3780C12161390903FD9
:101F8000780C1215ED8518828519837814121613B2
:101F900090903F78141215ED780C79141214255096
:101FA0001F780C79141215C590900B780C121445FB
:101FB0004047850C10850D11850E12850F13804149
:101FC0008514108515118516128517137810790C54
:101FD0001215C590900B7810121445501C75100006
:101FE000751100751200751301781079141215C55A
:101FF0007810790C12158C800890900778101216C2
:10200000137409781012156D90907B780C121613CA
:102010007810790C1214E49003CBE06408600AE0B5
:1020200064066005E06405701C90902F781012140F
:10203000455012909003781012159F8008909013CD
:1020400078101216138508828509837810121622DB
:1020500074061217597F100218B274F7121806127C
:102060000D80900562E064017010906245E4F0A379
:10207000F053F4F343FE0C5390F3120D20E5C654D5
:10208000804449F5C6E59E547F644970F8906185A7
:10209000740FF0900560E0F47002A3E0602C750806
:1020A00001750900900560E07808121730E508F422
:1020B000FAA3E0600814600A14600C800DEA5280F4
:1020C0008008EA52908003EA52A079007F02021849
:1020D000B274F7121806E9FE9024B0E493F4600895
:1020E000E493F9120AFE800953C680E59E547F707E
:1020F000FA120D26900562E064017003120B349011
:102100000560E0F47002A3E0602A7508017509001B
:10211000900560E07808121730AA08A3E060081460
:10212000600A14600C800DEA42808008EA429080C8
:1021300003EA42A0120CAE8A088B09A808A909E894
:10214000496017E5E170FCE82414F582E93400F5F4
:1021500083E0F874FF68600288E174016E700A7AA7
:10216000019003CAE0F91210E00220CC74F11218B9
:10217000068A088B098C0A8D0B740F12178E780C47
:1021800012161390903F78081215ED90903F780C3E
:102190001215ED7808790C12142550157808790C71
:1021A0001215C590900B78081214454015790180DE
:1021B00013780C79081215C590900B780C12144501
:1021C00040EB79007F080218B274ED1218068A08F5
:1021D0008B098C0A8D0B741312178E780C12161340
:1021E00090903F78081215ED90903F780C1215ED05
:1021F000780C790812142540117808790C1215C54D
:10220000AA08AB09AC0AAD0B80227510007511004D
:102210007512007513017810790C1215C5781079B4
:102220000812158CAA10AB11AC12AD137F0C02185A
:10223000B290903F78081216138A828B8378081226
:1022400016007F040218B274F51218068C828D8372
:1022500078081216138A828B8378081215D91222F5
:102260009BC3E098F0A3E09912228D401E9090331A
:1022700078081216138A828B8378081215B28E8220
:102280008F83E02420F0A3E0344EF080A4F08E820F
:102290008F83C3E09420A3E0944E22EA2404F8EB59
:1022A0003400F9E8FEE9FF8C828D83A3A3A3A3E0A9
:1022B000F8A3E0F98E828F832274F5121806E9FEE6
:1022C00090051AE0FAA3E0FBEEC333F8E433F974A7
:1022D0001A28F582748F39F583E02AF508A3E03BCC
:1022E000F50978081219AD90905B121631121EC8CC
:1022F00074021217598A088B098C0A8D0B74107896
:1023000008121554AA08AB097F040218B274F1121E
:1023100018068A0C8B0D8C0E8D0F740F12178EE021
:10232000FAA3E0FB741112178EE0F508A3E0F5099B
:10233000741312178EE0FEA3E0FF78081219ADEABD
:102340002401F508EB3400F509E4F50AF50B780CE7
:102350007908121464908FF77808121613780C79A4
:1023600008121464AA0CAB0DAC0EAD0F121EC8748B
:10237000021217598B09EA450960047A0180027A32
:1023800000EC2AFCED3400FDECF8EDF97A717B02EB
:102390001216B888088909E4F50AF50B8E828F8336
:1023A0007808121622ECF8EDF97A717B021216B851
:1023B0008A088B09740578081217308E828F83A3E0
:1023C000A3A3A3E508F0A3E509F07F080218B2C0B3
:1023D00082C083E9906000F0D083D08222C0E07494
:1023E000F21218F2A2AFE433FED2AFE589A2E150B7
:1023F0000312126C758900C2C5751A00EEA2E09234
:10240000AF7F01021951C0E074F21218F2A2AFE4DA
:1024100033FED2AFE58BA2E0500312126C758B0035
:10242000C2E880D5C0E0C0D0E8C0E0E9C0E0E5A8DF
:10243000D2AFC2C7751A00A2E7A2E792AFD0E0F907
:10244000D0E0F8D0D0D0E032C0E074F21218F2A29E
:10245000AFE433FED2AFC2AFC2C11213B6E590549F
:102460001270057590128003759000751A00D2AF36
:10247000EEA2E092AF7F01021951C0E0C0D0E8C0E7
:10248000E0E9C0E0A2AFE433F8D2AFC2C0E59054B7
:102490001270057590128003759000751A00E8A2FD
:0E24A000E092AFD0E0F9D0E0F8D0D0D0E0323A
:1024B000FFFFFFFFFFFFFFFFC082C083E9900A100C
:1024C000F002273C74F712179AE99002E9F07C2198
:1024D0007D037AFF7BFF1208289002EA74FFF0A3C5
:1024E000F0A3E4F0A3F079051207B09002E9E0F957
:1024F0001206D87A467B08120A0E02344A74F41285
:10250000179A8A088B09EB548060309002E9E0F951
:102510001210748A0A8B0BAE0AAF0BEE4F60138E4B
:10252000828F83E064B070031207C8EEFAEFFB12EB
:102530001062AA08E5096480FB80047A007B00022F
:10254000270B74F212179A74FC121743EAFEEBFF82
:10255000741212178E123931EE4F70030225E57492
:102560000212178EEEF0A3EF122946ECF0A3ED1243
:102570002946AA82AB831206D2E9F50A706AE508F9
:10258000450960648E828F83123917EE4F60567A48
:10259000067B001210C88A0C8B0DA80CA90DE84907
:1025A0007005750A13804188828983E41225F2EE52
:1025B000F0A3EF123942E508F0A3E509F09002EF2D
:1025C0001226799002EF70051233F4801B1233E269
:1025D0008003EAFCEBFD8C828D8312267970F38CEC
:1025E000828D8380E3750A02A90A740412175902C6
:1025F0003B31F0A31238E8A32274F212179A890A29
:10260000E975F017A4FEAFF09002EEE4F09002EC52
:10261000122679600A1210CE9002ECE4F0A3F0EEDC
:10262000FAEFFB1210C88A088B09EA4509602FEE01
:10263000FCEFFD790012104A9002ECE508F0A3E5EA
:1026400009F07B008008122663E4F0A3F00BEBC3D3
:10265000950A40F2E50A9002EEF0790080027913C3
:10266000023B31EB75F017A4F8A9F09002ECE028DA
:10267000FAA3E0398A82F58322123086EA4B22746B
:10268000F412179A740C12178E12390CFEE9FF75AA
:102690000800750900800CE5082401F508E50934F7
:1026A00000F509C3E5089CE5099D503285080A85B7
:1026B000090B7403780A121730EA250AF8EB350B78
:1026C000F988828983A3A3A3A3A3A31234C9EE65C7
:1026D0000A7003EF650B70BFE8FAE9FB80047A002B
:1026E0007B00802774F412179A7900EAA2E0501B4D
:1026F0007508BA75098F78081219AD7C047D007AC7
:10270000127B0A1207AA74021217597F0402186C6E
:10271000C082C0839002EF122743601C88828983A5
:10272000A3A3E06A7003A3E06B8882898370E8A3A7
:10273000A3A3A312308280047A007B00D083D082CE
:10274000020135123C17E8492274EE12179A74FC04
:10275000121743EAFEEBFF851882851983E4F0A384
:10276000F0EE24021233D4EE24051238EFEE2404E6
:10277000F50EEF122CFBE024FE603924FC604624A9
:10278000FE605224FE605E24FE700302285C24FE7C
:1027900070030228C024FE70030228CF24FE7003B9
:1027A0000228DE24FC70030228ED24FE70030228B8
:1027B000FC0229399003087417F0A3E412294E1281
:1027C0000450022939851882851983AC82AD8312A1
:1027D00007CE022909851882851983AC82AD831240
:1027E00007D4022909850C08850D09740212178E79
:1027F000AC82AD838508828509831230821206F689
:102800008A0C8B0DAC0CAD0DEC4D603BE4F50CF57A
:102810000D780C1219AD750C08750D03780C121992
:10282000AD750C09750D03780C1219AD74081217EB
:102830008E1219C4123D93121759E9F50C700B1240
:102840003078120468800F750C0185088285098331
:1028500012293C1233F4850C0802290C7402121759
:102860008EAC82AD83850C82850D83122E4D603C2B
:10287000850C82850D83A3A31219C47510087511E8
:102880000378101219AD751009751103781012191B
:10289000AD740812178E1219C4123D93121759E91C
:1028A000F509700B12307812046E800F75090185DE
:1028B0000C82850D8312293C1233F4850908804C63
:1028C000851882851983AC82AD831207DA803A8538
:1028D0001882851983AC82AD831207E0802B85189E
:1028E00082851983AC82AD831207E6801C8518822D
:1028F000851983AC82AD831207EC800D8518828523
:102900001983AC82AD831207F2E9F508E508602966
:102910008E828F83A3E06414601F850E82850F83EF
:10292000E0900308122946123C139003091233F475
:10293000E508A312294E12044A0232E3123C17851D
:10294000188285198322F085188285198322F07CEC
:10295000087D03850A82850B831230862274EE126D
:10296000179A74FC1217438A0A8B0B8C0E8D0FEA90
:102970002405F508EB3400F5097C157D0079007A13
:10298000087B0312104AE5082402F50CE509123809
:10299000F28518828519838582108583117810123B
:1029A00019AD850882850983A3A3A3A3122E44121F
:1029B00019ADE5082405F510E5093400F511781086
:1029C0001219AD850C82850D831231991206F074AF
:1029D000061217598A108B11AE10AF11E50A2402A6
:1029E000F50AE50B1233D7EE4F7003022B1B80174D
:1029F000740212178E12308288828983EAF0A3EB68
:102A0000F0900308E004F0900308E0C3940540034D
:102A1000022B1BE4F510F51178101219AD7510F1A9
:102A200075110278101219AD7510F2751102781037
:102A30001219AD740612178E1219C47910EEFCEF3C
:102A4000FD123D95121759E9705E8508828509834C
:102A5000A3A3A3A3A3A3A3E0F89002F1E0687048A6
:102A6000122E441219AD7CF27D02E5082408FAE525
:102A7000093400FB1210447402121759E960298EC0
:102A8000828F83A3A3A3A3123082900308E0F510E2
:102A90007402781012173074092510F5827403350A
:102AA00011F583EAF0A3EBF0740212178E85821001
:102AB00085831178101219AD740212178E1219C481
:102AC000850C82850D831230A81217598A108B113C
:102AD000AE10AF11900308E0F51075110074027884
:102AE0001012173074082510F874033511F9888214
:102AF0008983A312267970030229E7E824030808D2
:102B000008E93400F9EE4F60030229F088828983D6
:102B100074FFF0A3F0900308E004F0900308E06075
:102B20000A12307812045C7900800B8508828509CE
:102B3000831233EB790A0232E374EA12179A74FEB5
:102B40001217438C128D13EA2405F50CEB123D7D10
:102B500012391B750800750900EA2402F510EB34E0
:102B600000F51185188285198385820A85830B7883
:102B70000A1219AD850C82850D83A3A3A3A3122D80
:102B8000111219ADE50C2405F50AE50D1233D778BD
:102B90000A1219AD850C82850D83122D151206F0CF
:102BA00074061217598A0A8B0BEA450B7003022C24
:102BB000B6EA2404F50EEB122CFB12391B8A828B29
:102BC00083A3A3A3E0F985108285118312308C6062
:102BD00003022CB6E4F514F51578141219AD75142A
:102BE000F175150278141219AD7514F27515027885
:102BF000141219AD740612178E1219C47913AC0A87
:102C0000AD0B851082851183123D9B121759E9F592
:102C1000096003022CB69002F1E0F8E5087009E0C3
:102C20002402900309F08014900309E0FCE82402D8
:102C3000FAE43400FBEA6C7001EB707E850882AA2E
:102C400082122E3B9414122E33506B850E82850F08
:102C500083E0C0E0740A2A122CF2D0E0F005088567
:102C60000E82850F83A3E0C0E085080A740A250A56
:102C7000122CF2D0E0F005089002F1122D11121979
:102C8000AD7CF27D0285080A740A250A122D051210
:102C900017599002F1E02508F50874FF6E7003746F
:102CA000FF6F6012EE24010EEF3400FFE508C394BD
:102CB000145003022B63E5086013123096851082CE
:102CC00085118312308212046279008014E5097044
:102CD0000375090A851282851383EEF0A3EFF0A92C
:102CE0000974021217597F0E02186C85080C740AB9
:102CF000250CF58274033400F583223400F50F852A
:102D00000E82F58322FA74033400FB12103274022F
:102D10002212395122A3A3122D1B221233E2FDEEFF
:102D2000FAEFFB2274EE12179A74FE1217438C0E00
:102D30008D0FEA2405F50CEB1238F2750B009003A9
:102D400008E4F0F50AEA2402F508EB3400F50980FE
:102D500044900308E0FA9002F1E0F8122E3B941739
:102D6000122E33400D900308E0F87416C3989002B9
:102D7000F1F0122E441219AD7CF27D0274092AFA88
:102D80007403122D081217599002F1E0F89003080D
:102D9000E028F0050AE50C2416F582E50D122CF664
:102DA000E0F8E50AC3985074900308E0C394165005
:102DB0006BE50AC333F8E433F9E50C28FEE50D3979
:102DC000FF851882851983AC82AD838E828F831232
:102DD0002E4D7008750B011233E78050E4F510F5A5
:102DE0001178101219AD7510F175110278101219C1
:102DF000AD7510F275110278101219AD7406121724
:102E00008E1219C47916850882850983123D9B129A
:102E10001759E9F50B7003022D5180BB7C087D0327
:102E2000850882850983123082120474A90B74020A
:102E30000232E5E99400C365D03322EA28F8E4348D
:102E400000F9E822E0F5107511007810221232DA4C
:102E50008A108B11AC10AD11EC4D2274EA12179A46
:102E600074FC1217438A0C8B0D8C128D13EA240507
:102E7000F50AEB1233D7750800750900E50A24023C
:102E8000F510E50B3400F511740212178E85820ED1
:102E900085830F780E1219AD850A82850B83A3A353
:102EA000A3A31238F71219ADE50A2405F50EE50BB8
:102EB0003400F50F780E1219AD851082851183123A
:102EC00033DD12307C1206F074061217598A0E8B0D
:102ED0000FAE0EAF0FE50C2402F50EE50D3400F534
:102EE0000F80388882898374FFF00508122CEB74F8
:102EF000FFF005089002F1E0F50C750D00780C125A
:102F000019AD7CF27D0285080C740A250C122D0582
:102F10001217599002F1E02508F508EE4F60278E50
:102F2000828F83A3A3A3E0F9850E82850F831230DD
:102F30008CEE24041238EFE96027850C82850D831E
:102F400012306E1233F4E5087003023054123096DA
:102F5000850E82850F8312308212047A7900023046
:102F600069E4F514F51578141219AD7514F1751599
:102F70000278141219AD7514F2751502781412192D
:102F8000AD740812178E1219C47911EEFCEFFD858D
:102F90000E82850F83123D9B121759E9F509709A2D
:102FA000850882AA82EA9002F17009E02404900365
:102FB00009F08025E0F8900309E0F514E82404FC0A
:102FC000E43400FDEC65147001ED7081122E3B9429
:102FD00012122E334003022F4D850C82850D83E0A3
:102FE000C0E0740A2A122CF2D0E0F00508850C82A9
:102FF000850D83A3E0C0E0122CEBD0E01230B18548
:10300000820C85830D780C1219AD740412178E1280
:1030100019C48510828511831230A81217598A0CA1
:103020008B0DAE0CAF0D85080C740A250CF87403DB
:103030003400F9EE4F7003022EE385188285198360
:10304000E0888289831230B1A3E0C0E0122CEBD07B
:10305000E0022EF1E509700375090A850A82850BE5
:103060008312306E1233F4A9097404022CE3123C6B
:1030700017851282851383227C087D03850A828549
:103080000B8312308622E0FAA3E0FB221230861274
:1030900006DEE9F50922900309E0F5F0E5088490E1
:1030A0000308F07C087D0322122D1B1206FC740419
:1030B00022F005088518828519832274EC12179A6C
:1030C00074FE1217438A088B098C0E8D0FEA2405B3
:1030D000FEEB3400FF1232C4EE24181238EFEA453A
:1030E0000B70030231671232AD502912318C8A10F5
:1030F0008B11EA4511606B7912AC0AAD0B85088221
:10310000850983123082851082851183121798E910
:10311000F50A7058E4F50AF50B780A1219AD8E829B
:103120008F83A3A3E0F50A780A1219ADEE240312E7
:1031300033D4780A1219AD8E828F83123199120816
:10314000167406121759E9F50A7021850C82850D4F
:1031500083E0701F85088285098312308212048003
:103160008011750A0E8009750A018004E50A600362
:103170001233E7850C82850D83E0600479008002BC
:10318000A90A74021217597F0C02186C85188285DF
:103190001983123086120804221233E2FD85088258
:1031A0008509831230862274EE12179A74FE121764
:1031B000438A088B098C0C8D0DEA2405FEEB340044
:1031C000FF750E001232C4EA450B700302328B12F7
:1031D00032AD502C12318C8A0E8B0FEA450F604AAB
:1031E0007912AC0AAD0B850882850983123082857D
:1031F0000E82850F83121798E9F50E600302328E56
:103200008508828509831234C9AA0AFB12329F708D
:10321000147AFF7BFF12329F606C88828983E50AF3
:10322000F0A3E50BF0750A008007750E0E805F05B0
:103230000A9002EEE0FAE50AC39A504AE50A75F0F0
:1032400017A4FAABF088828983A3A3E02AFAA3E04B
:103250003BFB8A828B831233DDEC4D70D2750A17EB
:10326000750B00780A1219ADEEFCEFFD12103274E6
:1032700002121759EEFCEFFD850882850983123092
:10328000821204868014750E098003750E01123CAB
:103290000F850C82850D831233F4A90E022E2E1297
:1032A00007F88A108B11A810A911E84922E5082413
:1032B00002F508E5093400F5098A828B83A3A3A3EC
:1032C000E0A2E522851882851983AC82AD838E82C7
:1032D0008F831232DA8A0A8B0B22E0FAA3E0FB1208
:1032E00006F62274041217597F0A02186C74EC1245
:1032F000179A8C108D11EA2405F50CEB1238F27533
:103300000F00EA2402F50AEB1233D7850A82F5830F
:10331000123082123E2170030233C9750E00807193
:10332000850C82850D83E06401704F8E828F83A3AC
:10333000A31219C48E828F83A3A3A3A3E0F51275F1
:10334000130078121219ADEE2405F512EF3400F5D2
:103350001378121219AD12307C1208167406121767
:1033600059E9F50F6014850C82850D83E4F0123C59
:103370000F8510828511831233F47C177D0079004C
:10338000EEFAEFFB12104A8E828F83E4F0A3F00571
:103390000E9002EEE0F8E50EC398501EE50E75F0B3
:1033A00017A4F8A9F0850882850983A3A3123D8795
:1033B0001233DDEC4D6003023320850882850983DA
:1033C00074FFF0A3F0E50F700612307C12048CA994
:1033D0000F023187F50AEF3400F50B22A31233E216
:1033E000FD22E0FCA3E0228E828F83123C17850E23
:1033F00082850F83E8F0A3E9F022C082C0839002A7
:10340000EAE06A7003A3E06B70067AEA7B0280044C
:103410007A007B0002273C74F712179A7F00EF7541
:10342000F003A4F8A9F0EC28F8ED39F98882898333
:10343000E06A7003A3E06B7006E8FAE9FB800B0F0B
:10344000EFC3940240D87A007B007F0102186C74AD
:10345000F612179A123A0070067A007B008007A3D2
:10346000A3A3A3123082023AC174F212179AE9FEA2
:10347000740E12178E1234C9741012178E1239314D
:103480008C828D83E06402703BA3123C1388828996
:1034900083E0F50CA3E0F9A80C74026870037429AA
:1034A000697021750C02750D00780C1219AD780841
:1034B0001219AD780A1219ADEEF912083A74061213
:1034C000175980027901023B31E0F50AA3E0F50BC0
:1034D0002274E812179A74FB121743E98518828543
:1034E0001983F08A168B178C0E8D0F741F12178E8E
:1034F000123931742112178E1234C9742312178EA7
:1035000012391B7510008C828D83A3A3A3E0A2E463
:10351000502A741D12178E1231928A828B83E58293
:10352000458370030235DD790AAC0EAD0FAA16ABE8
:1035300017121798E9F51060030235E0850E8285B1
:103540000F83E064026003023896A3123C138508DF
:1035500082850983A3858212858313E50E2406F5EF
:103560000CE50F1238F288828983E0FAA3E0F9EAC9
:103570002400F514E439F5157814121A3701000007
:10358000280128A535070002287C360328EC3500E1
:1035900029A6370129CE37022975370329A6370412
:1035A0002937389638EE4F703E850C82850D831290
:1035B000390CFAE9FB8A828B83E0850A82850B83CA
:1035C0001239481219AD8A828B83A31233E2FDAA05
:1035D00008AB091210327402121759800375100ECD
:1035E000A9107405023D7575100B80F4EE4F70F74D
:1035F000850A82850B837401F01239218508828542
:103600000983F07C007D00850E82850F83A3A3A330
:10361000A3E02401FAA3E03400FB1206F6EA4B60B3
:10362000418A828B83E02402F8850A82850B83E03D
:1036300028F0EA2404F8EB3400F988828983E085D5
:10364000128285138312395A1239481219AD8A82AF
:103650008B831233DCE5082403FAE5093400FB020E
:1036600035D3850A82850B83E02404F07C047D0039
:103670007900AA12AB1312104A0235E0EE4F600334
:103680000235E7123921FEA3E0FF850A82850B830C
:103690007404F0EE850882850983F0EF8512828537
:1036A0001383F0740312178EAC82AD83EEFAEFFB36
:1036B0001239EE70030237528A828B83A3A3123928
:1036C00017740112178E85820E85830F780E1219DA
:1036D000AD740512178E1219C47CFF7DFF1206FC13
:1036E00074041217598B0FEA450F7033850C8285CD
:1036F0000D831238F71219AD850C82850D83A31244
:1037000019C47C027D007A9B7B90120528740412F8
:103710001759E9700A740112178E74FFF0A3F08E26
:10372000828F83E064027034750C02750D00780C92
:103730001219AD8E828F831233DCE5082404FAE57A
:1037400009122D08121759850A82850B83E024027D
:103750008009740112178EEEF0A3EFF074011217B6
:103760008E123908F0740112178EA3123900A3A328
:10377000A3F00235E0EE4F60030235E7850C828549
:103780000D831233DDAA16AB1712082E850A828527
:103790000B837402F0EA850882850983F085128222
:1037A000851383EB80CBEE4F60030235E71239219E
:1037B000F8A3E0F9850A82850B837402F0E8850896
:1037C00082850983F0E985128285138380A3850CA5
:1037D00082850D8312308212102CEAFC8C82A88222
:1037E000C39EE49F404BE86E7001EF70047C008044
:1037F0001F851882851983E0FAEE2AFAEF3400FB60
:10380000C3EA98EB94005003E08004EECCC39CFC28
:10381000EC850A82850B83F08C0A750B00780A12FE
:1038200019AD850C82850D83E02EFCA3E03F0235A7
:10383000CE7510070235E0EE4F60030235E7850CC8
:1038400082850D83123C13850A82850B837407F0F1
:10385000888289831239001238E8E0851282851344
:1038600083F0E82402FAE93400FB8A828B83123960
:1038700000123939123908A3123942123911F0E80D
:103880002405F8E93400F988828983123911A312DA
:10389000395AA302376E741D12178E1239F970034C
:1038A0000235DD123C13880C890DE8450D700302CA
:1038B00035DD8E108F1178101219AD780A1219ADFE
:1038C00078081219AD740612178EE0F9AC0EAD0F20
:1038D000AA16AB17850C82850D83121798740612F1
:1038E0001759E9F5100235E0F088828983A322F5A3
:1038F0000CEF3400F50D22E0F50E750F00780E2266
:10390000E08508828509832212396122123C17E87A
:1039100022123961A3A322A3A3A3A3E0FEA3E0FF85
:1039200022850C82850D83E0F8A3E0F5838882E090
:1039300022E0F508A3E0F50922A3A3F08A828B8395
:10394000A3221225F4A3A322F08A828B8312395179
:1039500022E0F50A750B00780A221238E812396164
:1039600022E0850882850983A3A32274EE12179AA8
:1039700074FE1217438A0A8B0BECFAEDFB741412D7
:10398000178EE0F510A3E0F511741612178EE0FE05
:10399000741812178EE0F50EA3E0F50F85188285D6
:1039A0001983AC82AD831239EE603E851882851989
:1039B000831239F9602FA3A3123931E50845096054
:1039C00024780E1219AD78101219ADEEF9AC0CADC9
:1039D0000DAA0AAB0B850882850983121798740417
:1039E0001217598006790E80027901022E2E1206D6
:1039F000F68A0C8B0DEA450D22123086123A00220F
:103A00001207C28A828B83E58245832274F61217DD
:103A10009A74FE121743740C12178E12390C851803
:103A200082851983F0740112178EE9F0E4F508F528
:103A30000978081219AD75080278081219AD7404D6
:103A400012178E85820885830978081219AD12082D
:103A50001674061217597402121759806474F712FB
:103A6000179AEAFEEBFF89087C217D0312082EEAF3
:103A70005402600BA908EEFAEFFB1206EA80027905
:103A80000102344A74F612179A74FF6A700374FFC5
:103A90006B701C7B00EB75F003A4F8A9F0EC28F820
:103AA000ED39F9123AC60BEBC39402501480E612BA
:103AB00007FE8A088B09A808A909E8496003123A99
:103AC000C67F0202186C8882898374FF1225F2E493
:103AD000F02274F612179A1207FE8A828B83E5820F
:103AE00045836006A3A3E0FA80027A007B0080D1C0
:103AF00074F212179A8A088B09ECFEEDFF740E120D
:103B0000178EE0F50A123B36701CEEFCEFFD7AFFD3
:103B10007BFF123B3670047911801688828983E519
:103B200008F0A3E509F088828983A3A3E50AF07968
:103B3000007F0602186C1207FE8A0C8B0DA80CA9D8
:103B40000DE8492274EE12179AEAFEEBFF8C088DFD
:103B500009890C741212178E123C13741412178EEA
:103B60001233DD741612178E123082750D00EC4D73
:103B70006003023C077402650C6003023C02888209
:103B800089831233E2F9EC2400F50EE439F50FEAEB
:103B9000F4F8EBF4F9EC58F8E50F59F9E849705DE1
:103BA000E5082406F8E5093400F9880A890B8882BB
:103BB000F583122D1712082E8A108B11E50E651051
:103BC0007004E50F65116042780E1219AD850A8206
:103BD000850B83122D171208347402121759E9F558
:103BE0000D7027780E1219AD850882850983A3A36D
:103BF000122D1512084C7402121759800D750D8084
:103C00008008750D0D8003750D0BA90D0232E88E2D
:103C1000828F83123C1722E0F8A3E0F92274E812A5
:103C2000179A74E7121743851882851983EAF0A35F
:103C3000EBF08C168D17890E743112178EE0F51289
:103C4000A3E0F513743312178EE0F514A3E0F51515
:103C5000743512178EE0F50F750800750900E50937
:103C600075F003A4F8A9F0851882851983123D87A1
:103C7000E0F47003A3E0F47003023D65EE2402F566
:103C80000CEF123D7DE07003023D6585160A851735
:103C90000B780A1219ADAC14AD15AA12AB131207AA
:103CA000B674021217598A0A8B0BEA450B7003028D
:103CB0003D65E4F510F51178101219AD7406121770
:103CC0008E85821085831178101219AD7409121730
:103CD0008E85821085831178101219AD8512828528
:103CE0001383A3A3A3A31219C47914AC0AAD0B8E3A
:103CF000828F83123D9B121759E97069850A82856C
:103D00000B83A3A3A3A3123C13740212178E1233C6
:103D1000F4850C82850D83E0A2E05018A90E740290
:103D200012178EAC82AD838E828F8312308212077F
:103D30000EE94208850C82850D83E0A2E15026E55C
:103D40000FF50A780A1219B1A90E740312178EAC76
:103D500082AD838E828F8312308212070874011223
:103D60001759E942080509E509C394025003023CCA
:103D70005EA90874191217597F1002186C3400F5E7
:103D80000D850C82F58322E028FEA3E039FF8E82A8
:103D90008F83227916850A82850B8312308612085A
:103DA0001074082274F212179AEAFEEBFF890B7462
:103DB00001650B600E7402650B70637901120A2CA9
:103DC000E9705BEEFAEFFB123E216047750A008056
:103DD0000B7C177D00790012104A050A9002EEE074
:103DE000F8E50AC3985021E50A75F017A4F8A9F080
:103DF000850882850983A3A3E028FAA3E039FB8A1A
:103E0000828B8312274370C985088285098374FFDA
:103E1000F0A3F07C217D03EEFAEFFB120828023BB1
:103E2000311207F88A088B09EA45092274F2121741
:103E30009A8A088B09ECFEEDFF740E12178E12346D
:103E4000C9900A10E0F4603D7A097B0012105CEA28
:103E50004B60328A828B8374B1F0A3E412393BA3A6
:103E6000123939A3E508F0A3E509123E88EEF0A364
:103E7000EF123E88A3A3E50AF0A3E50BF0900A1029
:103E8000E0F9121068023B31F08A828B83A3A3A36E
:103E9000A3A322C082C0839061907404F0A37448ED
:103EA000F0A3E4F09061807440F09061BC7407F07E
:103EB0009061877469F09061B67416F07900120B06
:103EC000227902120B289024B0E493F46006E49364
:103ED000F9120AFE7905120E1602429EC082C083B4
:103EE000E9540FF9906185E0696012E5C654804499
:103EF00049F5C6E59E547F644970F8E9F053C680E1
:103F0000E59E547F70FA02429E74F712179AE5A854
:103F1000FE53A87E120B0AC2BA539AFEC289759B41
:103F200000C2C2120B1075A91175B905120B16D279
:103F3000BA439A0174805E42A802482CC082C083B2
:103F4000906181E4F0A302429B75E90075910075D0
:103F5000BF00020135C082C083906181E4F0A37488
:103F6000C0F0A3E402429DC082C08374F8121743DC
:103F70009003CD12470EE849700302401E9003CD16
:103F8000E0544060237908851882851983AA82ABA2
:103F900083120C12851882851983AA82AB831208BA
:103FA000BE9003CDE054BFF0E054806010790C7AED
:103FB000867B05120C129003CDE0547FF0E0A2E066
:103FC0005008790012402654FEF0E054026008794F
:103FD0000112402654FDF0E05404600879001240BC
:103FE0003154FBF0E054086008790112403154F775
:103FF000F0E054106008790212403154EFF0E054C0
:10400000206008790312403154DFF0A3E0540160CE
:104010000D120B341208D09003CEE054FEF0740859
:1040200012175902429E120B221208C49003CDE0CF
:1040300022120B281208CA9003CDE022C082C0834E
:10404000E9600514602A804F90619A7433F0A3747C
:1040500055F09061A0743AF0900562E06401700937
:10406000C2919003CF7467802D9003CF7461802636
:1040700090619A743FF0A3745AF09061A0747FF03D
:10408000900562E064017009D2919003CF74718051
:10409000059003CF746AF002429EC082C083E9603B
:1040A0000B14600D14600F14601180209024B480F4
:1040B000159024B580109024B6800B900562E064C2
:1040C0000160F39024B7E493906186F002429E74FD
:1040D000EE12179A74F4121743851882851983AC6F
:1040E00082AD8375839075823774041216569024BE
:1040F000B493F46003024261907808E0C3940250E4
:1041000003024241740412178EAC82AD8375838F13
:1041100075829B7408121656F97AFF7BFF7FFF7E2B
:10412000008982858210801874086E70030241F63F
:1041300074096E70030241F6740A6E70030241F650
:10414000E510C333FCE433FD740412178EE5822CB2
:10415000F582E5833DF583E0F50EA3E0F50F8E08CB
:104160007509007402780812173074482508FC7429
:10417000783509FD8C828D837808121613740878BF
:104180000812155485080C85090D8C828D837808DA
:1041900012161374187808121554E50C4508F50822
:1041A000E50DF509C3E50E9508E50F95098C828D9F
:1041B0008378081216138C828D8378081216137474
:1041C0001878084014121554E50C4508FCAD0DE5AF
:1041D0000EC39CFCE50F9D800F121554E50C45089D
:1041E000C3950EFCE50D950FFDC3EC9AED9B5006B3
:1041F000ECFAEDFBEEFF0EEEC394135003024128E0
:1042000074FF6A700374FF6B602D8F087402780866
:104210001217307448124EBA74783509F58378084D
:10422000121613851882851983E5822510F582E51B
:1042300083124C47E508F009E9C394045003024196
:104240001975080175090078081219AD7402121762
:104250008EAC82AD837A2D7B091212427402121742
:1042600059740C1217597F0A02186CC082C08390CF
:10427000618674D5F09061AE7468F0A3746AF090B2
:10428000624574FBF0A304F053F4FD43FE02900575
:10429000627401F07900120B228003F0A3F0D08346
:1042A000D082020135C082C08375E1F1900517E02C
:1042B000604E14600814605214604A8052120B4021
:1042C00090050DE0F97A0E7B05120D98908FE312A0
:1042D0001631120DCE909043121631120DA4900596
:1042E00018E0F9120DB07901120E0A90050BE024C6
:1042F000161244347458F0A3740BF0790002429EF5
:10430000120B4680BB120B4C80B6120B5280B17957
:104310001280EA74F412179A75D90D9004FDE0A288
:10432000E0E4331313F81243A0484401F5D97800B0
:1043300012441E40FB7800880874FE124EBA7404C2
:1043400012442840F275E1959004FDE0F97AFE7B75
:1043500004120D9E900A3274D4F0A3740A124443DE
:1043600012446312445A12459B1243AA780812164B
:1043700013909027780812159F90903F7808121597
:10438000ED12442E780812162290050BE024141228
:1043900044347413F09003CB7402F07F0402186C61
:1043A00090050DE0C4333354C02290050BE0F8A310
:1043B000E0F5838882A3A32274F612179A12456C43
:1043C0008AD9780012441E40FB780080061244D23D
:1043D00012461EE8C39940F512455E12441E40FB8A
:1043E00078008008124EB6740512461EE8C3994044
:1043F000F375E195900A3274E0F0A3740A12444315
:1044000012444D12163112442E12163D90050BE047
:1044100024141244347412F09003CB024809880823
:10442000740E2508F582740512477A9406229005C9
:104430000BE0240EF8A3E012443B223400F98882FA
:1044400089832212458474DAF0A3740A2212446329
:1044500012445A12459F90903322F0A374F2F0A3B5
:10446000740A221244672212446B22F0A3747EF075
:10447000A3740C2274F612179A1244C71243A04474
:1044800002F5D9780012441E40FB780080061244E1
:10449000D212461EE8C39940F575E195900A321292
:1044A00044DDF0A31244DD12445012163112442EA2
:1044B00012163D90050BE024141244347414F0904D
:1044C00003CB740402480B90051DE0F9740729F52D
:1044D000D9228808741E2508F58274052274EC120E
:1044E00044EA1244EAF0A3740A22F0A3740AF0A387
:1044F00074EC2274F612179A12456C74064AF5D9B8
:10450000780012441E40FB780080061244D2124606
:104510001EE8C39940F512455E12441E40FB780028
:104520008008124EB6740512461EE8C39940F37512
:10453000E195900A3274E6F0A3740A12457A1244A7
:104540004D12163112442E12163D90050BE0241424
:104550001244347415F09003CB740302480B900599
:104560003D1244CA74044AF5D97800221244C79017
:10457000050DE0C4333354C0FA22124584747EF032
:10458000A3740C2212458822124595747EF0A37400
:104590000C1245952212446BF0A32212459F22F083
:1045A000900A40747EF0A3740C124588747EF0A3C8
:1045B000740C124467F022C082C0831243AAA3A3E2
:1045C000A3A3E402429B74F712179A1250FCF874EA
:1045D0000339F9E82405FAE93400FB8A828B831257
:1045E0004E6B88828983A3A3A3A3A3A3A3A3A3EC55
:1045F000F0A3EDF088828983A3A3A3A3A3A3A3E0E0
:1046000024FFF8A3E034FFF98A828B83E8F0A3E962
:10461000F002482C880874662508F5827405124D4E
:1046200092F5D90822EAFEEBFF9061D0E0F87480A1
:10463000C398FAEE24832212463D940422124C556C
:10464000E0F5D90AEAC32274F612179AEAFEEBFFE4
:104650009061D0E0707575D90E75D90375D9047A5B
:10466000008A08EE25081251CA248C1246E040F157
:104670007A008A08EE25081251CA2484124637406F
:10468000F175E1957908EE248C1246D924841246FE
:10469000D07C008C82AA82C3E49AF895E0F9EE28D7
:1046A000F8EF39F9E8248BF582E9124D8EC0E0EE7F
:1046B0002A1251CA24ABF582E9124C47D0E0F00C23
:1046C000ECC3940840CD1247968002790002480C52
:1046D000FAEF3400FB120C06221246D07904EE22C7
:1046E00012463D940822C082C08375D90275D90351
:1046F00075D90575E195EA2470F582EB12470BEA4E
:104700002472F582EB1247A802429E124C581247BF
:104710001222E0F8A3E0F92274F612179AEAFEEBEF
:10472000FF90056674061247841219AD7C01790367
:10473000124AB012175975D90675D9037800124775
:104740006A40FB75E1959003CBE064087017EE2496
:1047500070F582EF12470BEE2472F582EF124C4790
:10476000E8F0A3E9F0790102480C8808746625088E
:10477000F582740512477A940522124C58E0F5D957
:1047800008E8C322F075086675090578082275E106
:10479000957904120DD4EE2470F582EF124C581264
:1047A0004712EE2472F582EF124C58E8F0A3E9F0BC
:1047B00079012274F612179AEAFEEBFF9061D0E0BD
:1047C00070437901900566740BF09003CBE06407A9
:1047D000701775086675090578081219AD7C01090E
:1047E00009124AB01217597905740129F5D975D9FA
:1047F0000378008003124614E8C39940F875E195E8
:104800001247968002790080037401F07F0202183B
:104810006C74F712179AEAFEEBFF75D90375D9038A
:1048200075D90DEE24DE12483112478E7F01021831
:104830006CF582EF124D92F5D9227F0302186C7449
:1048400001250AF5D975D90378002274F512179A53
:104850001248C06004780480027800E8240BF8EA6B
:10486000C3984041750A099005667409F0790812E9
:1048700048A9601475086675090578081219AD1203
:104880004AA8121759750A0D12483F8003124614A0
:10489000E8C3950A40F775E1957904120DD4124AE0
:1048A000257901800279008091EE24E3FCEF340049
:1048B000FD7A677B05120C00850882850983E0225A
:1048C000124625F8EF124E5FF583E02274F31217BB
:1048D0009A8A088B09124ABBFAE5082483F50AEB89
:1048E00012498A6004780480027800E82408F8EA13
:1048F000C3985003024983750C06900566740CF04A
:104900009003E8E0900567F07402C0E0F97CE97D6F
:10491000037A687B05120C00D0E0F97CEB7D031272
:104920000C00850A82850B83E0601C750A66750B96
:1049300005780A1219AD7C067903AA08AB09124A58
:10494000B0121759750C0A7401250CF5D975D903E5
:1049500078008009880A7466250A12461AE8C39509
:104960000C40F175E1957904120DD4E5082470F539
:1049700082E50912470BE5082472F582E509124722
:10498000A8800279007F0502186C3400F50B850AB7
:1049900082F583E02274F612179AEAFEEBFF124AC0
:1049A000BBFCEE2483F8EF124AB660047A0480025E
:1049B0007A00EA2404FAECC39A405E7A0290056613
:1049C000EAF0EE24F5F582EF124A316019750866B7
:1049D00075090578081219AD7C027903EEFA124ABE
:1049E000B01217597A0674012AF5D975D9037800DF
:1049F0008003124614E8C39A40F875E195EE2474DA
:104A0000124A1EEE2480124A1E124A257904120D03
:104A1000D4EE240D1247998002790002480CF582E9
:104A2000EF124BA122EE241DF582EF124BA1A3F051
:104A300022124D92900567F088828983E02274F6F5
:104A400012179A124ABBFEEA2483F8EB124AB660A8
:104A5000047C0480027C00EC2404FCEEC39C4043F4
:104A60007C029005667407F0EA24F6F582EB124AA0
:104A700031601575086675090578081219AD790356
:104A8000124AB01217597C0674012CF5D975D90356
:104A900078008003124614E8C39C40F875E19579CC
:104AA000018002790002480C7C097903EEFAEFFBE1
:104AB000120C7274022212443BE0229061D0E0F8A2
:104AC0007480C3982274F512179AE9FEA2AFE433FA
:104AD000F50AC2AF7F00EA246FF8EB3400F98001D9
:104AE0000F88828983E0FCEFC39C50188F08EA2569
:104AF00008FCEB3400FDEC246BF582ED124D8E6E5C
:104B000070DE8010EA2CFAEB3400FB124C41EE12FE
:104B10004A3704F0E50AA2E092AF02483A74F6126E
:104B2000179AA2AFE433FFC2AFEA246FF8EB125139
:104B3000CCFCE9FD8C828D83E014F07E0080218E18
:104B400008EA2508F8EB1251CC246CF582E9124DE5
:104B50008EC0E0E8246BF582E9124C47D0E0F00EFD
:104B60008C828D83E0F8EEC39840D4EA246E124C18
:104B70004474FF124B96EFA2E092AF02480CC08241
:104B8000C083E5A8F8C2AF124C41E9124B96E8A2E7
:104B9000E792AF02429EF0EA246AF582EB124BA143
:104BA00022124C58E4F02274F212179A8C828D83F0
:104BB000A3A3A3A3E0541FF0EA2436124F038E826E
:104BC0008F83E4F0F50C850C8285820AEC250AF8C7
:104BD000ED124E5BF583E0C0E0EA250AF8EB124CDB
:104BE0004BD0E0F0750D00850882850983E0F50A59
:104BF000750B00E50D780A121711E50AA2E0502A9C
:104C0000E50C33333354F8250DC0E08E828F83E0FA
:104C1000F8EA28F8EB1251CC2438F582E9124C4717
:104C2000D0E0F08E828F83E004F0050DE50DC39493
:104C30000840B4050CE50CC39405408A7F060218B1
:104C40006CEA246BF582EB124C58223400F9E8240C
:104C50005D124C5522F582E93400F5832274F61278
:104C6000179A9003F5E0640170077A007B00024D0B
:104C7000887E009003FBE070F17401F0A3E4F0A3E0
:104C8000F090045B04F090045EE4F0A3F090046103
:104C900004F09003FEE4124D9F90040804F0900489
:104CA0002EE4F090901312163190041112163D90DC
:104CB0000415E4F0A3F0A3F0900479F090046DF0F3
:104CC0009004627480F0A3E4F0900468F0900460B3
:104CD000F09004E4124D979004EDF090047CF09075
:104CE00004CCF0A3F09090131216319004CE12165B
:104CF0003D9090131216319004D212163D9004D8B4
:104D0000E4F09004DAF09004D6F09004F0124D979D
:104D10008E087464124EBA7404124C4774FFF00E7D
:104D2000EEC3940440EA7E008E82A882740428F5C3
:104D3000827405124D8EC0E0745628F582740412F8
:104D40004C47D0E0F00EEEC3940540DC7E008E822E
:104D5000A88274DF28F5827403124D8EC0E074DCE3
:104D600028F5827404124C47D0E0F00EEEC394088C
:104D700040DC9003F5E004F0640170089003FDE06E
:104D80009003F7F07AF97B0302480CF582EF124D9D
:104D90009222124C58E022124D9FA3124D9F22F0F6
:104DA000A3F0A3F0A3F022C082C083EA2403F5821B
:104DB000EB124D8E6008E4F09003F6E014F09003DF
:104DC000F5E014F070069003F774FFF08A828B838D
:104DD000A3A3E4F0900509E0700D9003F6E06401F0
:104DE00070057900120DB602429EC082C083900306
:104DF000FCE4F09003FBF09003F5F0A3F0A374FF44
:104E0000F075E1F102429EC082C083780079009083
:104E100003FCE0600478F9790388828983A3A3A363
:104E2000A3E0F902429E74F612179AEAFEEBFF1213
:104E30000BB8EE2465F8EF124E5B124E69EC4D6034
:104E4000109003F71250F4850882850983E4F0A3DB
:104E5000F0EEFAEFFB120CA802480C124E5F22345F
:104E600000F988088909888222F583E0FCA3E0FD27
:104E70002274F712179AEAFEEBFF8E828F83A3A3A8
:104E8000A3A3E0FA7B00120936EEFAEFFB120BCA7D
:104E9000120C8A02482C74F612179A78008808744B
:104EA000DF124EBA7403124A2108E8C3940840ED99
:104EB0009003DF0248098808743E2508F5822274B1
:104EC000F612179AEA240D124F03EC2403F8ED347E
:104ED00000F988088909EC2407F8ED1251CCFCE9A7
:104EE000FD124F0D1216B88E828F83E8F0A3E9F001
:104EF000124F0D1216B88B09EA45096003124F20B4
:104F000002480CF8EB3400F9E8FEE9FF228C828DB0
:104F100083124712850882850983E0FAA3E0FB2209
:104F20008E828F83E02401F0A3E03400F02274F637
:104F300012179AEA242EF582EB3400124E69EA2405
:104F400070124F03780079FAECFAEDFB1216B88E66
:104F5000828F83E8F0A3E9F0780079FAECFAEDFBB0
:104F60001216B88B09EA45096003124F2002480C5B
:104F700074F012179AEAFEEBFF741012178E78087D
:104F8000121613120D628A0C8B0D8C0E8D0F908FE2
:104F9000F3780C12159F90903F780C1215ED780C59
:104FA0001219A98E828F831243AD12163112216C11
:104FB0007404121759E960030250588E828F83E0FF
:104FC0002402F8A3E01251CCFAE9FB8A828B8378A1
:104FD000081215B290903F78081216138A828B83BC
:104FE0007808121600EE240BF582EF124C47C082AF
:104FF000C0838E828F83A3A3A3A3A3E02401F8A37D
:10500000E03400F9D083D082E0687003A3E06970D7
:105010000479018045EE2407F8EF12443B124F2437
:10502000EE24741251D17014EE247512505F700387
:10503000A3E06D70078A828B83124F24EE248012C6
:1050400051D17014EE248112505F7003A3E06D7093
:10505000078A828B83124F2479007F0802186CFA2A
:10506000EF3400FB8A828B83E0FCA3E0FD88828919
:1050700083E06C2274F312179A1250FCFE74033909
:10508000FFEE2404F50AEF3400F50BEE2465F50875
:10509000EF3400F5098010124E6B85088285098374
:1050A000E4F0A3F01250EE850882850983124E6B5E
:1050B000EC4D6030EE2464124D8BF50C780C121917
:1050C000B1EE2463124D8BF9EEFAEFFB120BF47480
:1050D00001121759E985088285098360BA12470EC3
:1050E000E84970077C007D001250EE024985850A70
:1050F00082850B83E0FA7B001208F4229003F7E02C
:10510000F875F004A4C8AAF02AF974F9282274F2F8
:1051100012179AEAFEEBFF890A740E12178EE0FA54
:10512000EE24621251D160030251C5124ABBF50C44
:10513000EE2483124D8BFB60047804800278008992
:1051400008E928F8E41251CC24020808E93400F9EF
:10515000E50C98E499A2D265D0334065EA700575F4
:105160000B028003750B01EB6033750900780812A0
:1051700019AD7A667B05120C3C740212175975083A
:105180006675090578081219ADAC0AA90B124AAC6C
:105190001217597404250AF50A7C667D05740125E9
:1051A0000AF5D9850BD97800800A8808EC124EBA26
:1051B000ED12461EE8C3950A40F075E1957900802E
:1051C000067907800279FF024C3CF8EF3400F9E8D9
:1051D00022F582EF124D92640122C082C0838003C7
:1051E000125208E9F874FF28190470F4ECFAEDFB88
:1051F00002429EC082C0838003125208E9F874FF05
:1052000028190470F402429E8C828D83E08A828B7E
:1052100083F08C828D83A3AC82AD838A828B83A33F
:10522000AA82AB832274F412179AE9FF7E008A08DF
:105230008B0978081219F100040DB45358527552B5
:105240008E52A552C252D952FA5210532253485389
:10525000505360537653905374016F60030253B000
:105260008C828D83E0F8C3940340030253B0E8902E
:105270000AFC02538D74026F60030253B08C828D5E
:1052800083125AD8900AFDE8F0A3E902538D740105
:105290006F60030253B01253D740030253B0E8903B
:1052A000078702538D74016F60030253B08C828DA7
:1052B00083E0F8C3940540030253B0E890078802E6
:1052C000538D74016F60030253B01253D740030231
:1052D00053B0E890078902538D74106F6003025336
:1052E000B07508108E0978081219AD7A8A7B0712FA
:1052F000103274021217590253D274016F60030204
:1053000053B01253D740030253B0E890079A807D00
:1053100074016F60030253B08C828D83E0900B00A8
:10532000806B74046F60030253B08C828D837808A5
:1053300012161390905B7808121445407390079CE6
:1053400078081216220253D2EF70651211CA805BE0
:1053500074016F705B1253D75056E890079B802DF5
:1053600074016F704B8C828D83E0F8C3940A5040B7
:10537000E8900AFF801774016F70358C828D83E08E
:10538000F874F928C3940A5027E8900B01F0804282
:1053900074016F701B90082EE0F88C828D83E09072
:1053A000082EF0E8702CE0640170271211BE8022F4
:1053B0007E18801EC3EA9424EB9400501374026F8D
:1053C000700E8C828D83126596120534E9FE800280
:1053D0000E0EEEF90253E68C828D83E0F8C3940240
:1053E00022740E1217597F0402186C74F012179A67
:1053F00074CC1217438C0A8D0B742012178EAC825A
:10540000AD8375838F7582C0740612165674201290
:10541000178EAC82AD83121170E9F508744412172F
:105420008EE0FEE9C3940A400302555275F006E986
:10543000A4F509742612178EAC82AD837A0E7420FF
:105440002509F912136E743212178EE0FF900AFCD0
:10545000E06402700474018001E4F50D780D121906
:10546000B1EEFDEFFCA908AA0AAB0B1211F474010E
:105470001217597C147D007900740C12178EAA82C1
:10548000AB8312104A740C12178EAC82AD837A1063
:1054900074242509F912136EE9703C7C1079FF74AD
:1054A0000C12178EAA82AB831210B0E97029741CFB
:1054B00012178EAC82AD837A0474252509F9121374
:1054C0006E740C12178EAC82AD83EFA2E0E433F958
:1054D000AA0AAB0B1205BE851882851983AC82AD72
:1054E000837A0C74702508F912136EE970538518CD
:1054F00082851983AA82AB831211A0750800E50882
:1055000075F003A4F8A9F0851882851983E582282F
:10551000F8E583125CD7125E5F601D88828983A3E1
:10552000A3E0F50E750F00780E1219ADAA0AAB0BA9
:1055300012081C74021217590508E508C3940440A8
:10554000BDEFA2E1500C900786E0F9AA0AAB0B125E
:10555000082274046E7027900AFCE06402701F7ABF
:105560000090079AE060010A900787E060047804E1
:1055700080027800E84AF9AA0AAB0B12067E79008D
:1055800074341217597F0802186C74F012179AEAD3
:10559000FEEBFF8C088D09750A0AE9600C1460099E
:1055A0001460371460790256391211B2E9F50AC352
:1055B000940A4003025639E5084509607C750E06D9
:1055C000750F00780E1219ADEEFCEFFDAA08AB09BD
:1055D0001210327402121759805F750B00750E0697
:1055E000750F00780E1219ADEEFCEFFDE50B75F0AE
:1055F0000EA4F8A9F074A828FA740739FB12104415
:105600007402121759E9600C850B0AE50AC3940A63
:1056100050278016050BE50BC3940A501C80BE1260
:1056200011B8E9F50AC3940A500FE5084509600965
:10563000AA08AB09A90A1211ACA90A02558574F48B
:1056400012179A890875091574FF6A700374FF6B45
:1056500070277E00AC087A027B00EEF912118EE909
:1056600060037509000EEEC3940A40E8E508605334
:105670007AE27B11120A3E804A120A208A0A8B0BB8
:10568000AE0AAF0BEE4F60387C007D00EE2405FAC9
:10569000EF3400FB8E828F83A3A3A3A3E0F9121142
:1056A00070E9C3940A500CAC087A027B0012118E88
:1056B000750900E508600CEEFAEFFB1211E28003B9
:1056C000750914A9090253E674F212179AECFEED5B
:1056D000FF750815740E12178EE0F50AA3E0F50B9E
:1056E00074FF6A700374FF6B7021750900AC0AAD1A
:1056F0000BEEFAEFFBA909121194E960037508009B
:105700000509E509C3940A503F80E2120A208A8203
:105710008B83E5824583602D7C007D00E582240536
:10572000FAE5833400FBA3A3A3A3E0F9121170E907
:10573000C3940A5013AC0AAD0BEEFAEFFB121194AE
:105740007508008003750814A908025C9FC082C018
:10575000839007A0EAF0A3EBF0900786E0FC7D00C1
:105760007A237B00120534900786E0F9120798D05F
:1057700083D08202013574EA12179A74EC1217432F
:10578000EAFEEBFFEE240CF514EF3400F515EE24E1
:105790000AF50CEF3400F50DEE2405F50EEF34009C
:1057A000F50FEE2409F50AEF3400F50BEE2403F5AE
:1057B00008EF3400F5098E828F83A3A3E024FA70EA
:1057C00003025AC524FD70030259E3147003025802
:1057D0005B14601024FD70030259AD147003025A6B
:1057E00018025ACE125ADE604AE0F5838882125AB5
:1057F000D8880C890DE8450D60398514828515839C
:10580000E0F50E780E1219B1EE240BF582EF34009C
:10581000F583E0F9850A82850B831265960A0A0AE8
:10582000AB09850C82850D831217987401121759E4
:10583000025ACE850A82850B831219C490079C12E6
:1058400016311205D07402121759E97003025ACEAC
:105850007901850A82850B83025A918E828F83A3F8
:10586000858212858313E06003025990850E82853C
:105870000F83E0A2E040030259907C0E7D00790086
:10588000851882851983AA82AB8312104AEE2408F8
:10589000F510EF3400F511851082F5831261CEEA20
:1058A0004B6010750A06750B00780A1219ADEA24D0
:1058B00010801B1261C8120A20EA4B7003025ACEF4
:1058C000750A06750B00780A1219ADEA2405FCEB7F
:1058D0003400FD740212178EAA82AB831210327448
:1058E00002121759850E82850F83E0A2E25004D27E
:1058F000F08002C2F0A2F0E433F8740C12178EE0CC
:1059000048F0850C82850D83E0F50AA3E0F50BE5F0
:105910000A450B6013E50A2410F582E50B3400F507
:1059200083780C121613800C750CFF750DFF750E25
:10593000FF750FFFE50A450B7006750A00750B0031
:10594000851082851183E0F510A3E0F511E510457F
:10595000117006751000751100780C1219A9780ADB
:105960001219AD78101219AD85148285158312199C
:10597000C48E828F83A3126591740A12178EAA8235
:10598000AB831211A6740A1217591261C8121200C1
:10599000125ADE7003025ACE125AE97003025ACE2E
:1059A000851282851383E0FC7901025AB91261C81D
:1059B000121200125ADE7003025ACEE0F58388827A
:1059C000A3A3125AD8890BE8450B7003025ACE8E56
:1059D000828F83A3E0FC79021261C88882850B83E1
:1059E000025AC07C007D00EE2404FAEF3400FB85EF
:1059F0000882850983E0F9121170E9F8C3940A401E
:105A000003025ACEAC0CAD0D7A0475F006E8A4245E
:105A100025F9121368025ACE1261C890079BE06004
:105A200007900AFFE0F9806C900AFCE070047905A9
:105A30008062120A208A0C8B0DA80CA90DE82404A0
:105A4000F50CE93400F50D8E828F83A3A3A3A3A3E5
:105A5000A3A3E0A2E05042E8496073850C82850D63
:105A600083E0FE6034850A82850B83E05410702940
:105A7000740E12178EAC82AD83E82405FAE9340067
:105A8000FBEEF9121170E97010790385088285091F
:105A9000831261CE1205CA8035AC0EAD0F850C8223
:105AA000850D83E0F91261C81211EE125ADE601EF4
:105AB000125AE960197C0079001261C88E828F83C6
:105AC0001217988009120696E970031211BE741419
:105AD0001217597F0E02186CE0F8A3E0F922900724
:105AE000A0E0F8A3E0F9E84922E0F5838882A3A3C7
:105AF000E0F8A3E0F9E8FEE9FFEE4F2274F4121794
:105B00009A74F2121743EAFE8C0B75F006E9A4248E
:105B100020F508851882851983AC82AD837A0EF949
:105B200012136EE9704D7C0679FF85188285198302
:105B3000AA82AB831210B0E97039740C12178E125E
:105B40005AD8E8F509E50B6005EE42098004EEF449
:105B50005209850982AA82E86A7001E96011740C11
:105B600012178EEAF0A3E4126121A90812136879D2
:105B700001800279000253E174F212179A74E6125E
:105B80001743890A8A088B09ECFEEDFF740C121783
:105B90008EAC82AD837A0E75F006E9A42420F9124A
:105BA000136EE96003025C987C0679FF740C12178F
:105BB0008EAA82AB831210B0E96003025C98747005
:105BC000250AF50B851882851983AC82AD837A0C82
:105BD000F912136EE96003025C94851882851983BB
:105BE000AA82AB831211A0E5084509702C7C0C79C0
:105BF00000851882851983AA82AB831210B0E960F0
:105C000003025C947C0C7D007900851882851983E1
:105C1000AA82AB8312104A805D851882851983ACF5
:105C200082AD83AA08AB0912119A8A0C8B0DA80CBD
:105C3000A90DE8497028EE4F605E851882851983AA
:105C4000AC82AD837A007B0012119AEAF8EBF9EA94
:105C50004B604588828983E508F0A3E509F0125D71
:105C600013FAEE6A7001EF602BEEF04F7008888235
:105C70008983E4F0A3F0851882851983AA82AB8317
:105C80001211A0851882851983AC82AD837A0CA984
:105C90000B121368790180027900741A1217597F68
:105CA0000602186C74F712179A7F00EF75F003A4C0
:105CB000F8A9F0EC28F8ED125CD7E06A7003A3E0D5
:105CC0006B7006E8FAE9FB800B0FEFC3940440DB2E
:105CD0007A007B00025FBA39F9888289832274F7DF
:105CE00012179A7E00EE75F003A4F8A9F0EA28F8DE
:105CF000EB125CD7E0F4FCA3E0F4FD88828983EC2E
:105D0000F0A3EDF0125D13F4F00EEEC3940440D551
:105D1000025FBAE82402F582E93400F583E02274D8
:105D2000F412179A74F4121743EAFEEBFF8C088DF5
:105D300009EE4F7005790A025E491211B2E9F50ABF
:105D4000C3940A4024750B007C0679FFE50B75F0BF
:105D50000EA4FAABF074A22AFA74073BFB1210B03F
:105D6000E97003025E4E850B0AE50AC3940A4003FC
:105D7000025E4775F006E50AA4F50BEEFCEFFD7A2E
:105D80000E7420250BF9121368E5084509600EAC66
:105D900008AD097A1B7421250BF9121368741812C7
:105DA000178E125E5F600A7A1B7422250BF912139C
:105DB00068741A12178E125E5F600A7A10742325B7
:105DC0000BF9121368741C12178E125E5F601D7A35
:105DD000107424250BF9121368741E12178EAC82EE
:105DE000AD837A047425250BF91213687C0C7D00B1
:105DF00079FF851882851983AA82AB8312104A85A0
:105E00001882851983AC82AD837A0C7470250AF9E7
:105E100012136875080E75090078081219ADEEFCAA
:105E2000EFFDE50A75F00EA4F8A9F074A228FA7443
:105E30000739FB121032740212175990082EE060D5
:105E4000031211FA1211E8A90A740C0253E3050BAC
:105E5000E50BC3940A5003025D48750A0A80E8E026
:105E6000FCA3E0FDEC4D2274F412179A74F21217A1
:105E700043EAFEEBFFE9C3940A5004EE4F70047945
:105E800002803E851882851983AC82AD837A0E75B7
:105E9000F006E9A42420F912136EE9F508702075C4
:105EA0000A06750B00780A1219AD740212178EAC2F
:105EB00082AD83EEFAEFFB1210327402121759A969
:105EC000080253E174F412179AEAFEEBFF7508001A
:105ED000750A06750B00780A1219ADEEFCEFFDE5A8
:105EE0000875F00EA4F8A9F074A228FA740739FB1B
:105EF0001210447402121759E96004A908800B05B6
:105F000008E508C3940A40C8790A0253E674F712F8
:105F1000179A74F0121743EAFEEBFF750800851814
:105F200082851983AC82AD837A1075F006E508A4EA
:105F30002423F912136E7C1079FF8518828519834A
:105F4000AA82AB831210B0E97018EEFCEFFD851841
:105F500082851983AA82AB831205A0E97004A9087F
:105F6000800B0508E508C3940A40B3790A741080D1
:105F70004674F712179A7C8C7D0079007AA27B0711
:105F800012104A7E00EE75F00EA4F8A9F074A22853
:105F9000FC740739FD7A0E75F006EEA42420F91280
:105FA000136E0EEEC3940A40DC90082EE0600312DC
:105FB00011FA1211E880031217597F0102186C744C
:105FC000F712179A7E007F007C0679FFEF75F00EBE
:105FD000A4FAABF074A22AFA74073BFB1210B0E9E2
:105FE00070010E0FEFC3940A40DEEEF980CC74F717
:105FF00012179A7E00EEF91211D00EEEC3940A50D9
:1060000003E960F180B474F312179A74CB1217434A
:10601000E9FE7C0E7D0079FF742712178EAA82ABF1
:106020008312104A7C1B7D0079FF740C12178EAA14
:1060300082AB8312104A7C0C7D0079FF8518828523
:106040001983AA82AB8312104A75F006EEA4FF747E
:106050002712178EAC82AD837A0E74202FF912139B
:1060600068E9F508740C12178EAC82AD837A1B7444
:10607000212FF9121368E9F509740C12178EAC82FE
:10608000AD837A1B74222FF9121368E9F50A740C98
:1060900012178EAC82AD837A1074232FF912136815
:1060A000E9F50B740C12178EAC82AD837A10742450
:1060B0002FF9121368E9F50C740C12178EAC82AD2F
:1060C000837A0474252FF9121368E9FF85188285F5
:1060D0001983AC82AD837A0C74702EF9121368E9BF
:1060E000F8E5084509450A450B450C4F48F9743554
:1060F0001217597F0502186C74F712179A74F2126E
:106100001743E9900786126121792012136EE96026
:10611000031211CA79011208B81211BE740E025F7F
:10612000B7F0851882851983AC82AD837A0E22740C
:10613000F412179A8A088B09EB548070030261C12C
:10614000900786E0F91210748A0A8B0BAE0AAF0B27
:10615000EE4F60648E828F83E024506038146006B6
:1061600024E1604A804BA3A3A3A3E070448E828FF6
:1061700083A3A3A3A3A3A3A31219C48E828F831204
:1061800065918E828F83A3A31261CE12117C74025B
:10619000121759801CA3A3A3A3E0641E70137900F7
:1061A0008E828F83A3A31261CE1211768003121107
:1061B00088EEFAEFFB121062AA08E5096480FB8002
:1061C000047A007B000253E6850882850983E0FAA1
:1061D000A3E0FB22C082C083900786E0F98A828B0D
:1061E00083A31261CE12082202576FC082C083744B
:1061F000FF1217431211C4E9C3940285188285194E
:1062000083400474028002740AF0AC82AD837A0188
:1062100079051206AE740112175902576F74F21203
:10622000179A74E8121743EAFEEBFF890A8C088D6F
:10623000097C187D007900851882851983AA82ABB4
:106240008312104A851882851983EEF0A3EFF0902F
:106250000788E0C0E0740212178ED0E0F090078942
:10626000E0C0E0740312178ED0E0F0900B01E0C0A4
:10627000E0741712178ED0E0F0741512178EE054E8
:10628000FEF8A3E0F9900B00E0A2E0E433FAE84A5C
:10629000F8741512178E1263C2A2E15004D2F08076
:1062A00002C2F0E854FDFAA2F0E43333F8EA48F809
:1062B000741512178E1263C2A2E35004D2F080024A
:1062C000C2F0E854F7FAA2F0E433F50C750D00744F
:1062D00003780C1217301263BB12178E1263C2A21E
:1062E000E45004D2F08002C2F0E854EFFAA2F0E4E5
:1062F00033F50C7404780C1217301263BB12178E2E
:106300001263C2A2E55004D2F08002C2F0E854DF6A
:10631000FAA2F0E433F50C7405780C12173012630E
:10632000BB12178E1263C2A2E25004D2F08002C2E6
:10633000F0E854FBFAA2F0E433F50C7402780C1286
:1063400017301263BB12178EE8F0A3E9F0900789AB
:10635000E0601D750C10780C1219AD7C8A7D0774F5
:106360000612178EAA82AB831210327402121759CA
:1063700090079AE06011E50A6009741512178EE023
:106380004402F0780180027800741412178EE048FD
:10639000F0900787E060047804800278007414129B
:1063A000178EE048F0AC08AD09851882851983AADC
:1063B00082AB831205C47418025C9CEA450CF87425
:1063C0001522E8F0A3E9F0900B00E02274F3121715
:1063D0009A74E5121743EAFEEBFF8C098D0A7428C4
:1063E00012178EE0F50C75F006E9A4F87408650A3A
:1063F000700474228002742128F50B7C1B7D0079C7
:1064000000851882851983AA82AB8312104A8518E9
:1064100082851983AC82AD837A1BA90B12136EE9B6
:106420007032741A12178EE024F9C3940A5025E5CD
:106430000CF50B780B1219B1740112178EAC82ADEA
:1064400083E509A2E0E433F9EEFAEFFB1205D67416
:1064500001121759741B0260F074F712179A120890
:1064600094750800E50875F00EA4F8A9F074A22848
:10647000FE740739FF7C0679FFEEFAEFFB1210B0CD
:10648000E97009EEFAEFFB790012089A0508E508B1
:10649000C3940A40CF025FBA74F412179A74FB12C5
:1064A00017438A088B09740312178E85820A858325
:1064B0000B780A1219AD750A02750B00780A1219C9
:1064C000AD750A95750B90780A1219AD7CFF7DFFAA
:1064D0007A017B001206F0740612175902657DE4FA
:1064E000F50AF50B780A1219AD740412178E85821D
:1064F0000A85830B780A1219AD740412178E8582EF
:106500000A85830B780A1219AD740912178E1219B5
:10651000C47902EEFCEFFDAA08AB0912081074085A
:10652000121759E97035851882851983E0FA7401CC
:1065300012178EE0F9EA2400F50AE439F50BEA4572
:106540000B6018780A1219AD8E828F83126592AA99
:1065500008AB0912117C7402121759E4F50AF50B05
:10656000780A1219AD740512178E1219C47CFF7DBA
:10657000FFEEFAEFFB1206FC74041217598A0A8B1D
:106580000BAE0AAF0BEE4F60030264DF74050253DB
:10659000E3A3A3A3A3A3E0FCA3E0FD2274E81217E6
:1065A0009A907803E06442705E900565E014F070A4
:1065B00056C2AF1265B600782AD0E0F618D0E0F6E1
:1065C000E59F5407F97005908FFF800390906378E2
:1065D00008121613E9C4C0E07829E65508F5080842
:1065E000E65509F509740B7808121721D0E0250843
:1065F000F8906270E0A2E740F8E8C333906272F06E
:10660000906270E0D2E0F09003F7E0F874FF6870F9
:10661000030268CEE812731F2402F8EF3401F988F0
:10662000828983127399EA4B600FEE2401F582EFA1
:106630003401F583E0F912108CEE2405F514EF34E3
:1066400000F5158E828F83A3A3A3A3A3A3A3126D2A
:10665000B3127335906054E09003D2F0906055E02F
:106660009003D3F0906056E09003D4F0906057E030
:106670009003D5F0906058E09003D6F0906059E018
:106680009003D7F090605AE09003D8F090605BE000
:106690009003D9F090605CE0FC9003DAF090605DCC
:1066A000E0FD9003DBF090605EE0F50C9003DCF021
:1066B00090605FE0F50D9003DDF09003D8E0F510F9
:1066C0008C082508F8E43400F9850C08126D5E8DFD
:1066D00008126D5E850D08126D5EEE24F71272E1F0
:1066E00012738B8C8285820AEE24F9F582EF126D8B
:1066F000A7EE24FB126D9BEE24FFFAEF3400FB8A19
:10670000828B83E0F508A3E0F509E5084509603AC6
:10671000906000E0C333F508E433F5098A828B8387
:10672000E02508F50EA3E03509850E82F583127386
:106730008B906000E0C333F8E433F98A828B8312D4
:106740007346244AF582E9126DA7EE240BF8EF3464
:1067500000F9EE241DF50EEF3400F50FEE2420FABB
:10676000EF3400FBEE241C1272C9EE240FF50AEF81
:106770003400F50BE510700BED7008E50C7004E5C6
:106780000D6079851482851583127361EE240D12D4
:1067900072EB2CFCA3E03DFD88828983ECF0A3ED35
:1067A000F0126D787003126DDE9003D3E0602485E3
:1067B00008828509837401F0EE246A1272EB70136B
:1067C000EE24741272EB700BEE24801272EB7003E5
:1067D000126DDE906062E08E828F837003026861CA
:1067E000E02406FCA3E03400FD127378120D5C8EE9
:1067F000828F83E0241212733BE48079EC601812DC
:106800006D7870238A828B83127361850E82850F67
:1068100083ECF0A3ED800FEE24FD126D9B850E82BC
:10682000850F83E4F0A3F088828983126DB3E0685A
:106830007003A3E06960030267A9850A82850B8360
:10684000E0600F851482851583E064057002A3E083
:10685000600B7908EEFAEFFB120BD08071793E8065
:10686000F3E0F8A3E0F5838882A3A3A3A3A3A3E4A2
:10687000F0A3127734F0A3F0906060E0C0E0EE2463
:10688000691272E1D0E0F09003D8E0F81272E828C3
:10689000F0EE247AF516EF3400F5170269BA900588
:1068A00063E06401702B120E221272E87006906091
:1068B000607480F0EEFAEFFB120D0EE96401600ED9
:1068C000120BEE120D08E964016003120C8A026DCE
:1068D000F1EE24831272EB6004780480027800E504
:1068E0000CC398F91208E88A0A8B0BEA450B60B6CC
:1068F000EE24831272EB70048A088B0978008015ED
:10690000E5D9C0E08810E5082510F582E509127286
:10691000E4D0E0F008E8C3950C40E5EE2483127261
:10692000EB603774FC250CF50C78081219ADAC0C33
:10693000A90DEEFAEFFB120C787402121759E970E8
:10694000197403650D70030269F4E50A24FBFAE586
:106950000B34FFFB1210CE0269F47403650D700353
:106960000269F9850C1075110078101219ADAC0888
:10697000AD09AA0AAB0B120C3C7402121759EE2493
:10698000691272EB64807004747F8001E0F508780E
:10699000081219B1E50DF50878081219B1A90CAC67
:1069A0000AAD0B9003F7E0FA7B001208EE740212B6
:1069B0001759120E2E1272E814F0E070030268AE3E
:1069C000750866750905750A00750B00E5D914F59B
:1069D0000CE5D95403F50D601B7403650D700302BB
:1069E00068FCE50C700302689EEE24681272EB608E
:1069F0000302689E793D026854850882850983E018
:106A0000FAA3858208858309A3A882A98360381424
:106A10007003026B4C147003026D02147003026B5E
:106A20008D24FD7003026C30146087147003026CB7
:106A30005724FE7003026C39147003026C521470F8
:106A400003026CAA026CAF850882850983E0C0E06E
:106A5000EE24771272E1D0E0F0880889097902AC5F
:106A600008AD09EE2478126D1F7902AC08AD09AAB1
:106A700016AB17120BFA8A088B097902AC08AD091C
:106A8000EE247C126D44247E126D1FEE2477127268
:106A9000EBC333F0EE24781272E1126DD3EE24785A
:106AA000127332126DCD851682851783127335EEFF
:106AB000247E1272EBF50AA3E0F50B7404780A1237
:106AC0001730EE247E1272E1E50AF0A3E50BF079AF
:106AD00002AC08AD09EE2475126D3024751272E116
:106AE000C082C083851482851583127352D083D0EF
:106AF00082126DBD40057928026854EE247C127222
:106B0000EB2401F508A3E01272CCE4F50AF50B12B0
:106B10006DCD88108911E4F512F5137808791012FB
:106B20001464EE247E1272EBF510A3E0F5117810D8
:106B300079081214254005793B026854EE2474123A
:106B40007712127734E4F0A3F00269B27402C0E065
:106B50007905AC08AD097A047B05120BFAEAFCEB67
:106B6000FDD0E0F9EE2481126D3024811272E1C073
:106B700082C083851482851583127352D083D0829C
:106B8000126DBD4003026AF6EE248080B2EE24E26C
:106B90001272EB70147A00126D4FC0E0126D67D064
:106BA000E0F00AEAC3940840EEEE24E31272EBA28E
:106BB000E0EE401424DE1272E1741AF0790DEEFA60
:106BC000EFFB120B9A0269B2126D8E24E112731060
:106BD0007908AC08AD09EE249C126D4424A4126D12
:106BE0003EAC08AD09EE2494126D3EEE2494FAEF0B
:106BF0003400FB120C067904AC08AD09EE248812AF
:106C00006D357904EE2488FAEF3400FB120C06EEA1
:106C1000248CFAEF3400FB120C18EE2484FAEF34C3
:106C200000FB120C1E9003CDE04480F07904808EAE
:106C3000EE24DF127712026B48EE126D8E24D3120F
:106C40007302EE24DD12772024D4127302790B0232
:106C50006BBEEE24E080DC7A00126D4FC0E0126D56
:106C600067D0E0F00AEAC3940840EE7A008A82A86E
:106C70008274DF28F58274031272E4C082C08385B7
:106C80000882850983E0D083D082FBE05BC0E012FC
:106C90006D67D0E0126D86A38582088583090AEAB4
:106CA000C3940840C87909026BBE127726700DEEB6
:106CB00024F61272E1EAF07907026BBE850882853C
:106CC0000983E0C0E0EE24EE1272E1D0E0F0880823
:106CD00089097402C0E0F9AC08AD09EE24EF126D29
:106CE00035EAFCEBFDD0E0F9EE24F1126D3024EB37
:106CF00012772024ED1272EB60030269B2790C0264
:106D00006BBEEE24F5F8EF127315E088828983F0EC
:106D1000EE24F412731088828983E0F90268541219
:106D20006D2322FAEF3400FB120BFA8A088B09223A
:106D3000126D35EE22FAEF3400FB120BFA22126DBF
:106D400023790822126D237902AC08AD09EE228A5C
:106D500082A88274DF28F58274031272F222E82579
:106D600008F8E93400F922EE28F8EF3400F9E824B5
:106D7000E3F582E912730B22850A82850B83E41204
:106D80006D86E0640122F0850882850983222462F1
:106D9000127308E4127743E4F0EE221272EF24013A
:106DA000F0A3E03400F0221272F2250AF0A3E034DE
:106DB00000F02212735685148285158322E0C39851
:106DC000F8A3E099F9C3E894FFE9947F228516823D
:106DD000851783127356E8C333F8E933F9228A82A0
:106DE0008B83127356850E82850F83E8F0A3E9F03A
:106DF000227F1002186C53BFEF02013574E812179E
:106E00009A9003F7E0F812731F2420F50EEF340078
:106E1000F50FEE241CF50CEF3400F50DEE241DF5F6
:106E200010EF3400F5119061D0E0600B8510828581
:106E30001183E4F0A38030EE246A1272EB7029EE25
:106E400024741272EB7021EE24801272EB7019859B
:106E50000C82850D83E06401700E850E82850F83A0
:106E6000127367E8F0A3E9F0EE24071272C98E826C
:106E70008F83A3A3A3A3A3127367127346240108ED
:106E8000E9127315127335EEFAEFFB120D14E96473
:106E900001701F851082851183E4F0A3F08E828F2C
:106EA00083A3A3A3A3A3E02401F8A3E01273151204
:106EB0007335EE2474127729600302705BEE24753B
:106EC0001272D11219C48508828509831273618EEA
:106ED000828F83A3A3A3A3A3127399121C317402FC
:106EE000121759E9700302705B850A82850B8312C1
:106EF000739F2477FCEF3400FDEEFAEFFB120BDCFE
:106F00001272DE126DE2850C82850D83E4F085102D
:106F100082851183F0A3F0EE240F1273108508828E
:106F200085098312735C240D1272EB28F8A3E039F3
:106F3000F9EE240B1273328E828F83A3A3A3A3A333
:106F4000127361850A82850B83127399121C678AFA
:106F5000088B09EE242E127393E4F50AF50B8A0CC4
:106F60008B0DF50EF50F7808790C121464EE247869
:106F70001272F87808790C12158C85080C85090DA9
:106F8000850A0E850B0FEE247EF516EF3400F517FB
:106F9000851682F58312735C247AF512EF3400F5BE
:106FA00013851282F583127361EE2430F50AEF34F3
:106FB00000F50BEE24321272C9EA6C7002EB6D70B0
:106FC00024850882850983E0687003A3E069701551
:106FD000EE247C127393850A82850B83E06A70032A
:106FE000A3E06B603188148915740478141217219A
:106FF00078141219AD1272DE1219C4EDC313FDEC30
:1070000013FC8E828F83A3A3A3A3E0FA7B00120953
:107010003C7404121759EE24771272EBC0E0EE2490
:107020002B1272E1D0E0F085128285138312735C1B
:10703000242E127332EE247C12734F850A82850B44
:107040008312733585168285178312739FFAEFFBBF
:10705000120BE2EE2474127302800BEE242E1272D5
:10706000F8E4F50EF50F851082851183E0F514A381
:10707000E0F515EE24121272C9EE241FF512EF345A
:1070800000F513EE24181272D1780C12141070113E
:10709000851282851383E0F8E514687002E51560B7
:1070A0002378081219ADEE24101272E11219C47877
:1070B000141219ADAA0CAB0DAC0EAD0F12230D744A
:1070C00006121759850A82850B83780C12162285C1
:1070D0001082851183E0851282851383F0AC08ADA0
:1070E00009127371906062E060077CA47D8F127357
:1070F000718E828F8312735288828983A3A3E824BE
:1071000008FCE93400FD74061216568510828511BC
:10711000831273998E828F83E02402F8A3E03400F7
:10712000F9E8FCE9FD8A108B11E4F512F513909053
:1071300007781012159F7810790C1214648C828DC8
:107140008378101215B290903F78101216138C822B
:107150008D837810121600900509E0640160030227
:1071600072497901120DB68E828F83E0F50AA3E091
:10717000F50B909033121631E50A240EF582E50BDB
:107180001272E412163DE50A2412F8E50B3400F9F8
:10719000E8FCE9FD850882850983780C12161385C1
:1071A0000C08850D09E50875F0E2A4C508A8F0757E
:1071B000F004A428F875F0E2E509A428F5098C820A
:1071C0008D83E02508F0A3E03509F0EE2416127255
:1071D000EBF508A3E0F50974047808121721E50817
:1071E0002401F8E5093400127386906062E08C8215
:1071F0008D8370030272A1E02410F0A3E03401F04B
:10720000EE240F1272EB6016EE242B1272EBF8755F
:10721000F071A4C8AAF075F002A42A127386E50AD8
:107220002414F582E50B1272E47410F08E828F83C1
:10723000E0241612733B745EF0A3740BF0EEFAEFC9
:10724000FB121B937900026DF190900F780C1214D1
:10725000455003027167EA4B6003027167780C12B4
:1072600019A9EEFAEFFB120BE87404121759E9643E
:10727000016003027167EE240F1272EB60128E82BE
:107280008F83A3A3A3A3A3E064057002A3E060041B
:1072900079088002793EEEFAEFFB120BD07901807B
:1072A000A5E02410F8A3E034FFF97A717B021216EE
:1072B000B888088909EE242E12734FC3E50898E5B3
:1072C0000999500302720080C7F508EF3400F509F0
:1072D00022F50AEF3400F50B850A82F58322EE24AD
:1072E0007CF582EF12730B22EE24671272EF22F507
:1072F00082EF3400F583E0221272EFF50CA3E0F583
:107300000D22127308E4F022F582EF3400F5832297
:10731000127716F0223400F98508828509832275D8
:10732000F004A4C8AAF02AF974F928FE740339FFFE
:10733000EE22127308E8F0A3E9F022F8A3E034008B
:10734000F98882898322E028F8A3E039F9E822123B
:10735000730812735622E0F8A3E0F922127356EE76
:1073600022E0FCA3E0FD2212735685108285118372
:1073700022127378122247228E828F83E02402FA2F
:10738000A3E03400FB22F98C828D83E028F0A3E097
:1073900039F022F582EF12730BE0FAA3E0FB221220
:1073A0007356850882850983E8F0A3E9F0EE22741C
:1073B000E812179AEAFEEBFFEE24DFF510EF340037
:1073C000F511EE24E0F50EEF3400F50FEE2462F532
:1073D00016EF3400F517EE2483F50CEF3400F50DAD
:1073E000EE241DF512EF3400F513EE2404F50AEF38
:1073F0003400F50BEE246A1272C980399003D5E08F
:10740000700302764CEEFAEFFB120BA0EE24A4F50B
:1074100014EF3400F51578141219ADEE249CFCEF2E
:107420003400FD850A82850B83E0FA7B001209484F
:107430007402121759EE246F1272EB606AEE246B1D
:107440001272EB24FE602F24FE60601460741470CE
:107450000302757414700302770024FE7003027631
:107460006324FE70030275E014700302768A1470C0
:107470000302762380BF850882850983E06401705A
:10748000179003D4E0700302764C7916EEFAEFFB06
:10749000120BD07901026DF1EEFAEFFB120B8EE9BF
:1074A000850882850983F0790080EA85088285094C
:1074B00083E0640170030273FCEEFAEFFB120B64CD
:1074C00080DD850882850983E0640170479003D5DB
:1074D000E06027850C82850D837401F09090131273
:1074E0001631EE24D51272E112163D909013121649
:1074F00031EE24D91272E112163D85108285118376
:10750000E06401600302764C7906EEFAEFFB120BA1
:10751000A6027435EE24D3127729701CEEFAEFFB25
:10752000120B6AE9640160030274A7851082851159
:1075300083E412772F0274A6EE24D41272EB700348
:107540000274A7EE24B3F514EF3400F51578141285
:1075500019ADEE248CFCEF3400FDEE24C3FAEF34B9
:1075600000FB120C2A7402121759EE24D312771260
:10757000F0027435850882850983E06401705790B4
:1075800003D5E0700302764C127761EEFAEFFB123E
:107590000BA0851682851783740112773C850A82B9
:1075A000850B83E0FA7B00EE24DD127729700779E2
:1075B0000012095480077C01790012094EEE24DD87
:1075C000127302EE24E11272E1E4127734F08510B6
:1075D00082851183809AEEFAEFFB120B7002749F82
:1075E000850882850983E064017015850E82850F08
:1075F00083E064017056EEFAEFFB120BA0027435C3
:10760000EEFAEFFB120B76E9640160030274A785C2
:107610000E82850F83E4F0850C82850D8312772F0F
:10762000027570850882850983E06401702B9003E0
:10763000D5E06012850C82850D83E4F08516828585
:1076400017830412773C9003D4E070AA1277766017
:10765000030274A7792202748CEEFAEFFB120B7C02
:1076600002749F850882850983E06401701290038B
:10767000D5E060D8EE24E21273101277610275F63D
:10768000EEFAEFFB120B8202749F85088285098354
:10769000E06401705C127726702DEE24EC127729DD
:1076A00060030275F6EE24F11272E11219C4EE24A1
:1076B000EF1272E11219C412774F79001209427465
:1076C000041217590275F612777660030274A7EE5A
:1076D00024F11272E11219C4EE24EF1272E11219B0
:1076E000C412774F79221209427404121759027694
:1076F00054EE24ED127720FAEFFB120B8802749FF0
:10770000EEFAEFFB120B94E9640160030274A70226
:1077100075F612771622F582EF3400F58374012294
:10772000127716F0EE22EE24EB1272EF64012212B1
:107730006D860422F0850E82850F832212774374B2
:1077400001F022F0EE2468F582EF3400F58322EE9A
:1077500024EE1272EFFC850A82850B83E0FA7B002F
:1077600022EE242012730812735685128285138329
:10777000E8F0A3E9F022EE2472F8EF3400F98882F1
:107780008983E024FFF0A3E034FFF088828983122C
:107790007356E84922C082C0838A828B83A3A3A345
:1077A000A3A3A3A3127352EA240BF582EB127396E0
:1077B000C3EA98EB995014E8C39AF8E99BF9C3E837
:1077C00094AAE99410501479018012EAC398F8EB56
:1077D00099F9C3E894ABE9941050EC7900D083D0C8
:1077E0008202013574F412179A74FC1217437E005A
:1077F0009008A4E4F09008A1F07F7D750804750955
:107800000078081219AD740212178EAC82AD837A1B
:10781000007B00EFF912123C740212175990904B42
:1078200078081216138518828519837808121410A7
:1078300070199008A1E0600FF9121338EFF91213D4
:10784000389008A1E48001EFF0801E851882851928
:10785000837808121613E5084509450A450B70049C
:10786000EFFE8005EFF91213380FEFC3947F408BC2
:107870009008A1E07026EE7018797D12132C900804
:10788000A27404F0A3E4F09008A4E06019790080E9
:1078900017F012133EEEF9121350800AEE6004F94D
:1078A00012133212133E790102793A74F712179AC1
:1078B00074FC121743E9FE851882851983E4F0A34E
:1078C000F0A37410F0A3E4127B92FAFB12135C9005
:1078D00008A4E07005EE9008A1F074041217597F17
:1078E0000102186C74F412179A74FF121743890876
:1078F0009008A4E070331212487E007F00750A01E0
:10790000750B00780A1219AD740212178EAC82AD95
:1079100083EEFAEFFBA90812123C74021217598584
:107920001882851983E0F460089008A47401F0803F
:107930000512798E40C77401800274041217597FB2
:107940000402186C74F412179A74FF121743890812
:107950007E007F00750A01750B00780A1219AD745C
:107960000212178EAC82AD83EEFAEFFBA908121259
:107970003C7402121759851882851983E0F4600758
:10798000A908121332800512798E40C880A8EE240F
:10799000010EEF3400FFC394082274F412179A7496
:1079A000FC1217437EFC7F077508047509007808F0
:1079B0001219AD740212178EAC82AD83EEFAEFFB92
:1079C0009008A1E0F912123C7402121759909033FA
:1079D00078081216138518828519837808121410F6
:1079E000700AEE24FCFEEF127A8450BC127F64E829
:1079F000F0A3E9F002793A74F412179A74FC1217A2
:107A0000438909EAFEEBFF8C08EE24FCFEEF127AB4
:107A100084406A750A04750B00780A1219AD740265
:107A200012178EAC82AD83EEFAEFFBA90912123C5D
:107A30007402121759740212178EE0F8A3E0F98548
:107A4000188285198385080AE0650A7002A3E07030
:107A50000AEEC398FAEF9400FB8026E9548070A9DF
:107A6000E82404FAE93400FBC3EE9AEF9B400EEEE3
:107A7000C398F8EF99F9E824FCFEE980917A007B3D
:107A80000002793A34FFFFC3EE9404EF94002274AD
:107A9000EC12179A74FC121743890AEAFEEBFF8C6A
:107AA0000B85188285198374FFF0A3F074181217E0
:107AB0008EE0F50CA3E0F50D4480F9740212178EE8
:107AC000E50CF0A3E9F0EE250CF508EF350DF5090E
:107AD000851882851983AC82AD83AA08FBA90A1296
:107AE000135C740212178E127B8412135C7402787A
:107AF0000C121721E50CF50E9008A4E0705B741AC7
:107B000012178EE0F50CA3E0F50D850E107511002F
:107B100078101219ADAC0CAD0D8E108F1174027867
:107B200010121721850A12F51374097812121730F2
:107B3000E5102400FAE5113513FB1212427402120B
:107B40001759780E1219B1AC0CAD0DEEFAEFFBA976
:107B50000A1213567401121759850B0CE50C85187F
:107B600082851983F0A37480127B8812135C8518B8
:107B700082851983127B8412135C74041217597F57
:107B80000C02186CA3E0547F127B92AA08AB09A9DF
:107B90000A22F0851882851983AC82AD832274EAAB
:107BA00012179A74F81217438910750DFF747D65CA
:107BB000107005750C7E8003750C7D750A04750BBD
:107BC000009008A2E024FCFEA3E0027CA9851882B4
:107BD000851983A3E054806003027C988518828510
:107BE0001983850D08E065087002A3E07003027C2C
:107BF00098851882851983E0F50DFCAA0AAB0BA9BC
:107C00000C1213448B09EA45096003027C98740244
:107C100012178E127D2CF508EF99F5098814891535
:107C2000750E00750F007512047513007812121985
:107C3000AD740612178EAC82AD83E508250EFAE509
:107C400009350FFB9008A1E0F912123C74021217DB
:107C500059740412178EAC82AD83E50A250EFAE53D
:107C60000B350FFBA90C12135CE50E2404F50EE591
:107C70000F3400F50FC3E514950EE515950F50A6CA
:107C8000740212178EE02404F8A3E03400F9E50A28
:107C900028F50AE50B39F50B740212178E127D2CAC
:107CA000F8EF99F9E824FCFEE9127A84405A90082A
:107CB000A4E0706E75080475090078081219AD7497
:107CC0000212178EAC82AD83EEFAEFFBA9101212EE
:107CD0003C7402121759851882851983E0F47003E9
:107CE000A3E0F46003027BCD740212178EE0F8A3C8
:107CF000E0F954806007EE24FCFEEF80AC127F5A5E
:107D0000EE98EF99401C8090A90C12132C9008A4B7
:107D1000E0700A9008A2E50AF0A3E50BF0A91012A2
:107D2000133274081217597F0E02186CE0F8A3E0A2
:107D3000F9EEC3982274F012179A74FC1217438953
:107D40000B8A088B09ECFEEDFF741412178EE0F518
:107D50000A8014E5082404F508E5093400F509EE65
:107D60002404FEEF3400FF850A0C74FF250CF50A8D
:107D7000046045750E04750F00780E1219AD74027B
:107D800012178EAC82AD83AA08AB09A90B12123C64
:107D90007402121759780E1219ADEEFCEFFD740241
:107DA00012178EAA82AB831210447402121759E97B
:107DB00070A19008A47401F074041217597F08028E
:107DC000186C74F112179A890E8A088B09ECFEED73
:107DD000FF9008A4E0704D750A01750B00780A1237
:107DE00019AD8A0A8B0B7402780A121721890CF5D7
:107DF0000D7409780C121730E50A2400FAE50B35EA
:107E00000DFB1212427402121759750A01780A12F8
:107E100019B1EEFCEFFDAA08AB09A90E12135674B6
:107E2000011217597F0702186CC082C083121326F3
:107E3000E97004790180027900D083D08202013593
:107E400074F112179A74FB12174389098A088C0A75
:107E50008D0B127F701213448A0C8B0DAE0CAF0D7C
:107E6000EE4F605F750E00804A750C01750D00784D
:107E70000C1219AD740212178EAC82AD83EEFAEFBC
:107E8000FB9008A1E0F912123C74021217598518F0
:107E900082851983E0F8850E0CE50A250CF582E54C
:107EA0000B3400F583E068701AEE24010EEF340005
:107EB000FF050EE50EC3950840AFE508650E70039B
:107EC000027F5085080CE50C2403F8E43400F97AAD
:107ED000047B001216B0880C890D7402780C1217FE
:107EE00030AE0CAF0D9008A2E02EF8A3E03FF912DF
:107EF0007F5AE89401E994084029740112178EE42E
:107F0000F0A3F0A3F0A3F00412178EAC82AD837A35
:107F1000007B009008A1E0F912135C9008A1E0F941
:107F2000121350780A1219AD8E0A8F0B780A1219A3
:107F3000AD127F7012134A74041217599008A4E00E
:107F40006004790A800C127F64E028F0A3E039F025
:107F500079007405121759027E24E82404F8E934E4
:107F600000F9C322EE2404F8EF3400F99008A222AD
:107F7000AC099008A2E0FAA3E0FB9008A1E0F92286
:107F800074F412179A890A8A0BECFEEDFFAC0A1200
:107F90007F72121344EA4B6020850B087509007844
:107FA000081219ADEEFCEFFD9008A1E0F912123CA9
:107FB000740212175979008002790A02793F74F726
:107FC00012179AEAF8EBF98005A3AA82AB838A829A
:107FD0008B83E070F48C828D83E0A3AC82AD838AC6
:107FE000828B83F0A3AA82AB8370EAE8FAE9FB7F75
:077FF0000102186C020135CB
:087FF800851A87C2AF020135B2
:10800000033F0000030004280D9808900790019496
:10801000011B0195111B08F00939821F0EA4FECD2A
:1080200082210622FB381818162118F0EF3818F2B2
:10803000ED3828F2EB3868F003392A1FE73F08F0E3
:108040000428BA3868F0393C08F1053C88F1173C3F
:10805000A8F10E3CE09F2C1F0128104A291FD63F93
:1080600015D0033827D00938009004289F3F0128F5
:10807000154101980128014A25D01F38041F831F8C
:108080000EA4FECD042205381421202807A0083FA5
:108090000628681527D0E939202807D0F23883212F
:1080A00078F10238042188F1083D0628A14001F04A
:1080B00004288438042807A005284D1528F1163C0B
:1080C00068F1143D77CF1240599202D80F3912D07F
:1080D0000739699222D00439799242D004380528B0
:1080E000EF151E3FC09F04286C3F08F1233C88F128
:1080F000203D094028F1103D4540F7C759F2083DA1
:108100009303131183E1B9F00F3C23E00D3F09D82D
:10811000EA38F9C30B3F68F1033D59F2F23C09D844
:10812000F9390528BD150528F01501900128214AC7
:10813000051F48F00C3C08F10A3868F1033C98F13F
:1081400006390C960528F9150228843F47A00C969D
:108150000528F315531F0528E31507288CED05287E
:10816000EC1501280195711B01280CE40528E51583
:10817000511F88F10B3808F1073868F109390128D7
:10818000214201F00B3947D009383521063F28F14B
:10819000033838F10339351F341F04280CE047D069
:1081A000033903280CE80528C815571F28F006389E
:1081B000561F811F021F38F0063930215B900528B9
:1081C0003B15FD3F88F1033D0428F715052881156F
:1081D00047D0133808F10F392C470CF00C38C40382
:1081E000B4125C110C3E04F00A38C103802801A0CF
:1081F000411B063F3021043F07284CED4C1B5B9090
:1082000047D0173827D00328E8390EA4FECD022224
:108210000D39002208381021002914E00328DD3C24
:108220004C1BF13F05289E15EE3F46181221033FD7
:108230000528021588F13039052811150128FB4160
:10824000302100291BE00A3D0428F61505280715F2
:10825000F6C35192166A3B906B080428ED1504286A
:10826000FE150BF0FB3917D004382D1F0128C43F31
:108270000328214701F008390328314701F0043968
:10828000A2958090033FC29500920328B615201B4B
:1082900054900128B33F08F10539052111900128B8
:1082A000214A38F103390021023F302110216A03AD
:1082B0000428C2156B033141224128F1093D02F027
:1082C0000239F29101F00B39FF28F191083F02F0D9
:1082D0000239529201F00339FF28F193F7CB1B06C4
:1082E000023907A4B20C073D47D003286E3824900A
:1082F0000328753F1690B6080428B115A603042874
:10830000AE153BE0F7CE28F1703C012807A0F090B5
:10831000A00668F1323D149030F0053938F1032899
:108320005E38073F50F003285A3958F10328573870
:1083300038F104380328AB15033F032889150328B7
:108340007515012807D0033907A1563F424130F087
:108350000C3907A112D0033807D84E3887A0C14086
:1083600041D04A38F7CE483F38F1033822D044385C
:1083700007D8423907A1403F78F1123847D02D384D
:1083800000F0033860F00639C14011D0073887A0EB
:10839000113F10F0033820F0AB3977CF0B3F00F0DE
:1083A000033810F0A539414181D004390328501514
:1083B000093F03286C1568F10539414141D0023964
:1083C00007B810F0063903283115012807D0033803
:1083D00007D8123907A1103F40F00228FC390328C2
:1083E000141507D8F838083FA1038340311231052E
:1083F00011D0023907A14BF0063C04281D150428B2
:108400002E15FA3F042818151BF0FD3D38F10338EE
:108410000328A115F7CD0328214701F005390328CA
:10842000314701F0033807A2F7CE224082D00A3844
:1084300006030428141506937606261196040428CC
:108440000E1571034112002871C021070438E7CFCF
:108450004198043F17D0043951980728214817D074
:108460000538F295202800901D3F07D20438C295A8
:108470000092183F07D10438D2950094133F07D4D7
:108480000438E29500980E3F809028F10A3D319023
:10849000A10631F0063903A4B2950228AA1500A15D
:1084A000A2950228A615201B28F1633D08F10A3980
:1084B000012807D00739072851411128C14A01284E
:1084C00007A017D20539E3CF8AD0023813A007D20C
:1084D0000539B3CF4AD0023843A083D01E393103C7
:1084E0001112310521D00739319907282148002977
:1084F00015E0133F529502287C15454003D10D39F4
:10850000429502287615281F21990728214803D271
:108510000438629502286D1573CF834808F1093934
:1085200077CF17D0063907D203390AD1023887A08E
:10853000349007D2073807D803383090543F07A843
:10854000023FF7C718F15A3927D04C39314011D0C2
:10855000493987D0073917D0453907D203390AD1AD
:10856000413805F04B39414001F0483850903B3FCD
:1085700068F1153878F13938149017D03D3907D2A1
:108580003D3987D003383490393F07D137391190BE
:108590000128214A409003286E15253F47D01C38FA
:1085A000249007D30C3911900128214A87D008382C
:1085B0005144002911E0043A514C023877CF17D0CA
:1085C0001B3987D003383490193F07D31739C1407E
:1085D00021D01438073F17D00F3907D30338309014
:1085E000023F009044900A3F249017D0053907D3EA
:1085F00005393490033FA09F44900221C190511B44
:108600008121342124F0083927D004390C9CFD2B1A
:10861000AE3F10904490B7CF34F00E395321032869
:10862000E195711B541F0F28CC9506282141F1C0FC
:1086300081111C09143F0190511B0728F19F711BE8
:10864000802114F00128863854F0FD2B0A380128C7
:10865000AD3F541F032864151028CCED03286D1579
:1086600076217821501F0128A29A217001B2218021
:1086700001B221802CE30328601574210128ACE4A9
:1086800008F1073C88F1033D0228971503282115BE
:10869000011F0128349D03285015201F002168F078
:1086A000093D069058F003390728364102289315F2
:1086B000FA3F0728504078F10439331F321F042154
:1086C000500000DC01287C3828F1103D8340F7CBB6
:1086D00031031112310521D0033903D1033900D8F8
:1086E000103807A41B901A90163F00D8012868394B
:1086F00098F107394B700128E2412B0800288E3F82
:10870000102807A04B701BF0FC2BED3C4A70224157
:1087100028F1303D02F00239F29112E0B20CFC2B4C
:10872000E23C419031061111FF2BE29F32045200CE
:1087300022111A042A043240002862C018F10339B9
:1087400027D00D3922F0093907280141B109002944
:1087500021E0093A0AA1073F42F00339FACE033F6C
:1087600062F0F93818F1253977CF0AD1223887A07D
:10877000203F02F00239529212E0B20CFC2BB33CC3
:1087800068F1123D38F1153887D01339012831428C
:1087900001F00F38402807A00728914231C0C1A03E
:1087A0000728914A063F02280190710621121A04F7
:1087B000FF2BF29FB2084BE0A60302280C152603FC
:1087C0000228091568F1293CFBF0273C62904670AD
:1087D00002280115D2370428609662904670062D53
:1087E0000128F915C23778F11839D04000D815386A
:1087F000DBF0133C829046700128ED15D2377644A9
:1088000000D40338060E023F060D41700128E3151F
:10881000417086120128DF153290B20C053D46707A
:108820000128D915FB3F08F1063941721128C14AC8
:10883000012807A0EF28F7CF28F11E3D8340309094
:10884000A00631031112310521D003398295043F6E
:1088500030F0043972950028CC1553C843D0023843
:1088600023A007D4023803A130F0023903A28348C1
:1088700092950028BE1506900BF005380128AB151F
:10888000591FFB3F0EA4FECD0122043902286A15B0
:10889000FA3F551F1121031F249008F10F390AD107
:1088A000033987D02438314011D0213905F02139DE
:1088B000414001F01E3850901B3F48F1073828F125
:1088C000033858F1063987D0143877CF1490113F08
:1088D00078F1053911900128214A093F98F10939A9
:1088E000829500288A15281F5490033F00904490D9
:1088F0000EA4FECD0322043902283415FA3F1321B9
:108900002C1801210321741FF1900000F137019010
:10891000511B0728F19F711B8021322107289142AA
:1089200031C00728914ABF28F7CF28F1063C88F1CB
:10893000043D92955E15281F44F0383814F00A382B
:1089400054F0FB2B8E3801280CE40128F615FC2B83
:10895000023F01289015009027D0283902D8083806
:1089600038F12439329001289215E237193F19E085
:1089700089F2043C38F11A39599238F10339012847
:10898000861512409103002951E2120E12D0F038E0
:10899000012886150128B915124001289115319931
:1089A000072821482C18FE2B553F0128104A002883
:1089B000A915FB2B2B3FF09F043FD09F023FB09F98
:1089C0000028D0152C1FF23F28F1053C68F1033D2B
:1089D0001490053F2090023F109044904198072842
:1089E000214838F1FE2B0A380028B515FE2B063F2A
:1089F000217011E02180020001282141072821482F
:108A0000217811E021880200F7C776157103311231
:108A1000A10501D4023907A804286496311502384B
:108A2000F7C70428C4F6FB3C0200FE28F7CF641504
:108A300051417111A10501D80339012807A06491A2
:108A40001F150338FE28F7CFC4F1FB3C0200F7C71F
:108A500053155141022807A00AD40339FD28F7CF46
:108A60005111A10501D4023907A8C49104286596C3
:108A700007150238F7C7563124F2FB3C02000028E4
:108A8000DB150028EC15412D160C0200F7C7341534
:108A9000D032D332234268F109394141904041D06C
:108AA000043850000306023F03033142022807A0A6
:108AB0000AD404395100FD28F7CF13064492042844
:108AC00065960028B9150028CA155631FF28E19F80
:108AD0004070060C023813068EA0810064E044F555
:108AE000F83C0029F4E2A4F2ED3C03F0023807A8B8
:108AF000D32FD02F02009BF0023C020007A12DE0F3
:108B0000020098F10938102807D0033908F1043819
:108B100031990728214808F10C39012807D0093874
:108B2000072851411128C042010C03380728504939
:108B30001190082807D005380628B148F728F7CF44
:108B4000042807D005380628A148FB28F7CF302194
:108B5000291F0200311FFF28F19F411B301F3121C7
:108B60000200022101210321532309380628D140A4
:108B700001D112384198072821480B3F54230C3863
:108B80005021F1910000F137741FF1900000F1378E
:108B900068F0023C2B1F0190511B81210728F19F97
:108BA000711B80210728914231C00728914ABF28B4
:108BB000F7CF322134210200082807D007390628D0
:108BC000B14001F00438082807A0020004280D98DD
:108BD000FE2BF43F402807D00D390EA4FECD012214
:108BE00004390028BF15FA3F661B112100291BE03C
:108BF00002000728A64A0EA4FECD0122043900284F
:108C0000B115FA3F01283142B10941E0053A08386F
:108C10004BF00C38EA3D0728A142611BE73F0728CB
:108C2000914271CF0728914AF73F0728914281A2CC
:108C30000728914ADA3F0EA4FECD0222043900280B
:108C40009115FA3F4618122100291BE01BF0063946
:108C5000581F0628E0400128004A020017D00A39B0
:108C60003122063817A0419807282148033F0728DA
:108C7000A6480200124038F1093802D8073991039A
:108C8000002941E2120E120D1248020047A07B2873
:108C90000C9C10215215FF2B5E15B7CF020059F224
:108CA00003396391083F69F20339E392043F79F293
:108CB00003394396020004280D98FA2B143F02D47E
:108CC00007389103002901E211700628614802006B
:108CD00088F10A3C012831410728814AB14603281E
:108CE000314FA1460F3F0728894A28F1063D3144FC
:108CF0000328314F5140053F552851950328314FE6
:108D000081110328214F0200E3F3033CF190033F5C
:108D100023E051920628614A0628434802007B213D
:108D2000772141900000F137702175217A218CEE76
:108D30000415521F801F02004C1B001F47D0033830
:108D400027D009390EA4FECD002203390B15F73FB9
:108D50001021020004280D9838F1FE2B2738FE2B35
:108D60003C3FD23202180119210601D41A381218D8
:108D7000162162F003392A1F2D3F12F2153822F214
:108D80002838FE2BEF1568F0063C61900128114A47
:108D9000FE2BB8153021280304280D98F92B373FF6
:108DA00001D114381421202807D00D3878F1123958
:108DB00004231038714401F002398144002911E084
:108DC000714C083F202807A0053F01D20538152126
:108DD00027A0D22F020011D00638102104280D98A8
:108DE000FD2BF33FF2CE5200121BF43FAA042007E2
:108DF000B6042607C2042C07CE043207DA0438076B
:108E0000EC043807F8043E07CE044407E6044A079A
:108E1000000000000A054A07160550070000000080
:108E20000000000000000000000000000000000042
:108E3000000000000000000000000000010102012D
:108E40000201010201020303040103010101010106
:108E50000303020103500A3012141014137809900E
:108E6000067A07780F9213DC11A407AA13546578C9
:108E7000617320496E737472756D656E74730053FF
:108E80006F667477617265205265766973696F6E7B
:108E90000048617264776172652052657669736912
:108EA0006F6E004669726D776172652052657669F2
:108EB00073696F6E004D616E75666163747572657E
:108EC00072204E616D650001020304050607080962
:108ED0000A0B0C0D0E0F1011000000000000000026
:108EE000000000000000000000303132333435361D
:108EF0003738394142434445460000000000000035
:108F000000000000000000000087FB349B5F800031
:108F100000800010000000000000F401FA0096003C
:108F200064004B0032001E001400424C4520506586
:108F3000726970686572616C00FE006578706572B8
:108F4000696D656E74616C53657269616C204E75F4
:108F50006D62657200446973636F6E6E65637465FC
:108F600064004D6F64656C204E756D6265720041E2
:108F700064766572746973696E6700496E697469B5
:108F8000616C697A656400436F6E6E6563746564D5
:108F90000054696D6564204F7574007869E0AB50CA
:108FA000C3F0D20000000000001B43686172203152
:108FB0003A004368617220333A0000000A0800005A
:108FC000000000000000C006C606000058110000A6
:108FD0000000E613EC1300004572726F720001028C
:108FE000030405D6BE898EF4010000040000006071
:108FF000EA0000020000007102000010270000FFDC
:10900000FF0000FBFFFFFF0100000001C80000504F
:1090100000000000000000F6FFFFFF07000000E76F
:10902000FFFFFF0A00000000080000E80300000640
:10903000000000FFFFFFFF0595D5F503000000FFCE
:10904000FFFF00555555001A0000000000100005F4
:10905000000000F1FFFFFF00E1F50540420F00DDD9
:10906000FFFFFFFF7FFFFF7D0000000000FF00010A
:1090700000FF004300000000000100190000006430
:1090800000000002C99002B79002C590029F9001B3
:109090002A002A052A02290129032801280028007C
:1090A00018042A032A502A2A2A292A282A272A2663
:1090B0002A252A242A232A0A18022AF5FF3000F436
:1090C000FFF3FFF2FFF0FFF1FF01180C0000007446
:1090D000F612179A9002DA74FEF0A304F09002DD03
:1090E000F09002DCF07A018A0875090074027808B1
:1090F000121730129EF0EA88828983700774FEF09E
:10910000A304800474FFF0A3F088828983A3A3A33F
:10911000F088828983A3A3F00AEAC3940240C87A44
:109120001A7B0712076E7A687B07120A0E79000213
:109130009C9274F212179AEAFEEBFF8E828F8312D2
:10914000970C6046129E2212926C750B00780A12E0
:1091500019AD8A828B83A31219C41296C4121759AF
:10916000E9702C85088285098312926C780A12199D
:10917000AD8A828B83A31219C47C027D007A9B7B0B
:10918000901296CC121759E9700579020292589004
:109190000A0E12970C600CC3E498FAE499FB129241
:1091A0005D500579010292587A067B001210C88A38
:1091B0000A8B0BEA450B700579130292587A007BF3
:1091C000008040900A0E129BE08A0C8B0D7403788D
:1091D0000C121730850882850983E0250CF8A3E07E
:1091E000350D8882F583A3A3A3A3ECF0A3EDF09043
:1091F0000A0EE02401F0A3E03400F0EA24010AEBB7
:109200003400FB12925D40BB850A82850B83E4F03B
:10921000A3F0750804F50978081219ADEEFCEFFD0E
:10922000E50A2402FAE50B129BD31217599002E2C9
:1092300012970C9002E26017E0FAA3E08003E8FACC
:10924000E9FB8A828B8312970C70F38A828B83E509
:109250000AF0A3E50BF079007F0602186C8E828F6E
:1092600083E0F8A3E0F9C3EA98EB9922129E378ACB
:10927000828B83E0F50A22C082C083E9900A0DF058
:10928000D083D08202013574F712179AE9FE741464
:109290005E60077910120A38800BEEA2E040047974
:1092A00002800279007F0102186C74F712179AECA1
:1092B000FEEDFFE9A2E550077910120A388034A2CA
:1092C000E350267910120A38E96026EE2418F58258
:1092D000EF3400F583E0601BEE2417F582EF3400D5
:1092E000F583E06401600A800AA2E140047903800A
:1092F00002790080B074F412179A74E9121743EAE5
:10930000FEEBFF8908E4F50AF50B780A1219AD7532
:109310000A02780A1219AD750A93750B90780A1231
:1093200019AD7CFF7DFF7A017B00129E1C1217593C
:109330008A828B83E58245836054129D5A85188208
:10934000851983129EB3740212178E7404F01412DE
:10935000178E7401F0740412178EE4F0740512175E
:109360008E74FFF0740612178E74FFF0E508F5098D
:1093700078091219B17900740112178EAC82AD838D
:10938000EEFAEFFB120708740112175980027901F7
:1093900074171217597F0402186C74E812179A8A0E
:1093A000168B178C128D13741812178EE0F514A3F8
:1093B000E0F515741A12178EE0F50AA3E0F50B74A8
:1093C0001C12178EE0F510A3E0F5119002E2800662
:1093D000850882850983E0F508A3E0F509E50845DD
:1093E0000970030294877E007F00E5082404F50ECF
:1093F000E5093400F50F8008EE24010EEF3400FF7C
:10940000850882850983129D5CC3EE98EF9950C050
:109410008E0C8F0D7403780C121730850E82850F19
:1094200083E0250CF50CA3E0350DF50D850C82F5D8
:1094300083129D5AC3E89516E9951740BBC3E51200
:1094400098E5139940B2E50A450B6020780A121995
:10945000AD78141219AD850C82850D83E0FC7D007A
:10946000129E321296CC121759E9608CE510451104
:10947000600F850E82850F83129A0A129D5A129EE2
:10948000ADAA0CAB0D80047A007B007F1002186C33
:1094900074EE12179AECFEEDFF9002E2E0FCA3E0FE
:1094A000800A8C828D83129D5EE8FCE9FDEC4D7094
:1094B000030295518C828D83129D5A8808890988F0
:1094C00082F583A3A3A3A3E0F50CA3E0F50DC3EA03
:1094D000950CEB950D40CB8C828D83A3A3E0F50E0C
:1094E000A3E0F50FE50C250EF8E50D350FF9C3EAFD
:1094F00098EB9950AD750A00750B00800CE50A24B5
:1095000001F50AE50B3400F50BC3E50A950EE50BF2
:10951000950F508E850A10850B1174037810121761
:1095200030E5082510F8E5093511F988828983A30B
:10953000A3A3A3E06A7003A3E06B70C1EE4F600BBE
:109540008E828F83E50CF0A3E50DF0E8FAE9FB804D
:10955000047A007B007F0A02186C74EC12179A746C
:10956000FE121743EAFEEBFF741612178EE0F50E9B
:10957000A3E0F50F741812178EE0F510A3E0F511B3
:10958000750800750900851882851983E4F0A3F039
:10959000EE2404F50CEF3400F50D850C82F58312F2
:1095A0009D52A385820A85830B74FF6A700374FF42
:1095B0006B603B85188285198385820885830978CD
:1095C000081219AD8E828F83E0F5087509007808BE
:1095D0001219AD850A82850B831219C4EA24010A87
:1095E000EB3400FB129E1C1217598A088B098E82DD
:1095F0008F83E0F51275130078121219AD850A8277
:10960000850B831219C41296C4121759E970268E5D
:10961000828F83E0F51278121219AD850A82850BCC
:10962000831219C47C027D007A9B7B901296CC1227
:109630001759E96016850C82850D83129E33120737
:10964000148A0A8B0BA80AA90B80628E828F83E092
:10965000F51278121219AD850A82850B831219C48E
:109660007C027D007A997B901296CC121759E960A2
:1096700031E50845096011851882851983E0650E7A
:109680007004A3E0650F6006AA0EAB0F80B08508DA
:1096900082850983A3A3A3A3E024FFF8A3E034FFFA
:1096A000800A850C82850D83E0F8A3E0F9E510457A
:1096B000116003129EADAA08AB0974021217597FFC
:1096C0000C02186C7C027D007A9D7B901205287438
:1096D0000422C082C0839002E212970C6027888225
:1096E0008983A3A3A3A3E0FCA3E0F5838C82A3A3B7
:1096F000A3A3E06A7003A3E06B8882898370DAA376
:10970000129E3280047A007B00029280E0F8A3E08F
:10971000F9E8492274F312179A74FE121743EAFE0D
:10972000EBFF8C088D09890A740F12178EE0F50B78
:10973000851882851983AC82AD83120756E9F50C32
:109740007064E50A600E7910EEFAEFFB120A38E950
:10975000F50C7052AC08AD09EEFAEFFB120498E973
:10976000F50C7042851882851983E0FEA3E0FF7432
:10977000FF650B6031EE2402F508EF129C461219CA
:10978000AD75081E75090078081219ADEEFCEFFDE5
:109790007A627B0712078C74041217598E828F83AA
:1097A000A3A3A3E50BF0A90C74021217597F0502BD
:1097B000186C74F512179A74FE121743EAFEEBFF49
:1097C0008C088D09890A851882851983AC82AD833E
:1097D0001207567417696010E50A60167910EEFAE0
:1097E000EFFB120A38E9600A74021217597F03026C
:1097F000186CAC08AD09EEFAEFFB12049280E97424
:10980000F612179AEAFEEBFF120702EA4B600FEE20
:1098100024FFF8EF34FFF9EA28FAEB398003EEFA77
:10982000EFFB029C9274F012179A74E31217438AAA
:10983000088B09EC2402FEED129F4BF50E741E6599
:109840000E705312075C8A0A8B0BEA450B6042EAE2
:109850002403F50CEB3400F50DE4F50EF50F780E4E
:109860001219AD8E828F83E0FD7C00AA08AB0985BA
:109870000C82850D83129F5A121759E50A2402FAA9
:10988000E50B3400FB120792850C82850D8374FF73
:10989000F07900029A05900A0DE0F46065E50EC3C8
:1098A0009419505EE50EC333F8E433F9E854FCF83C
:1098B00074EC28F8748D39F9E824FCFAE934FFFBDC
:1098C0008A0C8B0D8A82F583129E33EA4B6033E853
:1098D00024FEF582E934FFF58312970C60248C8214
:1098E0008D83A385820A85830B8C828D83E0F9703A
:1098F0000B850A82850B83E06401700B7412650E80
:1099000060057906029A05740412178E85820E8509
:10991000830F780E1219AD8C828D83A3A3A3121925
:10992000C48C828D83A3A3A3A3A3129BE0850A8288
:10993000850B83E0FA850C82850D83129A0A121733
:10994000987404121759E9F50C6003029A03740421
:1099500012178EAC82AD83AA08AB098E828F83E08A
:10996000C333F8E433F9E854FCF874EA28F5827458
:109970008D39F583129A0A121798E9F50C702C8E1E
:10998000828F83E0FD74046D6079740412178E85F4
:10999000820A85830B780A1219AD7C00AA08AB09EC
:1099A000900A0D129F5A1217598058850A82850B0A
:1099B00083E0704F8E828F83E0851882851983F053
:1099C000740312178EE9F08E828F83E0F8740468B6
:1099D000600D740668600874086860037410687429
:1099E0000412178E129D5E740112178E129EB3859B
:1099F0001882851983AC82AD83AA08AB0912044A88
:109A0000750C00A90C741D029D73E0F8A3E0F583AA
:109A1000888222790002013574F012179A74EA12D2
:109A200017438A0C8B0D8C828D83129E33750A002E
:109A3000EC2402FEED3400FF8E828F83C3E09AA3F4
:109A4000E09B4004EA4B70057901029BC8851882AF
:109A5000851983E4F0E4F508F50978081219AD7862
:109A6000081219AD78081219AD8E828F83129BE00F
:109A7000129E1C1217598A088B09A808A909E849DF
:109A80007003029BAE88828983A3AA82AB83E824F9
:109A900004F508E93400F509851882851983E0701A
:109AA0007188828983E06402700A740112178E74CF
:109AB00001F08068740112178E7402F0129BE67533
:109AC000F012A4F885F00BA90BE58228F582E58356
:109AD00039F583A3A3ECF0A3EDF0750E10750F001C
:109AE000780E1219AD129BDC740212178EE075F01D
:109AF00012A4F8A9F0E58228F8E58339129BCD126B
:109B00001759851882851983E004F06003029B933E
:109B10008072740112178EE0640170A088828983BC
:109B2000E064026003029BAE129BE6F50E750F0027
:109B30007402780E121730E582250EF582E5833522
:109B40000FF583A3A3ECF0A3EDF0750E02750F00E3
:109B5000780E1219AD129BDC740212178EE0F50E0E
:109B60007402780E121730E582250EF8E583350F62
:109B7000129BCD121759851882851983E004F0C312
:109B80009405500F850882850983E0F47003A3E0F3
:109B9000F47003750A01850882850983E02401FABF
:109BA000A3E03400FBE50AA2E04003029A558518C1
:109BB00082851983E07004790A800DAC82AD83AA96
:109BC0000CAB0D12045679007416029D73F9E8244B
:109BD00004FAE93400FB1210327402228A828B8369
:109BE000E0FCA3E0FD22850882850983E0FCA3E078
:109BF000FD851882851983E02274F612179A129C4B
:109C0000974004EA4B700479018033E4F508F509C4
:109C100078081219AD8C828D83A3A3A3A3E0F50865
:109C200078081219AD129C401219AD129E18121725
:109C3000598B09EA45097004790A8002790080523B
:109C4000EC2405F508ED3400F50978082274F612C5
:109C5000179A129C974004EA4B700479018033E410
:109C6000F508F50978081219AD8C828D83A3A3A39A
:109C7000A3E0F50878081219AD129C401219AD1234
:109C80009E181217598B09EA45097004790A800257
:109C900079007F0202186C8C828D83A3A3E0FEA35F
:109CA000E0FF8C828D83129E37C3EE9AEF9B227465
:109CB000F612179AEAFEEBFF8C828D837C007D0002
:109CC000129D6470047901800CA3A3A3E0F9EEFA5D
:109CD000EFFB1206DE80BB74F012179A8A0A8B0B18
:109CE000ECFEEDFF750C008002050CEE2416F582EB
:109CF000EF3400F583E0F8E50CC3985051E50CC350
:109D000033F8E433F9EE28F508EF39F5097C007DE6
:109D100000850882F583129D647014850882850988
:109D200083129D5E8E828F83129EB379018021A360
:109D3000A3A3E0F9AA0AAB0B1206DEE960AB850823
:109D400082850983129D52EAF0A3EBF0800279002C
:109D50008024129E378E828F8322A3A3A3A3E0F8D0
:109D6000A3E0F922129E371206F68A828B83E582DF
:109D70004583221217597F0802186C74F012179A43
:109D8000ECFEEDFF8E828F83129D5E129E22C3E059
:109D900098A3E0994004E849700479018077EE24A3
:109DA00005F50CEF3400F50DEE2404F50AEF340050
:109DB000F50B850A82F583E0F50E750F00780E121B
:109DC00019AD780C1219AD1296C4121759E9700426
:109DD00079108041E4F50E780E1219AD850A82855E
:109DE0000B83E0F50A750B00780A1219AD780C1296
:109DF00019AD850882850983129BE08E828F8312BC
:109E00009E33129E1C1217598B09EA45097004797A
:109E10000A80027900029D76EEFCEFFD1206F074D6
:109E20000622EE2402F508EF3400F509850882F5D4
:109E30008322A3129E3722E0FAA3E0FB2274F412DD
:109E4000179A8A088B09ECFEEDFF7C007D008E825C
:109E50008F83129D64700479018010EEFCEFFDA3E6
:109E6000A3A3E0F9AA08AB091206E4029395029AAB
:109E70001374F612179AECFEEDFF12A01E6029EE85
:109E80004F60078E828F83129EB388828983A3A33B
:109E9000E0F874FE6870047917800F74FF6870042E
:109EA00079008006791680027902029C92851082E0
:109EB000851183E8F0A3E9F02274F612179A7C006A
:109EC0008C0875090074027808121730129EF08809
:109ED000828983E06A7003A3E06B7006E8FAE9FB0D
:109EE000800B0CECC3940240D77A007B00029C925A
:109EF00074DA2508F874023509F92274F412179AF5
:109F0000EA4B6044EA2402FEEB129F4BF46039E016
:109F100064FE6034EA2403F508EB3400F509E4F547
:109F20000AF50B780A1219AD7D1E7C178A828B8385
:109F3000129E33129F541217598E828F8374FEF033
:109F400085088285098304F00293953400FF8E8290
:109F50008F83E022850882850983E0F912078674E1
:109F6000022274F012179A8A0A8B0B890C74FE6510
:109F70000A700474FF650B700302A01BE9702512C0
:109F8000075C8B09EA4509600302A01B7AFF7BFF8F
:109F900012A01E700302A01B88828983E50AF0A329
:109FA000E50B80767401650C701012A01E606C8841
:109FB00082898374FFF0A3F080177402650C705BD4
:109FC0007901120A2CE97053AA0AAB0B12A01E6089
:109FD0004AE82402FEE9129F4BFA74FF6A603CE8EB
:109FE0002403F508E93400F50974FE6A6018E4F505
:109FF0000EF50F780E1219AD7D1E7C14AA0AAB0B5C
:10A00000129F54121759EEFAEFFB1207928508823D
:10A0100085098374FFF08E828F83F0029D7612078C
:10A020005C8A088B09A808A909E8492274F4121768
:10A030009A8908EAFEEBFF75091274FE6E700374CC
:10A04000FF6F701B9002AB12A649606412A0B7604C
:10A050005F7AFE7BFFA908121798E9F50980517411
:10A06000FF6E700374FF6F702F9002AB12A64960F1
:10A070001B12A0B760167AFF7BFFA908121798E998
:10A08000F5097008E5089002ADF08024A9081206D1
:10A0900000E9F509701A80EC12A8076013E0650862
:10A0A000700B7913EEFAEFFB12085E80AD750903B1
:10A0B000A9097F0402186CE0F5838882E0F8A3E028
:10A0C000F988828983E58245832274F212179A897E
:10A0D0000AECFEEDFF90028AE064026005E0640194
:10A0E000700479128050EE4F70047902804812AAF1
:10A0F000DB70047914803FE50A600B8A828B83A3AE
:10A10000A3A3E0D2E1F0750C10750D00780C1219C4
:10A11000ADEEFCEFFDEA240DFAEB12A1391217594E
:10A1200012A72D121631E508241DF582E50912AE9D
:10A130008612163D790002A63A3400FB12103274E2
:10A14000022274F212179A8A088B09ECFEEDFF9036
:10A15000028AE06402600EE064016009E064087055
:10A1600009EE4F6005791202A23CEA4509700579B3
:10A170000202A23C12A6466005791102A23C8A8224
:10A180008B8312A63F8A0A8B0BEA450B7005791464
:10A1900002A23C7A1F7B001210C89002A9EAF0A329
:10A1A000EBF012A6467005791302A23C7C1F7D00DD
:10A1B000790012104A12A9E012A23FA3EAF0A3EB21
:10A1C000F0750C16750D00780C1219ADE508240217
:10A1D000FCE5093400FD9002A9E02403FAA3E01293
:10A1E000A13912175912A23F7402F090028AE0A21C
:10A1F000E35004D2F08002C2F09002A9E02403F5FB
:10A200000CA3E03400F50D780C1219AD12A24B909E
:10A2100002B4E0FAA2F0E433F9120EB2740212179B
:10A2200059E9F508EE4F600BEEFCEFFDAA0AAB0B07
:10A23000120EEEE508600312060CA90802A63A9079
:10A2400002A9E0F8A3E0F5838882228508828509C7
:10A2500083E0FCA3E0FD2274F412179A74FF121736
:10A2600043EAFEEBFF8908120A208B0BEA450B70CC
:10A270000479148014851882851983E508F0AC826E
:10A28000AD83EEFAEFFB120ED6740112175902A03D
:10A29000B274F012179A74F01217438A0C8B0D8C5B
:10A2A0000E8D0F742012178EE0FEA3E0FFEEFAEF82
:10A2B000FB120A208B09EA4509700479128071901B
:10A2C000905B780C1214455004790280637C107DF9
:10A2D000007900851882851983AA82AB8312104AFF
:10A2E000851882851983E50CF0850D09E509F508C7
:10A2F000740112178EE508F0850C08850E0A850F8B
:10A300000B74107808121554740212178EE508F0B9
:10A310007418780C121554740312178EE50CF0EEB5
:10A32000FCEFFD851882851983AA82AB83120EB8D3
:10A3300074101217597F0802186C74F012179A8A59
:10A340000A8B0B890E8C0C8D0D741012178EE0F594
:10A350000F90028AE064026005E0640170057912E2
:10A3600002A40CEC450D7005790202A40C120A201F
:10A370008A088B09AE08AF09EE4F7005791402A464
:10A380000CEE2421F508EF12A568850882F58312EA
:10A39000AE9160031210CE7C1B7D00AA0CAB0D1297
:10A3A000103E850882850983EAF0A3EBF012A24BE8
:10A3B000EC4D70047913805490028AE0A2E3503689
:10A3C000E50F6032EC2412F508ED12A5687808124A
:10A3D00019ADEC2410F582ED12AE861219C4EC24EE
:10A3E0001AF582ED12A56DF9AA0AAB0B120EF474E0
:10A3F0000412175980027900EE2403F582EF12A5AA
:10A400006DD2E2F0E50E6004E0D2E1F002A3357413
:10A41000EA12179A8A0E8B0FEA450F700302A55FA6
:10A420009002A712A649600512A245800390095721
:10A43000E0F50C9002B512A649600F12A245A3A345
:10A4400012A0BC60057900121798E50E2407F50AE2
:10A45000E50F3400F50BE50E2408F508E50F12A50D
:10A4600068AA08FB850A82850B83E0F9120564E976
:10A47000FB850A82850B83F0E50E2403FEE50F348D
:10A4800000FFE50E2404F512E50F3400F513E50E88
:10A49000240EF510E50F3400F511E50E2414F582B5
:10A4A000E50F12A56DF51475150078141219ADE5B8
:10A4B0000E2412F582E50F12AE861219C4E50E24A1
:10A4C00010F582E50F12AE861219C485108285112F
:10A4D000831219C48512828513831219C4AC08AD86
:10A4E00009AA0C8E828F83E0F91205EE740A121706
:10A4F000598E828F83E07031851082851183121905
:10A50000C478081219AD850A82850B83E0FD7C01B1
:10A5100085128285138312A9E6A90C120A14740409
:10A52000121759E98E828F83F09002A712A6496014
:10A530002E1206129002ADE06025F9120600E960C5
:10A540001E8E828F83E0FB85128285138312A251B7
:10A550009002ADE0FAEBF91205F49002ADE4F07F61
:10A560000E02186CF508E5093400F509223400F5EF
:10A5700083E02274F712179AEAF8EBF9888289834C
:10A58000A3A3A3A3A3A3A3A3A3A31219C4888289EB
:10A5900083A3A3A3A3A3A3A3A31219C4888289831B
:10A5A000A3A3A3A3A3A312A25188828983A3A3A3D5
:10A5B000A312A9E688828983A3A3A3E0F91205FA6E
:10A5C00074041217597F0102186C74F212179AEA78
:10A5D000FEEBFF750A00EE2403F8EF3400F988085B
:10A5E00089098882F58312A63F8A828B83E582459A
:10A5F000836009E0F50A12A9E0120A1A9002ADE0A0
:10A600006011650A700DE0F9120600E960249002FD
:10A61000ADE4F0E50A601B8E828F83A3A3A3A3A3FE
:10A62000E0FB12A24BAA0A8E828F83A3A3E0F91249
:10A6300005F412A646600312060C7F0602186C127F
:10A64000A9EA120A20229002A9E0F8A3E0F9E84959
:10A650002274E812179A890B8A0E8B0A8C0C8D0DC6
:10A66000741A12178EE0F516A3E0F517741C121772
:10A670008EE0F514A3E0F515741E12178EE0F510A8
:10A68000A3E0F511742012178EE0F5087A1312A7D3
:10A69000F7700302A7288E828F8374D0F0A3E50B96
:10A6A00012ABA5740512ABADE50AF0EE2404FAEF87
:10A6B0003400FBE50C450D60177512067513007824
:10A6C000121219ADAC0CAD0D12A13C121759800934
:10A6D0007C067D00790012104A741812178EE0F87B
:10A6E000A3E0F98E828F83A3A3A3A3A3A3A3A3A311
:10A6F000A3E8F0A3E912AC94E516F0A3E517F0EE99
:10A70000240E12AE83E514F0A3E515F012A72DE593
:10A7100010F0A3E511F0EE241212AE83E508F0EE7E
:10A72000FAEFFBA90E1210687F1002186CEE2410CD
:10A73000F582EF3400F5832274F212179A89098AA0
:10A7400008ECFEEDFF8B0A7A067B0012105CEA4BE8
:10A7500060278A828B8374D0F0A3E509F08A828B0C
:10A7600083A3A3740612A77CEEF0A3EF12A77CA329
:10A77000A3E50AF0A90812106802A63AF08A828BB3
:10A7800083A3A3A32274EC12179A89108A088B0959
:10A790008C0A8D0B741412178E12A9F074161217EE
:10A7A0008EE0F50EA3E0F50F7A0C12A7F76045AA2C
:10A7B00008AB0912A8077003900957E0F98E828F41
:10A7C0008374D0F0A3E51012ABA5740712ABBEE5FD
:10A7D00008F012ABC3A3E50B12ABCDE50CF0A3E57B
:10A7E0000D12ABCDA3A3E50EF0A3E50FF0EEFAEF4B
:10A7F000FB12106802A9B07B0012105C8A128B1346
:10A80000AE12AF13EE4F22120A208A828B83E582AA
:10A8100045832274F612179A120A268A828B83E5E0
:10A82000824583600B7913A312A9E612085E8002A9
:10A8300079127F0202186C74EC12179A89118A0837
:10A840008B098C10741412178E12A9F0120A208A28
:10A850000E8B0FEA450F700302A9B012A6467003D3
:10A8600002A9B07A0E7B0012AEC560027A2990026E
:10A87000A9E0241B12AECB6008EA2416FAE43400E7
:10A88000FB9002A9E0241D12AECB6008EA2414FA62
:10A89000EB3400FBE50C450D6008EA241BFAEB34B1
:10A8A00000FB12105C8A0A8B0BEA450B700302A9AD
:10A8B000B07C0E12AB968A128B13AE12AF13EE4F12
:10A8C0007008850E82850F83E0FE850A82850B83E2
:10A8D00074D0F0A3E51112A9BA740A12A9B5E5085B
:10A8E000F0A3E50912A9B5A3A3E510F0E50A240E2B
:10A8F000F508E50B12A56812AEC56023E50A24062B
:10A9000012A9C4241B12A564750E1B750F00780EC6
:10A910001219AD9002A9E0241912A9F81217599042
:10A9200002A9E0241B12AECB6023E50A240812A979
:10A93000C4241612A564750E16750F00780E121930
:10A94000AD9002A9E0241B12A9F81217599002A990
:10A95000E0241D12AECB6023E50A240A12A9C42408
:10A960001412A564750E14750F00780E1219AD90AF
:10A9700002A9E0241D12A9F8121759E50C450D6033
:10A9800023E50A240C12A9CA75081B75090078086A
:10A990001219ADAC0CAD0D8A828B8312A9E612A1FF
:10A9A0003C121759AA0AAB0BEEF912106812060CEA
:10A9B0007F0C02186C12A9BAA322F0850A82850BBB
:10A9C00083A3A32212A9CAE50822F8E50B3400F9F3
:10A9D000E8FAE9FB8A828B83E508F0A3E509F02217
:10A9E00085088285098312A9EA22E0FAA3E0FB2206
:10A9F000E0F50CA3E0F50D2212AEB9FCA3E0FD8A50
:10AA0000828B8312A9EA121032740222C082C083A0
:10AA100012A646603112AEA960031210CE9002A9B0
:10AA2000E0241B12AEAF60031210CE9002A9E02406
:10AA30001D12AEAF60031210CE9002A912AA689048
:10AA400002A9E4F0A3F0D083D082020135C082C015
:10AA5000839002A712A649600D9002A712AA6890DF
:10AA600002A7E4F0A3F080DE12A9EA1210CE22744D
:10AA7000F012179A890C8A0A8B0B12AADB60597A9A
:10AA8000237B0012053A8A0E8B0FAE0EAF0FEE4FEE
:10AA90007008850882850983E0FE7A057B00121024
:10AAA0005C8A088B09EA4509602E7C057D007900E7
:10AAB00012104A85088285098374D0F0A3E50C1230
:10AAC000AAE6740E12AAE6A3E50AF0A3E50BF0AA23
:10AAD00008AB09EEF912106802A335120A208A08A1
:10AAE0008B09EA450922F0850882850983A3A32200
:10AAF00074EC12179A89088A0E8B0F8C098D0A74D0
:10AB00001412178EE0F50C741512178EE0F50B1267
:10AB10000A208A128B13EA451360787A0B7B0012A5
:10AB2000105C8A108B11AE10AF11EE4F60657C0B7C
:10AB300012AB968A108B11A810A911E849700885EC
:10AB40001282851383E0F88E828F8374D0F0A3E5A0
:10AB50000812ABA5740F12ABADE50EF0A3E50F1212
:10AB6000ABBE12ABC38E828F83A3A3A3A3A3A3A365
:10AB7000E50C12ABCDE50BF0741612178EEE24091E
:10AB8000FCEF3400FD7402121656EEFAEFFBE8F902
:10AB900012106802A9B07D00790012104A7A237B56
:10ABA0000012053A22F08E828F83A3A32212ABB14A
:10ABB0002212ABB522F08E828F83A3A3A32212AB05
:10ABC000B1A322A3E50912ABD3E50AF02212ABD35D
:10ABD000A3A32212ABB5A3A3A32274EE12179A8AE1
:10ABE0000A8B0B890E120A208A0C8B0DEA450D7018
:10ABF0000302AC8F7A0D7B0012105C8A088B09AEC1
:10AC000008AF09EE4F700302AC8F7A237B00120568
:10AC10003A8A088B09EA45097009850C82850D83FB
:10AC2000E0F5088E828F8374D0F0A3E412ABA57494
:10AC30000BF075100675110078101219ADE50C2493
:10AC400005FCE50D3400FDEE2403FAEF12A13912E4
:10AC500017598E828F83A3A3A3A3A3A3A3A3A3E5C2
:10AC60000AF0A3E50BF0EE240B12AE83E50EA2E092
:10AC7000500474018001E412AC94E50EA2E150048A
:10AC800074018001E4F0EEFAEFFBA9081210687F6E
:10AC90000A02186CF0EE240CF582EF3400F58322E2
:10ACA00074E812179A89148A118C088D098B107414
:10ACB0001812178E12A9F0741A12178EE0F50EA34F
:10ACC000E0F50F741C12178EE0F516A3E0F517746B
:10ACD0001E12178EE0FEA3E0FFAA08AB09120A209D
:10ACE0008A0A8B0BEA450B700302ADB2E5146003D0
:10ACF00002ADB2EA2403F582EB12A56DD2E4F0E5D1
:10AD000010A2E2E05004D2E18002C2E1F0E50C457D
:10AD10000D7010E50E450F700AE51645177004EE2C
:10AD20004F6060E0D2E2F0EE4F603012A72D1216B5
:10AD300031E50A241DF582E50B12AE8612163D752B
:10AD4000121075130078121219ADEEFCEFFDE50A32
:10AD5000240DFAE50B12A139121759E50A2421F541
:10AD60000AE50B3400F50BE50C450D601BE5117091
:10AD70001712AE8B60031210CE7C1B7D00AA0CABA9
:10AD80000D8021E0C2E28029E50E450F60247401A8
:10AD90006511701E12AE8B60031210CE7C1B7D00FD
:10ADA000AA0EAB0F12103E850A82850B83EAF0A330
:10ADB000EBF012A646700302AE72E50C450D602959
:10ADC00012AEC5700A7A1B12AE75241912AE971214
:10ADD000AEA96015750A1B750B00780A1219ADAC87
:10ADE0000CAD0D12A13C121759E5164517603590B0
:10ADF00002A9E0241B12AECB700A7A1612AE75249B
:10AE00001B12AE979002A9E0241B12AEAF6015751D
:10AE10000A16750B00780A1219ADAC16AD1712A1FF
:10AE20003C121759EE4F60359002A9E0241D12AE76
:10AE3000CB700A7A1412AE75241D12AE979002A937
:10AE4000E0241D12AEAF6015750A14750B00780A68
:10AE50001219ADEEFCEFFD12A13C121759780E123B
:10AE600019ADAC10AA08AB09A91412060674021297
:10AE7000175902A7287B001210C88A0A8B0B900270
:10AE8000A9E022F582EF3400F58322850A82850B42
:10AE90008312A9EAEA4B22FAA3E03400FB8A828BF0
:10AEA00083E50AF0A3E50BF0229002A9E024191231
:10AEB000AEB9FAA3E0FBEA4B22F8A3E03400F9882C
:10AEC000828983E0229002A9E0241912AEB9F8A386
:10AED000E0F9E8492274F412179AE99003CAF012D3
:10AEE0000D7A907800E0C4540F540764037004791D
:10AEF0003F8002797F75080675090078081219AD40
:10AF00007CB87D037AEA7B0712123C74021217594F
:10AF10009003B8E0F47049A3E0F47044A3E0F47047
:10AF20003FA3E0F4703AA3E0F47035A3E0F470308E
:10AF300090780EE09003B8F090780FE09003B9F0AD
:10AF4000907810E09003BAF0907811E09003BBF095
:10AF5000907812E09003BCF0907813E09003BDF07D
:10AF60009003BE12B05712BD049003E87406F0A31C
:10AF7000740D12B8117430F0A37401F090050E1224
:10AF8000B05790050DE4F0900514F0A374A012B82A
:10AF9000117403F0A3740712B811742812B81104C5
:10AFA000F0A3E4F090053DF090056074FFF0A3E499
:10AFB000F0900562F090056404F0120B2E120A5610
:10AFC000120D1A79017A657B05120C12900565E065
:10AFD00075F01484E5F004F0790C7A867B05120C88
:10AFE00012120C307A009003CAE0F91210E0907847
:10AFF00003E06442705E900565E014F07056C2AFE5
:10B0000012B00300782AD0E0F618D0E0F6E59F549D
:10B0100007F97005908FFF800390906378081216EF
:10B0200013E9C4C0E07829E65508F50808E6550993
:10B03000F509740B7808121721D0E02508F8906202
:10B0400070E0A2E740F8E8C333906272F09062705B
:10B05000E0D2E0F002BB2D74FF12B2B9F0A3F022EF
:10B0600074F612179AEAFEEBFFEEA2E0504390034B
:10B07000CCE0C39480E0500FC333F8E433F974326A
:10B0800028F582740A800EF4C333F8E433F974406F
:10B0900028F582740A39F58312BB481217987A0092
:10B0A0009003CAE0F91210E0EE6401FAEFFB02B17E
:10B0B000E55402603775080078081219B1E4F50903
:10B0C00078081219AD78081219AD78081219AD7503
:10B0D00008FE75090478081219AD12B1F0793C1216
:10B0E00009307409121759EE640280BFEE540460EF
:10B0F0007B9003F7E0F875F004A4C8AAF012B46DD1
:10B10000EA242A12BC1CF50878081219B1EA243284
:10B1100012B1E8F509740478081217217808121999
:10B12000ADEA242012BC141219C4EA242E12B1E88C
:10B13000C313F509E50813F50878081219AD750869
:10B14000FE75090478081219AD9004FDE0FD7C013C
:10B150008A828B83A3A3A3A3E0FA7B007900120960
:10B16000307409121759EE640402B0ABEE5440601B
:10B170003875080078081219B1E4F5097808121931
:10B18000AD78081219AD78081219AD7508FE750969
:10B190000478081219AD12B1F0793B120930740924
:10B1A000121759EE644002B0AB9003D1E064017015
:10B1B00030EE5420602B9003CBE024F96003147030
:10B1C0001B793F9003F7E0FA75F004A4CAA8F028B1
:10B1D000FB74F92AFA74033BFB120BD0EE64208057
:10B1E000887A007B0002B82D12BB9BF508A3E022F1
:10B1F0009004FDE0FD7C017A007B0022C082C083C8
:10B20000C2AF120D50E5E170FC75E10112B81C12DD
:10B210000D927907120E047901120E0A7902120DAD
:10B22000BC120DDA120DF87900120DFE7901120D23
:10B23000FE909043121631120DA49004FDE412B05A
:10B2400059A3F0900514F0A3F0A3F090051874072B
:10B25000F09005177403F090051DE4F090051CF0C4
:10B2600090053DF0120BBE120C84120BD679001221
:10B270000E1090050474FF12B2B9741FF0906012A2
:10B28000E4F0A3F0906063F07521009003CBF090A0
:10B2900003CDF0A3F0900509F090050A04F09003A7
:10B2A000D0E4F09003D104F09003E77403F090052C
:10B2B00063E4F0D2AFF902BBA7F0A3F0A3F0A3F0D0
:10B2C000A322C082C0839003B812B303F09003B9E5
:10B2D00012B2F6F09003BA12B2F6A3F09003BB12CA
:10B2E000B2F6A3A3F09003BC12B2FBF09003BD1220
:10B2F000B2FBA302BBA412B303A32212B303A3A302
:10B30000A3A322E08A828B8322C082C0838A828B9D
:10B3100083E09003BE12B33FE09003BF12B33FA39C
:10B32000E09003C012B33FA3A3E09003C112B34661
:10B33000E09003C212B346A3E09003C302BBA4F0A3
:10B340008A828B83A322F08A828B83A3A3A3A32266
:10B35000C082C083900514E06401700A900519E072
:10B360006004790C8005120DDA790002BBA774F72E
:10B3700012179AE9FE900514E06401700A9005190D
:10B38000E06004790C8026EE600974016E600A7931
:10B3900012801A7C00790080047C007901120DE093
:10B3A000E9F8740368700479078002790002B8171D
:10B3B00074F612179A740A12178E12BCFA1219AD8B
:10B3C000120C2A02B82674F412179AEAFEEBFF89CF
:10B3D000089003CBE064096014E0640A600FE06445
:10B3E0000B600AE0640C6005E0640D7004790C8069
:10B3F0001E120CAE8B0BEA450B700BA908EEFAEF90
:10B40000FB120C1280099003CDE04440F0790D024C
:10B41000BB2D74F412179AEAFEEBFF890BEE4F6016
:10B4200003E970047912801F750A00120C0C850A5A
:10B4300008EE2508F582EF12BC17E9F0050AE50AC7
:10B44000C3950B40E6790002BB2DC082C083E9F8AA
:10B45000740168700B9005637401F0790002BBA75A
:10B46000E87006900563E480F1791280F02AF9749F
:10B47000F928FA740339FB227F0302186C74F61260
:10B48000179AEAFEEBFF8C088D099003CBE0640C61
:10B49000700590618E801212BC6D702F12BD4574C4
:10B4A000622EF58274043FF583E0F9748069700AB6
:10B4B000850882850983747F800E9003CFE0F8E9C8
:10B4C000C398850882850983F0790002B82D74F746
:10B4D00012179A12BC67704712BC72240F12BC1C60
:10B4E00060077916120BD08034EA241DF8EB340083
:10B4F000F9EA24F5FCEB3400FDEA246A12B5227067
:10B5000016EA246B12BC1C64027004793A80101293
:10B51000B528120BA6800612B528120B9A790002E4
:10B52000B81712BB9B6401228C828D83E50812B987
:10B53000CEE4F0A3F079022274E812179A74FE1296
:10B540001743E9851882851983F08A0C8B0D8C0AC4
:10B550008D0B741A12178EE0F508EC450B601685FA
:10B560001882851983E0C3941C500AE508600B74A7
:10B570000165086005791202B7FF12BC6D60030215
:10B58000B7FFA80CE875F004A4C8AAF02AFA75F071
:10B5900004E50DA42AF974F928FE740339FFEE249A
:10B5A00065F510EF3400F51185108212B809E849ED
:10B5B00070C3A2AFE433C0E0740112178ED0E0F084
:10B5C000C2AF120CAE8A148B158A828B83E0F8749A
:10B5D00040686017748068600302B7C59003F7E0A5
:10B5E000650C7002E50D600302B7C5120D688A0C88
:10B5F0008B0D120D68EA650C7003EB650D7003028C
:10B60000B7C512BD5BE5142402F516E5153400F547
:10B6100017909007780C12159F780C1219A98516AF
:10B620008285178312163112BC9E121759E96401E4
:10B63000600302B7C5E508F50978091219B174016C
:10B6400012178EE0F9AC0AAD0BEEFAEFFB120BF419
:10B650007401121759E9600302B7C590050AE06446
:10B6600001600302B7B7EE241DF582EF340012B873
:10B6700009E849700302B7B712BD5BEE242EF50846
:10B68000EF3400F509850882F583E0F510A3E0F5B5
:10B6900011E4F512F513780C791012158C90902F97
:10B6A000780C12159F780C1219A9851682851783BC
:10B6B00012163112BC9E121759E96401600302B7D9
:10B6C000B7E5142408F50AE5153400F50B850A8260
:10B6D000F5831219C0AA0CAB0DAC0EAD0F12BC98BD
:10B6E0001217598508828509831219C4121EC8745D
:10B6F000021217598A0C8B0D8C0E8D0F7410780C5A
:10B700001215548E828F83A3A3A3A3A3A3A3A3A3E1
:10B7100012B80B8E828F83A3A3A3A3A3E8F0A3E99F
:10B72000F0E8250CF8E9350DF98E828F83A3A3A3E9
:10B73000A3A3A3A3E8F0A3E9F0850A82850B83C045
:10B7400082C083850882850983E0F508A3E0F509B6
:10B75000E4F50AF50B780C7908121464D083D082D2
:10B76000780C12159F90903F780C1215ED8516827B
:10B77000851783E50CF0A3E50DF0A3E50EF0A3E536
:10B780000FF0851482851583A3A3A3A3A3A3E4F0DC
:10B79000A3F0EE2435F582EF12BC1FC0E0EE243496
:10B7A000F582EF12BC17D0E0F0EEFAEFFB121B931C
:10B7B000AA14AB15120C90740112178EE0A2E0923D
:10B7C000AF7900803A851082851183E50AF0A3E500
:10B7D0000BF0851882851983E0C0E0EE2463F582C2
:10B7E000EF12BC17D0E0F0EE2464F582EF12BC1724
:10B7F000E508F0740112178EE0A2E092AF790774A9
:10B80000021217597F1002186CF583E0F8A3E0F9D3
:10B8100022F0A3E4F0A3227F0102186C120B0412A1
:10B820000AF875E1F122740212175979007F0202B9
:10B83000186C74F512179AEAFEEBFF8908740B1264
:10B84000178EE0FA740C12178EE0FB740D12178E2F
:10B8500012B80B740F12178EE0F509741012178EC0
:10B86000E0F50AE508601274016508600C74036570
:10B8700008600674026508703FEA600574016A702A
:10B8800037EB600574016B702FC3EC9EED9F402871
:10B89000740365086006740265087012C3EE94A014
:10B8A000EF94004013C3EC94A0ED9400400A74019F
:10B8B00065087009E8497005791202B9BE9005144F
:10B8C000E064017005790C02B9BEE508900517F037
:10B8D00074075509A3F070087407F0793002B9BEF7
:10B8E000E50AA3F0EA90050D702FE4F09003B8E0AC
:10B8F00090050EF09003B9E090050FF09003BAE0C8
:10B90000900510F09003BBE0900511F09003BCE0AF
:10B91000900512F09003BD802E7401F09003BEE0FC
:10B9200090050EF09003BFE090050FF09003C0E08B
:10B93000900510F09003C1E0900511F09003C2E073
:10B94000900512F09003C3E0900513F074016508B0
:10B95000703BEB9004FD12B9CEE09004FE12B9C129
:10B96000E09004FF12B9C1A3E090050012B9C1A391
:10B97000A3E090050112B9C6E090050212B9C6A372
:10B98000E0900503F0900515E4F0A3802EE50A7021
:10B99000047900801C7401650A70047901801274B6
:10B9A00002650A7004790280087403650A700579DB
:10B9B00003120DE6900515EEF0A3EFF0790002B446
:10B9C0007812B9CEA32212B9CEA3A3A3A322F088E2
:10B9D00082898322C082C083E9FDC3942040047918
:10B9E000128034ED90051DF06025EA4B60F17C007B
:10B9F000801312BB91C0E0741E28F582740512BC3E
:10BA000017D0E0F00C90051DE0F8ECC39840E390EF
:10BA1000051C7401F0790002BBA774F412179AE9AF
:10BA2000FE9003CBE064096014E0640A600FE064F8
:10BA30000B600AE0640C6005E0640D70057921027A
:10BA4000BB2D900517E0F8600F740168600A74035D
:10BA5000686005740268702390050DE0F960057454
:10BA600001697017740368600574026870129005AC
:10BA700015C3E094A0A3E094005005791202BB2DF9
:10BA8000EE60731470F5900514E0640160AFE86037
:10BA9000057401687008120CBAE954FD709F7901B1
:10BAA000120CA290050BEAF0A3EBF09005147401C0
:10BAB000F09003CBE07074120D628A088B098C0A37
:10BAC0008D0B90903B780812159F90903F7808124C
:10BAD00015ED12BB3F780812162212BB3FA3A3A399
:10BAE000A3E4F0A3F0120B3AE9600612BB3202BAEB
:10BAF0003D120C8A8035900514E0700302BA3DA215
:10BB0000AFE433FFC2AF12BB32120CC6E97017129A
:10BB10000D50906182E0C2E6F0E5E170FC75E10154
:10BB20007591BF75E1F1EFA2E092AF79007F040259
:10BB3000186C7A0B7B05120CA8900514E4F0229087
:10BB4000050B12BB48A3A322E0F8A3E0F58388828B
:10BB500022C082C083E9FDC3942040047912802F63
:10BB6000ED90053DF06020EA4B60F17C00801312FF
:10BB7000BB91C0E0743E28F582740512BC17D0E07A
:10BB8000F00CECC39D40E890051C7401F079008036
:10BB9000168C82A882EA2812BB9B22F582EB340025
:10BBA000F583E022F07900D083D08202013574F66B
:10BBB00012179AEAFEEBFF8C088D099003CBE06424
:10BBC000076004790C804A12BC6D704512BD357E49
:10BBD000008E82AC82E5082CF582E50912BC1FC0FC
:10BBE000E0C3E49CF895E0F9EA28F8EB39F9E82499
:10BBF000D2F582E912BC17D0E0F00EEEC3941040EB
:10BC0000D0EA24D412BC147401F07905120B9A798D
:10BC10000002B82DF582EB3400F58322F582EB1299
:10BC2000BB9E2274F712179AEAFEEBFF9003CBE05B
:10BC300064076004790C802C12BC6D702712BC72F2
:10BC400024DD12B522700DEA24F512BC147406F03E
:10BC50007902800BEA24DE12BC147406F0790D120E
:10BC60000B9A790002B817EAFEEBFF8908120AC2A4
:10BC7000E92212BD39EA22C082C083C3EB940F507F
:10BC800004EA4B60047912800C9003FCE0700479A4
:10BC9000028002790002BBA71221C974042212217A
:10BCA0006C740422C082C083E9F8900564E07004DB
:10BCB000790C800EE8600E1470119003D07401F0BE
:10BCC000790002BBA79003D0E480F4791280F3C01E
:10BCD00082C083E9F89003CBE0701AE8600D14701D
:10BCE000109003D17401F07900800C9003D1E480AE
:10BCF000F579128002790C02BBA7E0F508A3E0F504
:10BD0000097808229003B8E09003C4F09003B9E0EA
:10BD10009003C5F09003BAE09003C6F09003BBE037
:10BD20009003C7F09003BCE09003C8F09003BDE01F
:10BD30009003C9F02212BD392212BD4974F92EFABE
:10BD400074033FFB2212BD4922EE75F004A4CEA875
:10BD5000F028F875F004EFA428FF2212BD5F22122C
:10BD60000D628A0C8B0D8C0E8D0F2274EE12179AB9
:10BD7000890B8A0C8C0E8D0F741212178EE0F50849
:10BD8000A3E0F509750A0012BE716005791102BEC3
:10BD90004FE5084509603C7A1F7B0012053A8A107E
:10BDA0008B11A810A911E5082415FEE5093400FF40
:10BDB0008E828F83E0C398E49940187A207B00122A
:10BDC000053A8A108E828F83E0FAC3E5109AEB94CD
:10BDD000005004790280787A637B001210C89007C3
:10BDE00054EAF0A3EBF012BE717004791380607C0A
:10BDF000637D00790012104A12BE54E4F09007549B
:10BE0000E012CBDDE50B12BE69E50C12BE69A3E5BD
:10BE10000EF0A3E50FF090075412C54FA3E508F00C
:10BE2000A3E509F012C8D7E4F0A3F0900754E0248A
:10BE30001A12CADEE4F0E50B6006120EFAE9F50A02
:10BE400012BE547401F0E50A6003120F30A90A7F94
:10BE50000A02186C12BE582290075412BE5F22E0EC
:10BE6000F8A3E0F5838882A322F012BE58A322E94A
:10BE7000FE900754E0F8A3E0F9E8492274F612179F
:10BE80009A7E0012BE717005791202BF4490075469
:10BE9000E0241A12CAF1F8740268600A7403686038
:10BEA0000574046870E212BF556C7003A3E06D6006
:10BEB00005790202BF447508108E0978081219AD81
:10BEC000EAFCEB12BF4712C62512175979109007EA
:10BED00054E0242BFAA3E03400FB120E82900754A6
:10BEE000E0241BF508A3E03400F50978081219AD29
:10BEF00012C62B12BF47120EE87402121759900790
:10BF000054E0240112CAF1FA900754E0FBA3E0F5D3
:10BF1000838B82E0600D74036A7027888289837442
:10BF200002801974046A7009888289837402F0801F
:10BF30001174036A700C888289837405F0120F00F3
:10BF4000E9FEEEF902C99BFD900754E02407FAA32D
:10BF5000E03400FB22900754E0F8A312C8F8E02276
:10BF6000C082C08390075602C2C874F712179A1293
:10BF7000BE6F601312BF5B6A7003A3E06B7008743E
:10BF8000016E7003120F307F0102186CC082C083F3
:10BF90007917120F3602C2CD74F412179A74ED128B
:10BFA0001743EAF8EBF9851882851983E4F0888253
:10BFB0008983A3A3A3A3A3A312C9778A828B83E057
:10BFC000F50AE824020808E93400F9E8FEE9FFE58B
:10BFD0000A14603614603314604F14607A147003CE
:10BFE00002C06514700302C07314700302C0811490
:10BFF000700302C08F14700302C09D14700302C04E
:10C00000AB14700302C0BA02C0C9740112178EAC1F
:10C0100082AD83120F96E9F8741268701A8518823F
:10C020008519837406F002C122740112178EAC8246
:10C03000AD83120FA2E9F8E8600302C119750B077E
:10C040008E828F8312C977120A20EA4B600302C0E6
:10C05000D475080802C110740112178EAC82AD832A
:10C06000120FAE80D0740112178EAC82AD83120F06
:10C07000BA80C2740112178EAC82AD83120FC680D3
:10C08000B4740112178EAC82AD83120FD280A674E5
:10C090000112178EAC82AD83120FE48098740112E6
:10C0A000178EAC82AD83120FEA808A740112178E4C
:10C0B000AC82AD83120FF602C035740112178EAC3C
:10C0C00082AD8312100202C03585188285198374EF
:10C0D0000702C02590028AE0A2E35005900758802D
:10C0E0000390075612BE74602412C5A8F8A3E0F9A5
:10C0F0008909E845096016740112178EAC82AD8378
:10C10000A90A8882850983121798E9F50B850B081F
:10C11000851882851983E508F0851882851983E0E2
:10C12000600DAC82AD838E828F8312C4EF800312C8
:10C130000E5E74131217597F0402186C74F61217EE
:10C140009AECFEEDFF7508B475090F78081219AD69
:10C15000790212C9A4121759E9F5088E828F83E07B
:10C16000F9120F36A90802C99B74F412179AEAFE55
:10C17000EBFF890812BE71700302C25512BF5B6EDD
:10C180007003A3E06F600302C255900754E02401DE
:10C1900008A3E03400F9E8FAE9FB8A828B83E0F82F
:10C1A000740668600302C24512C418607C9007558B
:10C1B00012C8F1F8A3E0F9900754E02418FCA3E0BA
:10C1C0003400FD8C828D83E0FCA3E0FDE824131293
:10C1D000CBD4F8A2E050178C828D83A3A3A3A3A392
:10C1E000E0A2E050098A828B837407F0804BE85408
:10C1F0000260168C828D83A3A3A3A3A3E0540260E4
:10C20000088A828B83740980E2E8540460168C8269
:10C210008D83A3A3A3A3A3E0540460088A828B8325
:10C22000740B80C7900758800390075612BE746045
:10C230000812C2B5600312179812C2AE703C7900A2
:10C24000120F368035741168700BE50860037508AD
:10C2500032A90880EBE5087018EEFAEFFB120A200D
:10C260008A828B83E58245836007A3A3A3E0D2E49F
:10C27000F0EEFAEFFBA908120618790102C137C0E7
:10C2800082C08312BE71602412C5A8700590075643
:10C29000800390075812BE74600812C2B560031282
:10C2A000179812C2AE70057900120F36801F12BEA9
:10C2B00058E064122212CBE3A3A3E0F8A3E0F988CC
:10C2C000828983E582458322EAF0A3EBF0D083D014
:10C2D0008202013574E812179A74E912174385181F
:10C2E00082851983EAF0A3EBF08C168D17742F1258
:10C2F000178EE0F514A3E0F51512BE7170057912E2
:10C3000002C40E12C5AD120A208A088B09AE08AF0E
:10C3100009EE4F7005791402C40E740212178EAA2A
:10C3200082AB83120F4212C8E1FAA3E0FBEE2405B0
:10C33000F512EF3400F513EE2404F510EF3400F598
:10C340001112C418602F740212178E85820C858317
:10C350000DEAFEEBFF120588E9F50E790012058E55
:10C360008A0A8B0B851082851183E0F50F851208F0
:10C37000851309802B8A0C8B0D740212178EAE82E6
:10C38000AF83120588E9F50F790012058E8A088BB4
:10C3900009851082851183E0F50E85120A85130B3D
:10C3A000741012178EAC82AD83EEFAEFFB120F8A77
:10C3B000740912178EAC82AD83AA0CAB0D120F84D8
:10C3C00078141219AD78081219ADE50FF508780840
:10C3D0001219B1780A1219AD741012178E858208DD
:10C3E00085830978081219AD741912178E85820891
:10C3F00085830978081219ADA90EAC16AD17740B18
:10C4000012178E12C977120E70740B121759741707
:10C410001217597F1002186C900754E0F8A312CB42
:10C42000E3E02274F612179A74F7121743EAFEEB50
:10C43000FF8C088D0990075612BE74700302C4EA7F
:10C4400012CBDF12BE74700302C4EA8C828D83E0CB
:10C45000C0E0740212178ED0E0F08C828D83A3E0CE
:10C46000C0E0740312178ED0E0F08C828D83A3A3FA
:10C47000E0F9740412178EAA82AB83120E8E85081F
:10C4800082850983A3A3A3E0C0E0740612178ED0AF
:10C49000E0F0850882850983A3A3A3A3C082C0839B
:10C4A000740712178EAC82AD83D083D082740212CF
:10C4B0001656740212178EAC82AD837901EEFAEF34
:10C4C000FB90075612C41B12CBDD121798E9851892
:10C4D00082851983F06013740112178EE9F0AC8223
:10C4E000AD838E828F83A312C4EF740902C998E0D2
:10C4F000FAA3E0FB120ED62274F212179A8908747E
:10C500000E12178EE0F50AA3E0F50B741012178EC9
:10C51000E0F50CA3E0F50D90075812BE7460299069
:10C52000075812C54FE0FEA3E0FFEE4F601A780CEB
:10C530001219AD780A1219ADA9088E828F831217CD
:10C54000987404121759800279027F0602186C123F
:10C55000C5B9A32274F612179A74F912174312BEC2
:10C5600071603B851882851983AA82AB83120F42C2
:10C5700012C5AD12C5A5601E75088475090F78082F
:10C580001219AD740212178EAC82AD83790712C9ED
:10C59000A4121759800A75088A75090F80E079017D
:10C5A000740702C99890075512CBE3E02290075414
:10C5B00012C5B9E0FAA3E0FB2212BE5FA3A3227466
:10C5C000F612179A74F0121743750810750900785F
:10C5D000081219AD900754E0241BFCA3E03400FDC1
:10C5E000740212178E12C62112175975089C75090C
:10C5F0000F02C97D74F612179A74F012174375086A
:10C600001075090078081219AD12C62BFD740212BC
:10C61000178E12C6211217597508A875090F02C97D
:10C620007DAA82AB83121032740222900754E02458
:10C630002BFCA3E034002274F012179A8A088B09AD
:10C64000750A007A077B001210C812C8D7EAF0A357
:10C65000EBF088828983E0FA4B700302C8A912C804
:10C66000EBFEA3E0FF750C07750D00780C1219ADF9
:10C67000AC08AD0912C62512175912C4186003027E
:10C68000C808EE2413FCEF3400FD12C8E12405F5C0
:10C690000CA3E03400F50D8C828D83E0F8A3E0F963
:10C6A000850C82850D83E0A2E092F0E8A2E020F004
:10C6B00001B35007A2E0E433FA80027A00E854FEA6
:10C6C0004AF88C828D8312C8C5C313A2E092F0E8A9
:10C6D000C313A2E020F001B35012E854026004D268
:10C6E000F08002C2F0A2F0E433FA80027A00E8544B
:10C6F000FDF8EAC333FAE433FBE84AF8E94B12C821
:10C70000D1543FA2E092F0E81313543FA2E020F08E
:10C7100001B35013E854046004D2F08002C2F0A2C6
:10C72000F0E433F50E8003750E00750F00E854FB3E
:10C73000FAE9FB7402780E121730EA450EF8EB4561
:10C740000F12C8D113541FA2E092F0E81313135430
:10C750001FA2E020F001B35013E854086004D2F0A7
:10C760008002C2F0A2F0E433F50E8003750E00756E
:10C770000F00E854F7FAE9FB7403780E1217301231
:10C78000C8B3540FA2E092F0E8C4540FA2E020F026
:10C7900001B35013E854106004D2F08002C2F0A23A
:10C7A000F0E433F50E8003750E00750F00E854EFCA
:10C7B000FAE9FB7404780E12173012C8B313540749
:10C7C000A2E092F0E8C4135407A2E020F001B350B5
:10C7D00013E854206004D2F08002C2F0A2F0E433E7
:10C7E000F50C8003750C00750D00E854DFFAE9FBC9
:10C7F0007405780C121730EA450CF8EB450DF98CEE
:10C80000828D83E8F0A3E9F0900754E0241AF8A39E
:10C81000E03400F9850882850983A3E060118E82E7
:10C820008F83A3E06009888289837405F0807D8509
:10C830000882850983A3A3E054047015EE2412F541
:10C8400082EF12CBD7A2E2400888828983740180EC
:10C85000DB850882850983E0FA8E828F83E0FB9076
:10C860000754E0FCA3E0F5838C82E06006EBFEEA6F
:10C87000FD8004EBFDEAFEEEC394055027EDC39462
:10C880000550218E08ED75F005A4FAABF0743C2A32
:10C89000FA748E3BFBEA2508F582EB12CBD788822F
:10C8A00089838088750A188003750A13A90A7F088E
:10C8B00002186CEA450EF8EB450F12C8BFC422F906
:10C8C0008C828D83E8F0A3E9F0850C82850D83E0EE
:10C8D0002212C8BF131322900754E0241812CAE290
:10C8E00022900754E0241812CAF522900754E0F869
:10C8F000A312C8F8A3A3E022E0F5838882A3A3A330
:10C900002274F612179A7508C075090F7808121963
:10C91000AD791112C9A402C99874F612179A74EE6F
:10C92000121743EAFEEBFF741C12178E12C97785AB
:10C930001882851983ECF0A3EDF0750808750900DD
:10C9400078081219ADEAFCEBFD740412178E12C6BA
:10C95000211217597508CC75090F78081219AD7492
:10C960000212178EAC82AD83790B12C9A01217592F
:10C9700074128024900754E0FAA3E0FB2278081296
:10C9800019AD740212178EAC82AD83791112C5AD48
:10C9900012C9A412175974101217597F0202186C89
:10C9A000EEFAEFFB12100874022274F612179A7551
:10C9B00008D875090F02C90C74F412179A74F91289
:10C9C0001743EAFEEBFF851882851983E9F0750AA3
:10C9D00006750B00780A1219AD740312178E12C671
:10C9E00021121759750ADE750B0F780A1219AD74EA
:10C9F0000212178EAC82AD83790812C9A0121759A2
:10CA0000740702C13474F612179A7508F075090F8D
:10CA100002C90CC082C08312BE716053900754E0FB
:10CA2000241812CA7560031210CE900754E0245BDC
:10CA300012CA7560031210CE900754E0245D12CA2A
:10CA40007560031210CE900754E0245F12CA75601F
:10CA5000031210CE900754E0246112CA75600312CD
:10CA600010CE12C9741210CE900754E4F0A3F01245
:10CA70000E6402C2CD12CAF5FAA3E0FBEA4B22749F
:10CA8000F712179A12BE6F6052900754E024611299
:10CA9000CADE1219C4900754E0245F12CADE1219CC
:10CAA000C4900754E0245D12CADE1219C4900754E2
:10CAB000E0245B12CADE1219C4900754E024171256
:10CAC000CAF1FB12BF55FCA3E0FD12C5A5FAEEF9B1
:10CAD00012062A7408121759120F3002BF8712CAA1
:10CAE000E22212CAE622F8A3E03400F988828983A0
:10CAF0002212CAF52212CAE6E022C082C08379104F
:10CB000012C974EA4B6047900754E02418FAA3E076
:10CB10003400FB8A828B8312C977EA4B603012C8DB
:10CB2000EBFCA3E0FDEC4D6025EC2415F8ED3400A2
:10CB3000F9EA2404FAEB3400FB88828983E0FC8A5A
:10CB4000828B83E0C39C400488828983E0F902C21F
:10CB5000CD74F612179AEAFEEBFF12BE71606912ED
:10CB6000CBDFA3A3A3A3A312BE74605C88088909CA
:10CB700088828983E08E828F83F088828983A3E014
:10CB80008E828F83A3F0E8241212CBD4F9EE240214
:10CB90000A0AEF3400FB120E8EE5082415F582E533
:10CBA0000912CBD78E828F83A3A3A3A3F0E5082419
:10CBB00013F582E5093400F583EE2405FCEF34001B
:10CBC000FD740212165680097C077D007900121050
:10CBD0004A02C99BF582E93400F583E022F8A312EA
:10CBE000CBE322E0F5838882227F0102186C74F483
:10CBF00012179A74FD121743EAFEEBFF8C088D0999
:10CC0000EE4F6005EC450970047902805E7903857A
:10CC10001882851983AA82AB83120E8274021217BE
:10CC20008EE0543F4440F078081219AD7402121798
:10CC30008EAC82AD83EEFAEFFB120E6A740212170D
:10CC400059E9FE7024750A03750B00780A1219ADB4
:10CC5000740212178EAC82AD83E5082403FAE5094D
:10CC60003400FB12D7B5121759EEF9740302CD1137
:10CC700074F412179A74FA1217438A088B09ECFE9F
:10CC8000EDFFEA45096004EE4F70047902807E757D
:10CC90000A03750B00780A1219ADEE24030C0C0C74
:10CCA000EF3400FD740212178E12D7B112175974A7
:10CCB0000212178EE0543F4440F0740312178E8521
:10CCC000820A85830B780A1219AD740212178EAC92
:10CCD00082AD83AA08AB09120E6A7402121759E9D1
:10CCE000702B75080375090078081219ADEEFCEF7A
:10CCF000FD740512178EAA82AB83121044740212BF
:10CD00001759E96401700479008002790174068082
:10CD1000001217597F0402186C74E812179A74E80D
:10CD20001217438A0A8B0B89178C088D09EA450B69
:10CD30006005EC45097005790202CE52740425178E
:10CD4000F51612D05E700302CE4D1205768A0C8B5A
:10CD50000D8C0E8D0F85171075110078101219ADFE
:10CD6000AC0AAD0BEE2404FAEF3400FB12D4171218
:10CD700017598E828F83A3A3A3E50CF0E50DF5155B
:10CD80008E828F83A3A3F0850C10F511850E12857A
:10CD90000F1374107810121554E510F5148E828F4D
:10CDA00083A3F0850C10850D11F512850F137418EF
:10CDB0007810121554E510F50A8E828F83F07510E5
:10CDC0001078101219AD120570EAFCEBFD740A120E
:10CDD000178E12D4131217598518828519838582EC
:10CDE0001085831178101219ADA916EEFCEFFD74B1
:10CDF0000A12178EAA82AB83120E9A740212175966
:10CE0000E9F50B703F850882850983E50CF0A3E501
:10CE10001512CE57E51412CE57A3E50AF0750C088B
:10CE2000750D00780C1219AD740212178EAC82AD1C
:10CE300083E5082404FAE5093400FB12D41712171D
:10CE40005912057CEEFAEFFB1210CE8003750B131E
:10CE5000A90B741802D40BF0850882850983A3A35B
:10CE60002274E812179A74DD121743740112178E98
:10CE7000EAF0A3EB12D7BB8C168D17743B12178EFA
:10CE8000E0F50B743C12178E12D41DEC45176006AA
:10CE9000E50845097005790202D059740112178E10
:10CEA00012D143120A208A148B15EA4515700579B0
:10CEB0001402D059850882850983E0F510E4F51144
:10CEC000F512F513A3E0F50CE4F50DF50EF50F746E
:10CED00008780C12156D7810790C12158C85088263
:10CEE000850983A3A3E0F50CE4F50D7410780C120A
:10CEF000156D7810790C12158C850882850983A32D
:10CF0000A3A3E0F50CE4F50E7418780C12156D78F7
:10CF100010790C12158CEA241DF582EB12D92678B3
:10CF20000C1216137810790C121425400D909033C2
:10CF3000780C121410600302CE968518828519832E
:10CF4000E060118A828B83A3A3A3E0A2E14005796C
:10CF50000102D0597C087D007900740312178EAA53
:10CF600082AB8312104A7404250BF50A12D05E704E
:10CF700005791302D059850B0C750D00780C121928
:10CF8000ADAC16AD17EE2404FAEF3400FB12D41743
:10CF9000121759750C04780C1219ADAC08AD09EED6
:10CFA000FAEFFB12D417121759750C10780C1219DE
:10CFB000ADE514240DFCE5153400FD741512178E33
:10CFC00012D413121759740312178E85820C85839D
:10CFD0000D780C1219ADA90AEEFCEFFD74151217AD
:10CFE0008EAA82AB83120E9A7402121759E9F50ABF
:10CFF000705E750C08750D00780C1219AD74051271
:10D00000178EAC82AD83740D12178E12D4131217C3
:10D0100059780C1219ADE5082404FCE5093400FD2B
:10D02000740D12178EAA82AB831210447402121769
:10D0300059E964016005750A01801578101219A973
:10D04000740512178E12D1431205827404121759F7
:10D05000EEFAEFFB1210CEA90A742302D40BFA7B6E
:10D06000001210C88A0C8B0DAE0CAF0DEE4F22745F
:10D07000F412179A890812D1A1700302D132E5087F
:10D08000704B12D14FE0750A08750B00780A7025B5
:10D090001219ADEAFCEBFD900752E0240212D137E1
:10D0A0001217591208A0E9700712D1497401807D46
:10D0B00075080180131219ADEAFCEBFD900752E0F0
:10D0C000240A12D13712175912D1A160617A127B4A
:10D0D0000012105C8A0A8B0BAE0AAF0BEE4F603E5B
:10D0E0008E828F8374C1F0A3E508F0750A10750B6A
:10D0F00000780A1219AD900752E02402FCA3E03434
:10D1000000FDEE24020A0AEF3400FB12D7B5121715
:10D1100059EEFAEFFB12D149A3E0F912106890071B
:10D120005212D1431210CE900752E4F0A3F07901CD
:10D130008002790002CD14FAA3E03400FB12103211
:10D14000740222E0FAA3E0FB22900752E0F8A3E089
:10D15000F58388822274F212179A7A1E7B001205D8
:10D160003A8A088B09E4F50AF50B8B0DEA450D6048
:10D170001678081219A97A017B0090075AE0F91273
:10D18000110A740412175902D250C082C0837A0166
:10D190007B0090075AE0F9121116D083D082020169
:10D1A00035900752E0F8A3E0F9E8492274F212172B
:10D1B0009A74D01217438A0A8B0BECFEEDFF743E73
:10D1C00012178E12D20E1219ADAC0AAD0B740212E8
:10D1D000178E12D413121759750A03750B00780AAB
:10D1E0001219ADEEFCEFFD741F12178E12D413123C
:10D1F000175912D1FE780A1219AD742F803A85188A
:10D2000082851983AA82AB83120E94E9FE22E0F58F
:10D2100008A3E0F5097C307D007900851882851926
:10D2200083AA82AB8312104A750C10750D00780C1E
:10D2300022780A1219AD742212178EAC82AD83AA1D
:10D2400008AB0912D417121759EEF9743012175996
:10D250007F0602186C74E812179A74B0121743EA2A
:10D26000FEEBFF8C168D17890A746812178E12D484
:10D270001D746A12178EE0F50CA3E0F50D746C12A4
:10D28000178EE0F510A3E0F511746E12178EE0F51D
:10D290000B746F12178EE0F514A3E0F5157471127C
:10D2A000178EE0F50EA3E0F50F7C307D0079007459
:10D2B0002012178EAA82AB8312104A7512107513B2
:10D2C0000078121219ADEEFCEFFD742212178E12C7
:10D2D000D4131217597C107D0079008518828519A6
:10D2E00083AA82AB8312104A75120778121219AD05
:10D2F000AC08AD09740212178E12D41312175975A7
:10D30000080775090078081219ADAC0CAD0D740949
:10D3100012178E12D413121759E50B6009740E12EE
:10D32000178E74018006740E12178EE4F0E50A6001
:10D3300009740F12178E74018006740F12178EE491
:10D34000F07C107D007900EC12178EAA82AB83125C
:10D35000104A75080678081219ADAC10AD11741694
:10D3600012178E12D41312175978081219ADAC1473
:10D37000AD15741C12178E12D4131217597508109C
:10D3800078081219ADAC16AD17743212178E12D47C
:10D3900013121759851882851983AC82AD837430B6
:10D3A00012178EAA82AB83120E76742012178E1279
:10D3B000D20478081219AD744212178EAC82AD8374
:10D3C000743212178E12D7B1121759741012178EA9
:10D3D000AC82AD83743012178EAA82AB83120E76A4
:10D3E000742012178EAA82AB83120E94E9FF78087C
:10D3F0001219AD744212178EAC82AD83AA0EAB0F18
:10D4000012D417121759EE4FF974501217597F1092
:10D4100002186CAA82AB83121038740222E0F5085D
:10D42000A3E0F5092274F712179A79108C828D8384
:10D43000E0F88A828B83E068F0A3AA82AB838C82B7
:10D440008D83A3AC82AD8319E970E102CBE974F25C
:10D4500012179A74D01217438C0A8D0B743E121750
:10D460008EE0FEA3E0FF744012178E12D41D750CDF
:10D4700010750D00780C1219ADEAFCEBFD74021268
:10D48000178E12D413121759750C08780C1219AD97
:10D49000AC0AAD0B741212178E12D41312175975F1
:10D4A0000A08750B00780A1219ADEEFCEFFD741A2C
:10D4B00012178E12D41312175912D4BF02D231127E
:10D4C000D1FE750A102274F412179AEAFEEBFF8956
:10D4D0000B750A00801812105612D91DEBF0050AC0
:10D4E000E50AC3950B500712D91DEAF0050AE50AB3
:10D4F000C3950B40E102CD14C082C0838A828B8326
:10D50000E0F902D19A74F612179A8982AE82E9A2E2
:10D51000E25004D2F08002C2F08A828B83E054FC95
:10D52000FCA3E0FDEC4E5403FCA2F0E433F50875D7
:10D53000090074027808121730EC4508FEE954F827
:10D54000FCEE4C8A828B83F0A3EDF07F0202186C14
:10D5500074F612179AEA2420F508EB3400F50978DE
:10D56000081219ADEA2410FCEB3400FD12D8A81201
:10D57000175980D774E812179A74ED121743740183
:10D5800012178EECF0A3ED12D7BB8A168B177A1008
:10D590007B001210C88A128B137A107B001210C8FD
:10D5A0008A108B11E5124513700302D78DEA4511DD
:10D5B000700302D78D78101219ADAC12AD13AA16F4
:10D5C000AB17120EA07402121759E9F50A60030294
:10D5D000D79612D8BC8A0E8B0FE50C450D7003024E
:10D5E000D76EEA450F700302D76E851882851983BE
:10D5F000E0240FF8E43400F97A107B001216B088AA
:10D60000088909AE08AF09E0540FFCEE4F70067EA2
:10D61000017F008007EC7004780180027800EE142E
:10D62000C454F0FA740112178EE02AFAA3E0340011
:10D63000FBE8A2E0500B780E1219ADAC12AD1380CE
:10D64000588C0B750800850882AC82740312178E03
:10D65000E5822CF8E5833400F9ECC3950B500FEA12
:10D660002CF582EB12D926E088828983800FE50BA6
:10D67000650888828983700474808001E4F005085D
:10D68000E508C3941040BF780E1219ADAC10AD116F
:10D69000740512178EAA82AB8312D8B61217597C62
:10D6A000107D007900AA0CAB0D12104A75080075A8
:10D6B0000900804C740312178E85821485831578B7
:10D6C000141219ADE508C454F0F8740312178EE073
:10D6D00028FCA3E03400FDAA0CAB0D12D8B612173B
:10D6E00059780C1219AD740512178E12D8A01217A2
:10D6F00059E9F50AE5082401F508E5093400F509BA
:10D70000EE24FFF8EF34FFF9C3E50898E50999A284
:10D71000D265D0335004E50A609AE50A7059740363
:10D7200012178E85820885830978081219ADAC0E10
:10D73000AD0FAA0CAB0D12D8B6121759780C1219EE
:10D74000AD740512178E12D8A0121759E9F50A7593
:10D75000080875090078081219ADAC0CAD0D742DD0
:10D7600012178E12D14312D7B51217598009750AB4
:10D7700013E50C450D6007AA0CAB0D1210CEE50E9B
:10D78000450F6012AA0EAB0F1210CE8009750A1356
:10D79000E51245136007AA12AB131210CEE510452F
:10D7A000116007AA10AB111210CEA90A741302D48B
:10D7B0000BAA82AB83121032740222F0E985188220
:10D7C000851983F02274EE12179A8A088B098C0E41
:10D7D0008D0F741212178EE0F510A3E0F51112D818
:10D7E000BC8A0A8B0BAE0AAF0BE50C450D70030229
:10D7F000D87EEE4F700302D87E7C107D0079001237
:10D80000104A780C1219ADEEFCEFFDAA08AB091214
:10D81000D8A8121759E9F50A706D7508FA75098EBE
:10D82000850C82850D83E0A2E7400DAC0EAD0FAAFA
:10D830000CAB0D120EAC8016EEFCEFFDAA0CAB0D7E
:10D84000120EAC780E1219AD12D8AE121759850E01
:10D8500082850F83E0A2E7400DAC10AD11AA0EAB9C
:10D860000F120EAC8021EEFCEFFDAA0EAB0F120ED4
:10D87000AC78101219AD12D8AE1217598009750A7A
:10D8800013E50C450D6007AA0CAB0D1210CEEE4F40
:10D890006007EEFAEFFB1210CEA90A7F0A02186C9D
:10D8A000AC82AD83AA16AB17120A74740222AC08BC
:10D8B000AD09EEFAEFFB120EA67402227A107B007D
:10D8C0001210C88A0C8B0D7A107B001210C82274BB
:10D8D000F612179A740A12178EE0F8A3E0F9750988
:10D8E00000850982AE82EC2EF582ED12D926C08227
:10D8F000C083EA2EF582EB12D926E0D083D082F5E0
:10D9000008E06508C0E0E82EF582E912D926D0E0EB
:10D91000F00509E509C3941040C702D54B850A08F4
:10D92000EE2508F582EF3400F5832274F512179A7C
:10D9300075090075080FE508F83395E0F9EC28FE45
:10D94000ED39FFEA28F8EB39F988828983E0C3339F
:10D950008E828F83F04509F088828983E0A2E7E414
:10D9600033F50974FF2508F508C39400A2D265D0E9
:10D970003350C37F0302186C74F012179A8908ECB5
:10D98000FEEDFF750900898285820A750B008A0CFD
:10D990008B0D780C1219F1010318C0DCCED9E6D931
:10D9A000FED9C0DC17DA77DA89DABCDAEFDA0DDB18
:10D9B0002BDB4BDB69DBC0DC87DBC0DBDDDBF2DBD9
:10D9C00007DC28DCC0DCC0DCC0DCC0DC4CDC741054
:10D9D0006508600302DCBB750A10780A1219AD7A7B
:10D9E000A87B0802DB4074106508600302DCBB758D
:10D9F0000A10780A1219AD7AB87B0802DB40740469
:10DA00006508600302DCBB8E828F8312163190089A
:10DA1000C812163D02DCDD74016508600302DCBB40
:10DA2000900B04E0F88E828F83E0900B04F0E860A6
:10DA30001CE0600302DCDD9008A6E06402600302E3
:10DA4000DCDD9008A5E0F912063C02DCDDE07003A5
:10DA500002DCDD9008A6E06401600DE0640360086C
:10DA6000E06404600302DCDD7A017B009008A5E03D
:10DA7000F912108C02DCDD74026508600302DCBB65
:10DA800012E185900B0502DC22E9C39420400302D9
:10DA9000DCBB7C1F7D0079007A087B0B12104A7872
:10DAA0000A1219ADEEFCEFFD7A087B0B12103274EE
:10DAB00002121759E508900B0702DC48E9C39420CD
:10DAC000400302DCBB7C1F7D0079007AD37B081207
:10DAD000104A780A1219ADEEFCEFFD7AD37B0812DA
:10DAE00010327402121759E5089008D202DC48740B
:10DAF000016508600302DCBB8E828F83E0F8C3946B
:10DB000004400302DCBBE89008F202DC48740165C3
:10DB100008600302DCBB8E828F83E0F8C39404406C
:10DB20000302DCBBE89008F302DC48740665086079
:10DB30000302DCBB750A06780A1219AD7AF47B0879
:10DB4000121032740212175902DCDD74016508608C
:10DB50000302DCBB8E828F83E0F8C394084003028B
:10DB6000DCBBE89008FA02DC487401650860030237
:10DB7000DCBB8E828F83E0F8C39404400302DCBBDD
:10DB8000E89008FB02DC4874026508600302DCBB15
:10DB900012E1859008FC12E507E849700302DCDD1C
:10DBA0009008A6E06405600302DCDD12E53E121970
:10DBB000A97A027B009008A5E0F912110A02DCB4F0
:10DBC00074016508600302DCBB8E828F83E0F8C3BA
:10DBD0009402400302DCBBE8900906806B12DCF47F
:10DBE000600302DCBB12DCE4400302DCBB900B29C7
:10DBF000805212DCF4600302DCBB12DCE44003025E
:10DC0000DCBB900B2B803D12E1857402650860033C
:10DC100002DCBBC3E894F4E99401400302DCBB904E
:10DC20000907E8F0A3E9802012DCF4600302DCBB02
:10DC3000EA24F6F8EB34FFF9C3E89477E9940C5042
:10DC40007A900B2DEAF0A3EBF002DCDD740165089D
:10DC500070698E828F83E064017060900B2912E1FD
:10DC600089758309758209C3E098A3E099403390D0
:10DC7000090912E18975830B75822BC3E098A3E033
:10DC800099401F90090B12E189900907E068700321
:10DC9000A3E069700D90090D12E51A7003A3E06905
:10DCA000603B900B2D1219C49009071219C412DDA4
:10DCB0000012139E74041217598022750918801DD2
:10DCC000C3EA9424EB9400501174026508700B129F
:10DCD000E4FD120534E9F5098003750902A9097FFD
:10DCE0000802186CEA24FAF8EB34FFF9C3E8947BD5
:10DCF000E9940C228E828F8312E514740265082247
:10DD00007900900B2B12E501900B2912E514227477
:10DD1000F412179AECFEEDFF7508008A0A8B0B7857
:10DD20000A1219F10003185CDE5BDD61DD73DD852D
:10DD3000DD95DDA7DDACDDB2DDC1DDD0DDD5DDDA21
:10DD4000DDEBDDF0DDFADDFFDD04DE11DE16DE1BCE
:10DD5000DE20DE25DE42DE47DE4CDE9008A702DD57
:10DD6000F3750A10750B00780A1219AD7CA87D08AE
:10DD700002DE34750A10750B00780A1219AD7CB8F2
:10DD80007D0802DE349008C81216318E828F83120D
:10DD9000163D02DE76750A06750B00780A1219AD7B
:10DDA0007CCC7D0802DE34900B048047900B05028A
:10DDB000DE4F900B0712DE7D1219AD7C087D0B80C3
:10DDC000739008D212DE7D1219AD7CD37D08806479
:10DDD0009008F2801E9008F38019750A06750B00F2
:10DDE000780A1219AD7CF47D0880499008FA800306
:10DDF0009008FBE08E828F838076900B2780509076
:10DE000008FC804B900906E08E828F83F0A3E480AB
:10DE10005F900B298039900B2B8034900907802F5D
:10DE2000900B2D802A750A06750B00780A1219AD21
:10DE30007C007D09EEFAEFFB1210327402121759C2
:10DE40008034900909800890090B800390090D1215
:10DE5000E1898E828F83E8F0A3E98014C3EA9424D9
:10DE6000EB9400500E12053A8E828F83EAF0A3EBFA
:10DE7000F08003750802A9087F0402186CE0F50A17
:10DE8000750B00780A2274F612179A9008A6E070B3
:10DE90003EEA4B60089008FEEAF0A3EBF07508C874
:10DEA00075090878081219AD7508B8750908780859
:10DEB0001219AD7CA87D087B009008A7E0FA9008B5
:10DEC000A5E0F912115E74041217597900800279E5
:10DED000117F0202186CC082C0839008A6E064051E
:10DEE000700812E16E1205B880027912D083D082D8
:10DEF00002013574F712179AE99008A5F09008A668
:10DF0000E4F0900B2774FFF0A3F01206849008A7AA
:10DF10007404F07C107D0079007AA87B0812104A06
:10DF20007C107D0079007AB87B0812104A9008C8EE
:10DF3000E4F0A3F0A3F0A3F09008F2F09008F3F05F
:10DF40009008FA7407F09008FBE4F07CA87D087A4A
:10DF500010790212136E7CB87D087A1079031213BF
:10DF60006E7CC87D087A04790412136E7F01021852
:10DF70006C74F412179A74F6121743EAFEEBFF540E
:10DF800080700302E03E9008A5E0F91210748A0840
:10DF90008B09EA4509700302E036EA2405F8EB3400
:10DFA00000F98A828B83E0246F603524EF600624B9
:10DFB000D26028807A88828983E0641370718A82B3
:10DFC0008B83A3A3A3A3A3A312E55370627A047B5C
:10DFD000009008A5E0F91211168054121398804F92
:10DFE000A3E0640E70498A828B83A3A3A3E0640537
:10DFF0007004A3E0641470378882898312E17AA3E5
:10E00000E0F99008A6E064057025747F69602090AF
:10E0100008FE12E510EA4B60169008FE12E17A1233
:10E02000E5108A828B83E58245836003121798AAE4
:10E0300008AB09121062EEFAEF648002E15FEF5460
:10E040004060137CC87D087A047904121368EEFAE4
:10E05000EF644002E15FEEA2E0400302E0F8900BC3
:10E0600004E0700302E0F39008F2E085188285195D
:10E0700083F09008F3E0C0E0740112178ED0E0F056
:10E0800075080675090078081219AD7CF47D0874CE
:10E090000412178EAA82AB8312103274021217591F
:10E0A0009008FAE0C0E0740812178ED0E0F09008F3
:10E0B000FBE0C0E0740912178ED0E0F0851882856D
:10E0C0001983AA82AB839008A5E0F9120630E960B3
:10E0D000229008A67406F012E5506017E0F58388D8
:10E0E0008212E18988828983E58245836005790609
:10E0F000121798EE64018065540260359008A6E01E
:10E100006405702812E50D12086A9008FC12E553A8
:10E11000601A9008FC12E52F1219A97A027B009070
:10E1200008A5E0F912110A7404121759EE6402806E
:10E130002CEE5404602C7A047B009008A5E0F912C0
:10E14000111CEA4B4C4D600C7A047B009008A5E052
:10E15000F912111612E16E1205B8EE6404FAEFFB23
:10E1600080047A007B00740A12175902DE78900B43
:10E170002712E5149008A5E0F922E0F8A3E0F58362
:10E180008882A3A3228E828F8312E18D22E0F8A3DE
:10E19000E0F92274EE12179A8A0A8B0B8A828B831B
:10E1A000A3A3E0F8EA2403F508EB3400F509EA2418
:10E1B0000AFEEB3400FF8A828B83A385820C858361
:10E1C0000DE8602724FE700302E26114700302E28E
:10E1D000A714700302E2A714700302E2E9147003AB
:10E1E00002E40714700302E45A8071E0704B7CA8CB
:10E1F0007D087A1079021213687CB87D087A10794C
:10E2000003121368750A06750B00780A1219ADAC73
:10E2100008AD097ACC7B081210327402121759909B
:10E2200008A67401F07C087D0B900B07E0FB7A01D7
:10E230009008A5E0F9120636E9706412E550601CFA
:10E24000E0F583888212E189E8FAE9FBEA4B600C89
:10E250009008A6E0F98A828B831217987F0A021829
:10E260006CE07032850882850983E0601D7CD37D77
:10E27000089008D2E0FB7A009008A5E0F912063673
:10E28000E9850C82850D83F0800C7A017B00900873
:10E29000A5E0F912108C850C82850D83E060BD909D
:10E2A00008A67406F08094E070F574036870079017
:10E2B00008A6740280EE900B0512E553900B0460E3
:10E2C0001FE0601E900B0512E52F1219A97A017B41
:10E2D000009008A5E0F912110A740412175980027F
:10E2E000E4F09008A6740380BBE0F8600302E3F951
:10E2F000EA2404F510EB3400F511750C06750D00D9
:10E30000780C1219ADAC10AD117A007B09121032E5
:10E31000740212175912E185900B2712E507900835
:10E32000A67405F09008FC12E553601712E53E1242
:10E3300019A97A027B009008A5E0F912110A740469
:10E34000121759E50A240CF582E50B3400F5831207
:10E35000E523E50A240EF582E50B3400F58312E58A
:10E360000190090BECF0A3EDF0E50A2410F582E52D
:10E370000B3400F583E0F50AA3E0F50B90090DE5F9
:10E380000AF0A3E50BF0900906E064017049900BD8
:10E390002912E510C3E89AE99B4025900B2BC3E0B6
:10E3A00098A3E099401A900907E06C7003A3E06D10
:10E3B000700E900B2DE0650A7004A3E0650B6017EA
:10E3C000900B2D1219C49009071219C412DD001206
:10E3D000139E7404121759750A04780A1219B1129F
:10E3E000E4FDAA10AB11850882850983E0F91211BA
:10E3F0006A740112175902E23B743168600302E249
:10E400009F900B0402E2E01211887C067D007900E7
:10E410007A007B0912104A900909E4F0A3F09009F0
:10E420000BF0A3F090090DF0A3F0850A82850B8311
:10E43000A3A3A3A3A3E064089008A67004740480B7
:10E44000027403F07A017B009008A5E0F912108CA9
:10E45000900B2774FFF0A302E2A4E07039EA2406CF
:10E46000F8EB3400F9880889098882F58312E510F1
:10E47000900B2912E189C3EA98EB994019900B2B74
:10E48000C3E09AA3E09B400E8E828F8312E51A7040
:10E4900003A3E069602F90090FE014600614601F69
:10E4A00002E25C900B2D1219C49009071219C4796D
:10E4B0000112DD0212139E740412175902E25C125B
:10E4C000138602E25C7A047B009008A5E0F9121141
:10E4D0001685088285098312E523850A82850B83C8
:10E4E000A3A3A3A3A3A3A3A312E18990090B12E5FD
:10E4F0000712E18590090D12E50702E25C8E828F1A
:10E5000083E0FCA3E0FD22E8F0A3E9F022900B27D2
:10E5100012E51422E0FAA3E0FB2212E18D900B2D0C
:10E52000E0682212E18D900909E8F0A3E9F022E009
:10E53000F508A3E0F509E4F50AF50B780822900840
:10E54000FCE0F50CA3E0F50DE4F50EF50F780C22D8
:10E550009008FE12E18DE8492274EC12179A74F8C3
:10E560001217439008A6E064056005791402E6DA04
:10E57000E990090FF0900909E0FEA3E0FF90090B74
:10E58000E02401F508A3E03400F509EE8508F0A4C5
:10E59000CEA8F08509F0A428F88508F0EFA428FF9C
:10E5A000741C12178E12E1898C08E82401F50CE91D
:10E5B0003400F50DEC850CF0A4C50885F00B850D35
:10E5C000F0A4250BF50B850CF0EDA4250BF509EA5D
:10E5D00024FAF50CEB12E6E4400302E68FEC24FA91
:10E5E000F50CED12E6E4400302E68FC3E894F4E98B
:10E5F0009401400302E68F741E12178EE0F50EA3FD
:10E60000E0F50FE50E24F6F50CE50F34FFF50DC32C
:10E61000E50C9476E50D940C5075900B29EAF0A367
:10E62000EBF0851882851983EAF0A3EBF0900B2BB1
:10E63000ECF0A3EDF0900B2B12E510740212178E84
:10E64000EAF0A3EBF090090712E507740412178EA5
:10E6500012E507900B2DE50EF0A3E50FF0900B2DC2
:10E6600012E189740612178E12E5079008A5E0F9E9
:10E67000851882851983AC82AD8312E50D12096C71
:10E68000C3E5089EE5099F500A8E0C8F0D800A791C
:10E6900018804785080C85090DE4F50EF50F90905C
:10E6A0002F7810121613780C79101214649090774A
:10E6B000780C1214455006750CFF750DFFE4F50E2D
:10E6C000F50F780C1219A97A047B009008A5E0F9DF
:10E6D00012110A7404121759790074081217597F1D
:10E6E0000C02186C34FFF50DC3E50C947AE50D941B
:10E6F0000C22C082C0837B0012EF8FA3E412EBC810
:10E70000A3A3A3A374FFF00BEBC3940240EA90050C
:10E710009474FFF0900593E4F0900592F0900595C5
:10E72000F0A3F002EF6074EC12179A900595E0F5F3
:10E730000AA3E0F50BE50A450B7006120B1C02EA72
:10E740002E850A82850B83E0F91460181460152465
:10E75000FE601124C4700302E8A124C0700302E823
:10E76000A102EA2E12EA40EE240EF512EF3400F573
:10E7700013EE2402F508EF3400F5099003F6E0707B
:10E780000302E80B12EA72F510A3E0F511AC10FDDC
:10E79000EEFAEFFB120C96E9F50E7402650E60615D
:10E7A0008E828F83E06401600302EA2EEE650A70B8
:10E7B00003EF650B6003120B3AE50E701912EA4C79
:10E7C00012159F90903F780C1215ED8508828509EF
:10E7D00083780C121622851082851183A3A37808F2
:10E7E000121613909053780812159F90903F780856
:10E7F0001215ED851282851383780812162202EA1B
:10E800002112EA55AA10AB1102EA2BEE650A700339
:10E81000EF650B700302EA2B8E828F83E064016048
:10E820000302EA2E12EC92909023780C12159F7836
:10E830000C1219A985088285098312163112EC8CF5
:10E84000121759E9705812EA4C12159F90903F78B0
:10E850000C1215ED850882850983780C121622901A
:10E8600003CBE0640270288508828509837808124A
:10E870001613909027780812159F90903F780812F1
:10E8800015ED8512828513837808121622800F9069
:10E89000903312163185128285138312163D02EAD7
:10E8A000219003F6E0700302E98112EA72F508A3F1
:10E8B000E0F5099003F7E0F875F004A4C8AAF02A7F
:10E8C000F974F928F50A740339F50BE50A2404F5FF
:10E8D0000EE50B3400F50F900593E054076075A327
:10E8E000E0F9120C9C8A108B11AE10AF11AC08AD80
:10E8F00009120C96E9F510740265106057850E82B6
:10E90000850F83E0F9120CF08E828F83E064017032
:10E9100043120B3AE510701912EA4C12159F9090B1
:10E920003F780C1215ED8E828F83A3A3780C1216FC
:10E9300022850882850983A3A37808121613909074
:10E9400053780812159F90903F78081215ED12EB3E
:10E95000C102E7F9E50C650A7004E50D650B601A64
:10E96000850A82850B83A3A3A3E0600B850E8285B5
:10E970000F83E0F9120CF012EA55AA08AB0902EA7B
:10E980002B900593E05407700302EA2EA3E0F912DE
:10E99000EA408E828F83E06401600302EA2E12EC6B
:10E9A0009212EA33909023780C12159F780C12196A
:10E9B000A9850882898312163112EC8C121759E945
:10E9C000705F12EA4C12159F90903F780C1215ED73
:10E9D000850882850983780C121622EE240EF8EF42
:10E9E0003400F9880A9003CBE0640270278508821E
:10E9F000850983780C121613909027780C12159FB6
:10EA000090903F780C1215ED850A828983780C125C
:10EA10001622800D90903312163188828983121647
:10EA20003D9005947401F0EEFAEFFB120C907F0C10
:10EA300002186CEE2402F8EF3400F98808890922E4
:10EA4000120C9C8A088B09AE08AF092212EC99902F
:10EA5000903B780C22E50C2404FEE50D3400FF8E7B
:10EA6000828F83E0F9120CF68E828F83E09003F799
:10EA7000F022120BC4E9F875F004A4C8AAF02AF930
:10EA800074F928F50C740339F50D850C82F583E0D3
:10EA90002274F012179AEAFEEBFF8E828F83A3A3F3
:10EAA000A3A3A3A3E0FAA3E0FB120D4412EA338868
:10EAB00082F583121631120D38850882850983127A
:10EAC0001631120D2C12EBC1121631120D3E8E8230
:10EAD0008F83E064407019EE2412F8EF3400F98857
:10EAE000828983E090606412EBC8E09060658006E4
:10EAF000906064E4F0A3F0900595EEF0A3EF12EFC0
:10EB00000212F38E121798906054E412EBCFA31206
:10EB1000EBCF906182E0C2E6F07591BFEE2415F86C
:10EB2000EF3400F9880A890B8882F583E06401706C
:10EB300003120D80E5E170FC12EEF3E0F874FF685B
:10EB4000600288E1850A82850B837401F09003D10D
:10EB5000E06401706712EC95780C1219A98508829F
:10EB60008509831216311221C974041217598A08B3
:10EB70008B098C0A8D0B90904F780C121613780825
:10EB8000790C12146474037808121554E50824F4FF
:10EB9000F508E5093401F509900564E060031210F9
:10EBA000B6E4F50AF50B78081219A97A207B0090D3
:10EBB00003CAE0F912110A74041217597F080218E7
:10EBC0006CEE240E12EEFA22F088828983A322F0E2
:10EBD000A3F0A3F0A3F0A3F0A3F02274EC12179A11
:10EBE000EAFEEBFF8C088D09EE4F7005790202EC0E
:10EBF0008912EC95909007780C12159F90903F78B1
:10EC00000C1215EDE5082402F8E50912EA38780C33
:10EC10001219A985088289831216311221C9740438
:10EC20001217598A108B118C128D139090477810FF
:10EC300012144550B7EE2402EF34000E0EFF850883
:10EC400082850983780812161390901F7808121590
:10EC50009F78081219A98E828F8312163112EC8CBC
:10EC6000121759E9708690901B780C12159F780C3A
:10EC70001219A98E828F8312163112EC8C12175939
:10EC8000E9700479008002790102EA2E12216C7485
:10EC90000422120B3A12EC9922120D628A0C8B0D8F
:10ECA0008C0E8D0F2274EE12179A890874FF650876
:10ECB000702E900593E05407602312EE26700879B9
:10ECC00004120CC002EE11790112EE2870047901D1
:10ECD00080EF790212EE287007790280E402EE0DCF
:10ECE000A908120CC08A108B11A90812EE28700511
:10ECF0007509018003750900E5102402F50AE51184
:10ED00003400F50BE50814600F14700302EDA52420
:10ED1000FE700302EDF280C5790212EE2870387998
:10ED20000212EE1650678E828F83A3A3780C121600
:10ED300013909017780C12159F780C1219A9850A58
:10ED400082850B8312163112EC8C121759E9703D33
:10ED5000AA10AB1102EE1112EE267037790412EEF2
:10ED600016502A8E828F83A3A3780C1216139090CC
:10ED700017780C12159F780C1219A9850A82850B39
:10ED80008312163112EC8C121759E960C3EEFAEFB8
:10ED9000FB807EE509A2E05006AA10AB1180727AD2
:10EDA000007B00806C12EE267034790412EE16504F
:10EDB000DC8E828F83A3A3780C12161390901778A1
:10EDC0000C12159F780C1219A9850A82850B8312E3
:10EDD000163112EC8C121759E970B202ED5079011C
:10EDE00012EE287004790180C3E509A2E0501E02EA
:10EDF000ED50790112EE2860EC790212EE287004D1
:10EE0000790280A8E509A2E0500302ED507A007B68
:10EE1000007F0A02186C120CC08A0C8B0DAE0CAF6E
:10EE20000DE509A2E0227904120CB4E96401227410
:10EE3000F512179A890A7C00EC75F018A4FAABF069
:10EE400074922AF874053BF9880889098882F58349
:10EE5000A3A3A3A3A3A3E0600302EEE074972AFE9A
:10EE600074053BFF8E828F83A37401F08E828F83A3
:10EE7000E50AF0120D628E828F83A3A312163D8ED7
:10EE8000828F83A3A3A3A3A3A3E4F0A3F090903362
:10EE900012163112EBC112163D12EEF37401F0EEB0
:10EEA000241512EEFA740112EF02E4F0A3F09005BB
:10EEB00093E0450AF0900592E004F0E5082405FA95
:10EEC000E5093400FBE06401600C7480650A6006AB
:10EED0007440650A7018900595EAF0A3EBF0800E77
:10EEE0000CECC39402500302EE387A007B007F03DF
:10EEF00002186CEE241412EEFA22F582EF3400F5BB
:10EF00008322F0EE241612EEFA22C082C0838A8297
:10EF10008B83E0F8A3E0F98A828B83E4F0A312EB01
:10EF2000C8F088828983E0F4F8900593E058F09067
:10EF30000592E014F0700B900595E4F0A3F09003B7
:10EF4000CBF0801CC082C083900592E0600A9005DF
:10EF500095E0FAA3E0FB80047A007B008002E0F9F0
:10EF6000D083D082020135C082C083E9FC7B0012CD
:10EF7000EF8FE06C700E88828983A3A3A3A3A3A361
:10EF8000E0F980090BEBC3940240E4790080D1EBF7
:10EF900075F018A4F8A9F0749228F8740539F98866
:10EFA000828983A3A3A3A3A322C082C083900593D5
:10EFB00080AC74F712179A7E00EE75F018A4FAABC5
:10EFC000F074922AFA74053BFBEAFCEBFDEC240595
:10EFD000FAED3400FB8A828B83E069700F8C828D9E
:10EFE00083A3A3A3A3A3A3E06401600B0EEEC394C9
:10EFF0000240C67A007B007F0102186CC082C08389
:10F0000090059202EF5E74F212179AEAFEEBFFEEA1
:10F010002400F8EF3401F989099061D0E0888289F1
:10F0200083F09061D7E0FAEE240108EF3401F9880B
:10F030000A890B9061D512F170240208EF3401F9AE
:10F04000880C890D9061D612F16170149061C5E051
:10F05000A2E4500CE0A2E75007888289837480F014
:10F06000120E1C850A82850B83E07019850C82853F
:10F070000D83E070109061C5E0A2E45008E0A2E7C3
:10F08000500312F17575E195780080129061D3E01C
:10F09000C0E0880AEE250A12EEFAD0E0F0088E826F
:10F0A000850983E0F9E8C39940E275E1917F0602A2
:10F0B000186C74F212179AEAFEEBFFEE2403F8EFD5
:10F0C0003401F9880889099061C8E088828983F051
:10F0D0009061CFE0FAEE240408EF3401F9880A8940
:10F0E0000B9061CD12F170240508EF3401F9880C02
:10F0F000890D9061CE12F16170149061C5E0A2E0BB
:10F10000500CE0A2E35007888289837480F0120ECD
:10F1100022850A82850B83E07019850C82850D8318
:10F12000E070109061C5E0A2E05008E0A2E3500357
:10F1300012F175120E287A0080149061CBE0C0E0C5
:10F140008A0AEE250AF8EF12F22FD0E0F00A8508BD
:10F1500082850983E0F8EAC39840DF75E18102F017
:10F16000AD12F16522E0C39A547F88828983F02230
:10F1700012F165EE22850C82850D837480F0850A7C
:10F1800082850B83F02274F612179A9061C6E0FC18
:10F19000E0540FF075E191780080118808EA2508A5
:10F1A000F582EB12EEFDE09061D2F008EA24001245
:10F1B000F226F9E8C39940E3EA240212F226600439
:10F1C0009061D6F0EA240112F22660049061D5F035
:10F1D000EC9061C6F07F0202186C74F612179A90D8
:10F1E00061C6E0FDE054F0F075E1817C0080108C98
:10F1F00008EA2508F8EB12F22FE09061CAF00CEA59
:10F20000240312F226F8ECC39840E4EA240512F233
:10F210002660049061CEF0EA240412F22660049085
:10F2200061CDF0ED80ABF582EB3401F583E0223463
:10F2300000F9E82480F582E912EEFD22C082C08345
:10F24000906195E0C0E0EA2486F582EB3401F58315
:10F25000D0E0F0906196E0C0E0EA2487F582EB34DC
:10F2600001F583D0E0F0906197E0C0E0EA2488F5F2
:10F2700082EB3401F583D0E0F0906198E0C0E0EAE1
:10F280002489F582EB3401F583D0E0F002EF60C011
:10F2900082C083EA248612F226906195F0EA2487E0
:10F2A00012F226906196F0EA248812F22690619775
:10F2B000F0EA248912F226906198F002EF6074F46B
:10F2C00012179A890812F3BF120CD2EEFAEFFB1252
:10F2D0000CCC750A80750B00780A1219AD7C007D84
:10F2E00060EE2406FAEF3401FB120C3C7402121794
:10F2F00059EEFAEFFB120CE47F0402186C74F21260
:10F30000179A898285820812F3BF120CDEEEFAEF9B
:10F31000FB120CD8750C80750D00780C1219ADEE2F
:10F320002406FCEF3401FD7A007B60120C3C740271
:10F33000121759EEFAEFFB120CEAE50875F004A477
:10F34000C508A8F028F50974F92508F58274033575
:10F3500009F58312F38EE0648070079003CB740884
:10F36000801E900A3212F39712F397747EF0A37402
:10F370000C12F39D7402F0A3740DF09003CB74078C
:10F38000F0900A4012F3A8A312F3A802F0ADE0F83F
:10F39000A3E0F58388822274FCF0A3740CF0A374BC
:10F3A000FCF0A3740CF0A322747E12F3B612F3B631
:10F3B000F0A3740CF022F0A3740CF0A3747E22A8C6
:10F3C00008E875F08AA4C8AAF02AF974C728FE7460
:10F3D0000539FFEEFAEFFB22C082C08390028AE07B
:10F3E000A2E250067A4C7B0A80047A007B00120E5F
:10F3F000BE7900D083D08202013574F212179A745C
:10F40000E0121743EAFEEBFF8C0A8D0B742E1217E5
:10F410008EE0F508A3E0F5097C107D0079008518E1
:10F4200082851983AA82AB8312104A12FEADE84985
:10F43000700302F4E812F8ADE06E7003A3E06F60B1
:10F440000302F4E890075512F8BD600302F4E812D5
:10F45000F5F3FC74066C704F741012178E85820CD5
:10F4600085830D780C1219AD900754E0244BF50CF0
:10F47000A3E03400F50D780C1219AD900754E02488
:10F480002BFCA3E03400FD12F9A7120E7C740412C9
:10F490001759E9705312F5C71219AD741212178E6D
:10F4A000AC82AD8302F55812F5FB603C12FB6B7425
:10F4B000116C600302F57AE065087004A3E0650949
:10F4C0007021750C08750D00780C1219AD12F5D36A
:10F4D000121759E96401700B12F5C71219AD12F534
:10F4E000E580757932120F36EEFAEFFB120A208AA8
:10F4F0000C8B0DA80CA90DE849700302F5B4E824A3
:10F5000021F50CE93400F50D850C82F58312FEF02F
:10F51000EA4B700302F5B412FE9765087004A3E08D
:10F520006509600302F5B4750808750900780812CA
:10F5300019AD12F5D3121759E964017077850C8261
:10F54000850D83E0FCA3E0FDEC241AF582ED12FEAC
:10F550009DF50878081219AD740212178EAA82ABB5
:10F560008312F9A1121759EEFAEFFB85188285195B
:10F5700083AC82AD831208A68041E065087004A3C5
:10F58000E06509600302F4E8750C08750D00780C5D
:10F590001219AD12F5D3121759E96401600302F490
:10F5A000E812F5E5EC241AF582ED12FE9DF50875DA
:10F5B0000900809FEEFAEFFB1208AC79017420126B
:10F5C00017597F0602186C120F3CE9F508750900FF
:10F5D000780822EA2412FCEB3400FDAA0AAB0B12D5
:10F5E0001044740222900754E0245B12F9D9FCA362
:10F5F000E0FD2290075512FA9CE022900754E02487
:10F600005B12F9D9FAA3E0FBEA4B2274F212179AC3
:10F61000890DECFEEDFF750C008A828B83A3858239
:10F620000A85830B8E828F83A385820885830912C6
:10F63000FEADE849705D7401650D7052EE2402FA6A
:10F64000EF3400FB120E888E828F83A3A3A3A3A3A3
:10F6500074021219C88E828F83A3A3A3A3E0F50CB2
:10F66000780C1219B1E9F50C780C1219B1850882E1
:10F67000850983E0FD8E828F83E0FC850A82850BFD
:10F680008312FEF0790012061E74041217597900D5
:10F6900002F8AA12F8AD12FEB0850A82850B83E04B
:10F6A000687003A3E0696005790802F8AA12F8B748
:10F6B00064017005790702F8AAE50D14603124FE93
:10F6C000603A14700302F75B14700302F89D147023
:10F6D0000302F76414700302F7BF14700302F7C942
:10F6E00014700302F80B14700302F84C02F8A5EE34
:10F6F000FAEFFB120F5AE9F50C02F8A8750800752D
:10F700000A10750B00780A1219AD900754E0243BDB
:10F7100012FA81121759900754E0240112F9CB64B0
:10F720000470047403802D900754E0241BF50AA391
:10F73000E03400F50B780A1219AD900754E0242B41
:10F7400012FAA3121759120F00E960037508081284
:10F75000FA8E7405F085080C02F8A8EEFAEFFB1299
:10F760000F60809212F5F3640C600302F8A5900715
:10F7700054E0245D12FED2700812FE87245D12FE52
:10F78000B6900754E0245D12F601700302F8A575E7
:10F79000081075090078081219AD12F99D12175951
:10F7A000120F3CE9C0E0900754E0245D12F9CB242D
:10F7B0001A12F9B8D0E012FA8D740DF002F8A8EE22
:10F7C000FAEFFB120F6602F6F612F5F3640E600311
:10F7D00002F8A5900754E0245F12FED2700A7A1650
:10F7E00012FE89245F12FEB6900754E0245F12F6E1
:10F7F00001601175081075090078081219AD12F929
:10F800009D12175912FA8E740F80B012F5F3640F1F
:10F81000600302F8A5750A06750B00780A1219AD87
:10F82000AC08AD09900754E0245F12F8C412FA81C5
:10F8300012175912FB7688828983E0542060571290
:10F84000FB8F605212FA8E741002F7BB12FECC705E
:10F85000147A1412FE89246112FEB612FECC7005D1
:10F86000750C088043900754E0246112F60160266D
:10F8700075081075090078081219AD12F99D121754
:10F8800059909033121631900754E0246112F8C455
:10F8900012F9B812163D7900120F36800B8E828F46
:10F8A00083E0F980F3750C07A90C02F5C212F8B1D8
:10F8B0002212FA9CA3A322900754E0F8A3E0F58358
:10F8C0008882E02212F9D924102274F612179A7E47
:10F8D00000120F0CE9F8600302F98A120EFA12F90D
:10F8E000EA241212F9CBA2E05020900754E0241829
:10F8F00012F9B812FA91A3E054036401700C900756
:10F9000054E0241712F9CBD2E0F012F9CFF87402C8
:10F9100068601D74036860057404687017790112CB
:10F92000FEE412062412F9DE12FA8D7404F08066E9
:10F93000790280EB7401686005740568705812FAEA
:10F940008E7402F012F9A712F9CF6401700B7C10CB
:10F950007D00790012104A801E7508108E09780803
:10F960001219AD12F9EA2402FCA3E0340012F9A046
:10F9700012175912F9DEF07910900754E0242BFA8F
:10F98000A3E03400FB120E82800C74186870050E20
:10F990000E0E80027E08EEF97F0202186CEEFCEF7C
:10F9A000FD12103274022212F9AB22900754E024A7
:10F9B00007FAA3E03400FB2212F9BC2212F9C0229C
:10F9C000F8A3E03400F9888289832212F9D92290C1
:10F9D0000754E0241A12F9D92212F9C0E022900744
:10F9E00054E0241712F9D9D2E222900754E0F8A388
:10F9F00012FB882274F612179A74F01217437E00D5
:10FA00007508108E0978081219ADEAFCEBFD900715
:10FA100054E0244B12FA81121759851882851983F4
:10FA200085820885830978081219AD900754E0246F
:10FA30004B12FAA31217597508108E09780812197B
:10FA4000AD900754E0243BFCA3E03400FD740212A7
:10FA5000178EAA82AB831210447402121759E964FC
:10FA6000017012120F06E960047E08800A12FA8EF5
:10FA70007406F080027E04EEF9741012175902F930
:10FA800098FAA3E03400FB121032740222F09007BF
:10FA90005412FA9522E0F8A312FA9C22E0F583882A
:10FAA00082A322FCA3E03400FD12F9AB120EE8742D
:10FAB000022274F612179AEAFCEBFD900754E02438
:10FAC0005D12F601700302FB66900754E0F8A31282
:10FAD000F5F6640D600302FB668C828D8312FEB026
:10FAE00012FB6BE8F0A3E9F07508087509007808C7
:10FAF0001219ADEC24020C0CED3400FDEA2412FACC
:10FB0000EB3400FB12F9A112175912FB769007543F
:10FB1000E02401FAA3E03400FB88828983E05410DA
:10FB20006025900754E02418FCA3E03400FD8C828B
:10FB30008D8312FEA3A3A3A3A3E0541060098A82BD
:10FB40008B83740EF0801B88828983E05420600DC3
:10FB500012FB8F60088A828B83741080E779001211
:10FB60000F3679008002790702F998EA2410F582AD
:10FB7000EB3400F5832290075412FB852413F8A37D
:10FB8000E03400F922E0F8A312F8B1A3A3E0229038
:10FB90000754E0241812F9BC12FB8554202274F09B
:10FBA00012179A12F8B7600302FE8290075512F9F5
:10FBB000F0F8A3E0F9900754E0241812FEC112FEF9
:10FBC000F090075412FEA3E0F50AEA2405FEEB3498
:10FBD00000FFE82413F508E93400F5097406650A06
:10FBE000707F850882850983E0F8A2E0500C8E8240
:10FBF0008F83E0A2E0500302FC7CE8540260408E58
:10FC0000828F83E054026037750A0912059412FE50
:10FC1000DC120F1E7408650A600302FE1F8508824D
:10FC2000850983E05402700302FD4D8E828F83E0CC
:10FC30005402700302FD4D12FA8E740902FD7CE835
:10FC40005404700302FE368E828F83E054047003E6
:10FC500002FE36750A0B12057012FEDC120F2A80A6
:10FC6000B3E50A24F9601514700302FCF514609BD7
:10FC700014700302FD211460DD02FD6E900754E054
:10FC8000245B12FED2700812FE87245B12FEB6902F
:10FC90000754E0245B12F9CBFEA3E0FFEE4F7003A4
:10FCA00002FD777C107D007900EEFAEFFB12104A1E
:10FCB000120F3CEEFAEFFB120E82121056EE2410D9
:10FCC000F582EF3400F583EAF0A3EBF07908EE2437
:10FCD00012FAEF3400FB120E82120F3CEE241AF5DA
:10FCE00082EF3400F583E9F0EEFCEFFD12FEE41242
:10FCF0000F1202FD7712F5FB700302FC1DEA2412BD
:10FD0000F50AEB3400F50B780A1219AD12FE97FCD8
:10FD1000A3E0FD12FEE4120F18740212175902FC40
:10FD20001D750B01120588E9F50A7401650A700555
:10FD3000750B008003750A00A90B12058E8A0C8BC7
:10FD40000DAC0CAD0DA90A12FEE4120F2485088239
:10FD5000850983E05404700302FE368E828F83E0AF
:10FD60005404700302FE3612FA8E740B800E740770
:10FD7000650A600302FC1412FA8E7408F0900754AE
:10FD8000E0F8A312F5F6F874076860177408686065
:10FD900012740968600D740A686008740B68600367
:10FDA00002FE8212FEE4120A208A088B09A808A922
:10FDB00009E849700302FE64E8240BF582E9340087
:10FDC000F58312FEB0880C890DE4F50EF50FE9C33A
:10FDD00013F9E813F888088909E4F50AF50B780C9B
:10FDE000790812158C02FE6CE8541060128E828F16
:10FDF00083E0541060098A828B83740E02FD7CE8D4
:10FE0000542060128E828F83E0542060098A828B96
:10FE100083741002FD7C8A828B83741202FD7C74D1
:10FE200009650A700812FA8E740A02FD7C740A656C
:10FE30000A700302FD4D900754E02401F8A3E0345A
:10FE400000F9E8FAE9FB850882850983E0F854089F
:10FE500060968E828F83E05408608D8A828B8374D3
:10FE60000C02FD7C908FE7780C121613780C121997
:10FE7000A97A027B0090075AE0F912110A74041261
:10FE800017597F0802186C7A1B7B001210C88A0869
:10FE90008B09900754E022EA2410F582EB3400F538
:10FEA00083E022E0FCA3E0F5838C82A32290075438
:10FEB000E0F8A3E0F92212FEC1E508F0A3E509F09D
:10FEC00022FAA3E03400FB8A828B8322900754E05D
:10FED000246112F9D9F8A3E0F9E849228A0C8B0DC4
:10FEE000AC0CAD0D90075412FA95A3A312FEF022AC
:10FEF000E0FAA3E0FB2274F412179A8908740F55F4
:10FF000008F50A750B00740B780A121730EA240002
:10FF1000F8EB3480F9E82400E9350BF9E5C7F50979
:10FF2000A2AFE433F50AC2AFE508C4540FFAE5C73F
:10FF300054F84AF5C7740C12178EE0FAA3E0FB8060
:10FF40001C88828983E08C828D83F088828983A3D8
:10FF5000A882A9838C828D83A3AC82AD83EAFEEB59
:10FF6000FFEE24FF1AEF34FFFBEE4F70D48509C774
:10FF7000E50AA2E092AF7F0402186C74F612179A99
:10FF8000ED900830F0ECA3F0A37462F0A37473F06A
:10FF9000A3E0541FF0740A12178EE0F508A3E0F5F1
:10FFA00009E508333354FC900835F07406780812DC
:10FFB0001721E508900834F09008367412F0A37405
:10FFC00042F053D1FE75D601EA906271F0EBA3F0D6
:10FFD000906270E0D2E1F0E0A2E740FB7F020218FD
:10FFE0006CC082C083E9C333906272F0906270E0AB
:0AFFF000D2E0F0D083D08202013588
:020000040001F9
:10000000C082C08390034F74FFF0A3F0A3F0A3F06D
:10001000A3F0A3749FF0A3E4F0A37420F090034E28
:1000200014F0D083D08202013574F612179AE9FEDB
:10003000128BCE60081282F5741A1282DF7F0202E0
:10004000186C74EE12179A890AEAFEEBFF8C088D81
:100050000990075EE06003028155E9333354FC04E4
:10006000F50B7407250BFA7B0012105C8A0C8B0DC4
:10007000AC0CAD0DEC4D70030281558C828D8374F8
:1000800001F0A374FFF0EC2402F8ED3400F9880CC1
:10009000890DEC24040808ED3400F9850C82850DE7
:1000A00083E8F0A3E91281767404128176A37413B5
:1000B000128181E50B128181A3E50AF0750B000224
:1000C0008145850B8285820E750F00E50EC333FADC
:1000D000E433FBEE2AF8EF3BF988108911740278BB
:1000E0000E121730A80EA90F851082851183E0F536
:1000F0000EC00E12815FD0E0F0851082851183A3BF
:10010000E0F50EC00E12815AD0E0F0E5082AFAE5BB
:10011000093BFB8A828B83E0F50EC00E12815AA345
:10012000D0E01284FEA3E0C0E0850C82850D83E060
:1001300028FAA3E0398A82F583A3A3A3A3A3A3A3E8
:10014000D0E0F0050BE50BC3950A50030280C2EC2A
:10015000FAED128BC47F0A02186C12815FA322850C
:100160000C82850D83E028F50EA3E039850E82F51B
:1001700083A3A3A3A32212817A2212845B1289C8CB
:100180002212817AA3A32274EE12179A8A088B098D
:10019000890B8C0E8D0F90075DE0700990075FE072
:1001A0007003028251900327E0600302825189822A
:1001B00085820C750D00E92407FAE43400FB121067
:1001C0005C8A108B11AE10AF11EE4F700302826289
:1001D00074186508700474206509600C741765084C
:1001E000700474206509701090075FE0600AF50ADA
:1001F0008E828F837492800C90075DE0F50A8E8268
:100200008F837491F0A3740E12834E8E828F83A31A
:10021000A3F08E828F8312891FEE2405F8EF34003D
:10022000F9E8FAE9FBEE24070808EF128515F078E3
:100230000C1219ADAC0EAD0F8A828B83E0FAA3E0ED
:1002400012847F121759EEFAEFFBA90A1210688088
:1002500011780E1219ADAC0B790E1209247402122A
:10026000175902815574F612179AE9FE8C088D0908
:1002700078081219ADEEFC79FF12092474021217E6
:100280005902803D74F512179A890AEAFEEBFF9035
:10029000075DE06036900327E070307A06128BD05D
:1002A00060388A828B837491F0A3740F12883BE5C7
:1002B0000A12834E8A828B83A3A3A3128900EEF0D5
:1002C000A3EFF090075D128BC8800FEEFCEFFD8965
:1002D00008AA087B00790F12091E7F0302186C120E
:1002E0008843740112830D12846DEEF090075BE079
:1002F000F912106822128BE8FCA3E0F5838C82745B
:100300000412830DFCA3E0F5838C82A322128C04DB
:100310002274F712179A74FC121743EA8518828523
:10032000198312834EC0E0740112178ED0E0F0746E
:100330000212178EECF0740312178EED128C767A7F
:100340000412092A74041217597F0102186CF090E4
:10035000032BE02274F012179A89098A0A8B0B8CFE
:1003600008741012178EE0F50CA3E0F50D74072544
:1003700008FA74FF65096004780380027802E82AAD
:10038000FA7B0012105C8A0E8B0FAE0EAF0FEE4F91
:1003900070030284568E828F837401F0A374FFF081
:1003A000EE24020A0AEF3400FBEE2404F8EF128573
:1003B00008E5091284FEE02402128728A90B74FFC5
:1003C000650960317403250812834EC0E01284640D
:1003D000D0E012848FE50A12848FA3E9F085080A21
:1003E000750B00780A1219ADAC0CAD0D8A828B83A7
:1003F000E0240680557402250812845BC0E0128454
:1004000064D0E0128486E0C0E0128471D0E01284EF
:1004100086A3E0C0E0128471A3D0E012849BE50AB9
:1004200012849BA3E9F085080AE50A24FDF50AE495
:1004300034FFF50B780A1219ADE50C2403FCE50D29
:100440003400FD8A828B83E02408128476121759C7
:10045000EEFAEF128BC47F0802186CF0850C8285CF
:100460000D83E022128468228A828B83E012853910
:1004700022128468A322FAA3E0340012847F22FBB4
:10048000121032740222F0850C82850D83A3221291
:10049000849322128525A3A3A3A322128493A3A34A
:1004A0002274F212179A890A8A0BECFEEDFF740788
:1004B000250BFA128B586041128B700A0AFBE50873
:1004C00024040808E509128508E50A1284FE12854D
:1004D00033A3E50BF0601BF50C750D00780C1219B9
:1004E000ADEEFCEFFD8A828B83E02403128476124A
:1004F0001759AA08AB09128BC57F0602186C128522
:100500000222F08A828B83221285151285217404BF
:10051000128521A3223400F98A828B83E8F0A3E9B3
:100520002212852522F08A828B831289C7227F10AE
:1005300002186C1289C3A322E01289C8A3A3A322C4
:1005400074E812179A89158A0C8B0D8C148D13740C
:100550001812178EE0F516A3E0F517741A12178E0D
:10056000E0FEA3E0FF741C12178EE0F508A3E0F58F
:1005700009741E12178E1289D0742012178EE0F59E
:100580001290075DE0700302862E7A157B00121030
:100590005C8A0E8B0FEA450F70030287251287A431
:1005A0007401F0EA2408FAEB3400FBE50E24031290
:1005B0008B4FE5157018E4F0751006F511781012E0
:1005C00019ADAC16AD17128480121759800C743116
:1005D000F07C067D00790012104A850E82850F831B
:1005E000A3A3A3A3E50CF0A3E50D128768E51412FD
:1005F0008768A3E513F0E50E240E128B4FEEF0A3EF
:10060000EFF0E50E2410128B4F128922E50E241212
:10061000128B4FE50AF0A3E50BF0E50E2414128BC4
:100620004FE512F0AA0EAB0F90075D0287229003F0
:1006300056E0A2E5400302872590034EE0A2E04089
:10064000030287257A1A7B0012105C8A108B11EA4C
:1006500045117003028725128751F50EEB3400F522
:100660000F128748850E82850F83E8F0A3E9128771
:10067000837404128783A3743E12879274131287C3
:1006800092A37401128798E515128798A3E50CF0E0
:10069000E50DF50C850E82850F83128830E50C126E
:1006A00087B8E5141287B8A3E513F0750C06750D2D
:1006B00000780C1219ADAC16AD17850E82850F832C
:1006C000E02409128476121759850E82850F83E083
:1006D000240F1287371287762410128728EF12878B
:1006E000762411128742F0E509F508850E82850F00
:1006F00083E02412128742128776241312873CF07B
:10070000E50BF50A850E82850F83E0241412873CE1
:100710001287762415128728E512F0AA10AB1190E3
:10072000075B128BC802852E12872C22F8A3E034B7
:1007300000F9888289832212872CEE2212872CE509
:100740000A2212872CE50822EA2404F8EB3400F987
:100750002212875522128759228A828B837401F0D4
:10076000A374FFF0EA240222F0850E82850F83A392
:10077000A3A3A3A3A32212877A22F0850E82850F5A
:1007800083E0221287872212878B2212877A1289AE
:10079000C822128787A3A32212879C2212878BA3C9
:1007A000A3A3A3228A828B8374911287AE22F0A323
:1007B000743E128502A3A32212879CA3A3A32274D2
:1007C000F412179AEAFEEBFF890890075DE06023B8
:1007D0007A06128BD060548A828B837491F0A37452
:1007E0000512883BE41284FE128906E508F09007A2
:1007F0005D803590034FE0A2E450307A0B128BD02D
:1008000060291282F5740512883F740412883FA390
:10081000E4128850EE128850A3EFF0888289831288
:100820008830E508F090075B128BC87F0402186CD3
:1008300012883422128538A3A3A3221287B222126F
:10084000884322128C04FCA3E0F5838C82A3A322AC
:10085000128843A3A32274F012179A8A088B09EC1A
:10086000FEEDFF741012178E1289D0741212178EBB
:10087000E0F50CA3E0F50D90075DE0603E90034EBF
:10088000E0A2E250787A0C128BD060711287A474C7
:100890000312883BA3E4F012891A8A828B83A3A3F4
:1008A000A3128906A3A3A3E50AF0A3E50B1289000E
:1008B000A3A3A3128B6590075D803F900356E0A22F
:1008C000E5503A90034EE0A2E250327A11128BD0FA
:1008D000602B128BD8743EF0A3740AF0A37403F05B
:1008E000A3E4F0128921A3EEF0A3EFF0A3E50AF050
:1008F000A3E50BF0128B6790075B128BC80284563E
:100900001287B2A3A32212890A22A3A3A3EEF0A303
:10091000EF128502A3A3A3A3A3228A828B83A3A39E
:10092000A3A3E508F0A3E509F02274F012179A8951
:100930000DEAFEEBFF8C0C741012178EE0F508A385
:10094000E0F509741212178E1289D0900350E0A2BC
:10095000E350677A0F128BD06060128751FCEB3442
:1009600000FD1287488C828D83E8F0A3E9F08C8229
:100970008D831289BD1289E2740C1289E2A3740876
:100980001289F4E50D1289F4A3EE1289FAEF1289A7
:10099000FAA3E50C128A06E508F0E509F5081289C4
:1009A000D8E508128A06A3A3E50AF0E50BF50A12BA
:1009B00089D8A3A3E50AF0128BC50284561289C315
:1009C0007404221289C722E0F8A3E0F5838882220A
:1009D000E0F50AA3E0F50B228C828D83128834A304
:1009E000A3221289E6221289EA22F08C828D8312D8
:1009F00089C7A3221289E6A3A3221289FE221289A3
:100A0000EAA3A3A3A3221289FEA3A32274EC1217C4
:100A10009A8A0C8B0D8C0E8D0F741412178E1289FE
:100A2000D0850A82F583A385821085831190075FA4
:100A3000E060757A0F7B0012105C8A088B09AE08A3
:100A4000AF09EE4F7003028B4A8E828F837492F04F
:100A5000A3743EF08E828F83A3A37405F08E828FE1
:100A600083128B6575080875090078081219ADACFA
:100A70000EAD0FEE2405FAEF128479121759850A8C
:100A800082850B83E0FA851082851183E0F9EAF80C
:100A9000EE240DF582EF128B53E8F0A3E9F0EEFAA5
:100AA000EFFB90075F028B47900356E0A2E55008EA
:100AB00090034EE0A2E44006120ABC028B4A7A146C
:100AC000128B587003028B4A128B70F9EA2404FAD5
:100AD000EB3400FB88828983EAF0A3EB12830DFEDE
:100AE000A3E0FF8E828F837404F0A3743EF0A3749E
:100AF0000DF0A37405F0128B67A3AE82AF83750C63
:100B000008750D00780C1219ADAC0EAD0FEEFAEFB2
:100B100012847F121759EE2408FEEF3400FF850A75
:100B200082850B83E08E828F83F085100A85110BFE
:100B3000A30EAF83850A82850B83E08E828F83F0BC
:100B4000AA08AB0990075B128BC87F0C02186CF5E2
:100B500082E50F3400F583227B0012105C8A088B3B
:100B600009EA450922A3A3A3E50CF0A3E50DF022B1
:100B7000128755F8EB34002274F412179AEAFEEB50
:100B8000FF89088C0990075FE060127A07128BD00A
:100B9000602F128C5EE509F090075F802190034F73
:100BA000E0A2E7501C7A0B128BD06015128BD87420
:100BB00008F0A37404128C5312892490075B128BE3
:100BC000C802882BFB90075BE0F9121068227A08B4
:100BD0007B0012105CEA4B22128BE8F8A3E0F98844
:100BE0008289837404F0A322128759F8EB3400F948
:100BF000EA2404FCEB3400FD88828983ECF0A3ED49
:100C0000128C0422F088828983E02274F412179AED
:100C1000EAFEEBFF890890075FE060127A07128B0B
:100C2000D0602D128C5E7401F090075F801F9003DE
:100C300054E0A2E7501A7A0A128BD06013128BD8B4
:100C40007430F0A37403128C53F090075B128BC8BE
:100C500002882BF0A3E508F0A3EEF0A3EF228A822E
:100C60008B8374921287AE740812850212890AE58A
:100C700008128911A322F0851882851983AC82ADF0
:100C8000832274F212179AECFEEDFF8A828B83A303
:100C9000A3A3A3A3A3A3A3E0F50A6027EA2406F86D
:100CA000EB3400F9880889098882F583E0FCA3E029
:100CB000FD8C828D83E0F50BA2E7504EE50AC394CC
:100CC0000D50057901028D7C74F4250AF50AF50CA6
:100CD000EC250CF50CED3400F50D780C1219ADE592
:100CE0000AF50C780C1219B179018A828B83A3A3BF
:100CF00012925D120E527403121759E98E828F837D
:100D0000700474018009740280058E828F83E4F080
:100D1000E50BA2E65004D2F08002C2F0A2F0E43368
:100D2000A3F0743F550B8E828F83A3A3F0EE2403B0
:100D3000F8EF3400F9E50A24FFFAE434FFFB888277
:100D40008983EAF0A3EBF0EE2405FAEF3400FB8888
:100D5000828983129045496019850882850983E05C
:100D60002401F8A3E03400F98A828B83E8F0A3E938
:100D700080078A828B83E4F0A3F079007F06021853
:100D80006C74F712179A129455A3AA82AB838C82C3
:100D90008D83A3A882A98312903D8C828D83A3A307
:100DA000A31294597A047B00028DE2C082C08312A0
:100DB000928C7A02802374F712179A740912178E94
:100DC00012914612178E12913F7001EB700512912D
:100DD0004E80027904800B80D27B00D083D08202C7
:100DE00001357F0102186C74F712179A74091217F3
:100DF0008E12914612178E1292CE7001EB70051270
:100E000092D58002790480DA74EE12179AEAFEEB2A
:100E1000FF8C0C8D0D7508017509008C828D83A3E4
:100E200085820E85830F128F0B750A008036E510C0
:100E300075F012A4F510E5F0F511128EC8751010BA
:100E400075110078101219AD128EBA121759EE24CE
:100E500010FEEF3400FFE5082412F508E509340020
:100E6000F509050A850C82850D83E0F8E50AC3982B
:100E700050418E828F83A3AA82AB83850A828582AA
:100E800010751100850E82850F83E06401709F74D8
:100E9000027810121730128EC87510027511007882
:100EA000101219AD128EBA121759128F01E50824CB
:100EB0000480A7AA08AB0902959AEC2404FCED343F
:100EC00000FD0AEF12942922E50C2510FCE50D35F2
:100ED00011FD128EE4128EFAEAFEEBFF88828983FE
:100EE000128EF122EC2402F8ED3400F98882898315
:100EF00022A3128EFAA30EAF8322E08E828F83F09C
:100F000022EE24020E0EEF3400FF22128EFAA3AE60
:100F100082AF832274F212179AECFEEDFF740E1268
:100F2000178EE0F50AA3E0F50B741012178E128FDE
:100F3000D9C3E50A9406E50B94005003028FD48EC2
:100F4000828F83E0FAA3E0F9EA850882850983F0BD
:100F5000A3E9F08E828F83A3A3E0FA8E828F83A30E
:100F6000A3A3E0F8E4C8F9EA850882850983A3A36E
:100F7000F0A3E91296B3A3A3A37402F0F50C880DB5
:100F8000780C1219ADEE2404FCEF3400FDE50824C2
:100F900005FAE509129419121759E50A24FAF50A17
:100FA000850882850983A3A3A3A3A3A3A3F0C39465
:100FB000115021750B00780A1219ADEE2406FCEFD2
:100FC0003400FDE5082408FAE509129419121759AE
:100FD000790080027904028D7CE0F508A3E0F50930
:100FE0002274F512179A750A008030850A0875096F
:100FF0000074027808121730EC2508F8ED3509F96D
:1010000088828983A3AE82AF8312930DE8240308FC
:101010000808E9128EE912903D050A8C828D83E062
:10102000F8E50AC39840C4E0F50875090074027831
:1010300008121730AA08AB097F0302186C1291CB73
:10104000A30AAB8322129396E82274101217597FD9
:101050000402186C74F612179A740A12178E1294FE
:101060004112178E12925DEA2404F8EB3400F974F1
:10107000066E7001EF7046888289837402F08C825C
:101080008D831290D18A828B83F0A3EF129430A3C8
:10109000E0FEE4CEFFE5088A828B83A3A3F0A3EFF2
:1010A000F088828983E0F5088E0978081219AD125C
:1010B000940212941812175979000291A674146EB2
:1010C0007001EF700888828983741080B079048081
:1010D000E9E0F508A3E0FFE5082274F612179A8C00
:1010E000828D83A3E0F8F5F08C828D83E0A4FEE886
:1010F0008A828B83F0A3AA82AB838E08750900785D
:10110000081219ADEC2402129113121759EE2401A2
:101110000291A10C0CED3400FD12942A2274F712F6
:10112000179A740912178E12914612178E12913F58
:101130007001EB700512914E80027904028DE2126B
:10114000939674026A22E0FAA3E0FB740B221292D7
:10115000F779002274F612179AECFEED1291AF1295
:1011600019AD8E828F83A3AC82AD831296BC121709
:10117000598E828F83E0FA7B00802B74F612179AC7
:101180001291BDA30AAB83EC24041291AB1219ADEA
:10119000EC2405FC1291151217598E828F83E024DE
:1011A00004FAE43400FB7F0202186CFEED3400FF09
:1011B0008E828F83E0F508750900780822129290DC
:1011C000A30AAB83128EE41291CB221292A5A30A3A
:1011D000AB83888289831292A42274F412179A89AD
:1011E000088A09740C12178E129392740E12178EBD
:1011F00012925DC3E89402E9940040548C828D837E
:10120000E0F50AA3E0FFE50A8A828B83F0A3EFF002
:10121000EA2417129255E508F0EA2418129255E5CF
:1012200009F0E50870047E1480027E08E824FEF5CB
:101230000A8A828B83A3A3F0EEC3950A4012750B32
:1012400000780A1219AD12940F1217597900800212
:10125000790402904FF582EB3400F58322E0FAA383
:10126000E0FB2274F612179A12928CA30AAB83EC5D
:1012700024021291AB1219ADEC24030C129113123B
:1012800017598E828F83E024020291A1129290223C
:101290008C828D831292A5A3AA82AB838C828D83CC
:1012A0001292A422A3E08A828B83F02274F7121791
:1012B0009A740912178E12914612178E1292CE70DE
:1012C00001EB70051292D580027904028DE212932F
:1012D0009674046A221292F78C828D83A3A3E0FE97
:1012E0008C828D83A3A3A3E0FBEE88828983A3A3D2
:1012F000F0A3EBF07900228C828D83E0FEA3E0FB6B
:10130000EE88828983F0A3EBF02202915412945D5F
:10131000A3AA82AB838E828F83A312945DA30AABB0
:10132000832274F612179A740A12178E129392740B
:101330000C12178E12925DE8A2E04051E9C313E847
:1013400013F50974FE2509C3940A5041EA241612C4
:101350009255E509F075080080288C828D83E0FEA7
:10136000A3E0F9EE2400E439FFE50833F8E433F9AB
:10137000EA28F582EB39F583EEF0A3EFF012941F23
:101380000508E508C3950940D17900800279040277
:1013900091A612939622E0F8A3E0F922029154025A
:1013A00090DA74F612179A740A12178E1294411278
:1013B000178E1294A19404EF940040418C828D8387
:1013C00012944C8A828B83F0A3E912943012949485
:1013D000A3A3F0A3E9F0EE24FCF5088A828B83A393
:1013E000A3A3A3F0C394135014880978081219AD6D
:1013F000129402129418121759790080027904028B
:1014000091A6EC2404FCED3400FDEA2405FA221236
:10141000941FEA24030A0A0AEB340012942922ECEE
:1014200024020C0CED3400FD22FB12103274022257
:10143000F08C828D83A3A3E0F5088C828D83A3A317
:1014400022E0FEA3E0FF740C2202917BE0F508A3EA
:10145000E0F9E508228C828D8312945D221292A518
:1014600022C082C08385188285198312925D74021E
:1014700012178E12939274016A7001EB700E8C82B7
:101480008D83E088828983F0790080027904028D5F
:10149000DB029263A3E0F8E4C8F9E5088A828B8353
:1014A000221294A6EE22E0F8A3E0F9E8FAE9FBC3E1
:1014B0002274EE12179A74FA1217438A0E8B0F8C4D
:1014C0000A8D0B890C741812178EE0F510A3E0F545
:1014D000117A177B00120A028A088B09AE08AF093D
:1014E000EE4F70030295908E828F83750801750907
:1014F00000E50CF0A3E50A450B601BAC10AD11AA8A
:1015000082AB83850A82850B83121798EA2401F542
:1015100008EB3400F509E50CA2E7502E7910AA0E6D
:10152000AB0F120A2CE97063EE2508FCEF3509FDBC
:10153000A908EEFAEFFB120E4CE9F50A7044E50833
:10154000240CF508E5093400F5098518828519830E
:101550007404F0A3E4F0740212178EEEF0A3EFF01F
:10156000740412178EE508F0A3E509F0851882854A
:101570001983AC82AD83AA0EAB0F120960E9F50A9C
:101580006011EEFAEFFB1212FC8008750A1980F266
:10159000750A13A90A74061217597F0A02186C7487
:1015A000F412179A74F0121743EAFEEBFF741C1240
:1015B000178E128FD9741E12178E12964E7001ED6F
:1015C000600C74106C7001ED60047900807D740211
:1015D000687001E960087410687001E970ECE86CEB
:1015E0007002E96D700F8C0A8D0B780A1219ADAC80
:1015F00008AD09804E74106C7001ED851882851954
:1016000083AC82AD837021AA08AB0912052E750840
:101610001075090078081219AD740212178EAC8289
:10162000AD83EEFAEFFB801B12052E750A10750BC9
:1016300000780A1219AD740212178EAC82AD83AA1B
:1016400008AB09121044740212175902904A1293FF
:101650009674026C2274F412179A8A088B09ECFEB5
:10166000EDFFEA45096047EE4F6043750A10750BC0
:1016700000780A1219AD7C0A7D8FEEFAEFFB129604
:10168000BC121759850882850983E0C0E0EE240C5E
:10169000F582EF129258D0E01296B3E0C0E0EE244B
:1016A0000DF582EF129258D0E0F0790180027900B6
:1016B00002904FF0850882850983A32212942A2282
:1016C00074F412179AE9FE74FF2EF50B04C313FE8F
:1016D0007F0080358F82AC82EA2CF8EB3400F988E9
:1016E000828983E0F50A850B08E508C39CFC95E038
:1016F000FDEA2CFCEB3DFD8C828D83E088828983A2
:10170000F08C828D83E50AF00FEFC39E40C67F0404
:1017100002186CC082C08390618FE0F902984F7408
:10172000F512179A74FE121743890AE970057912A7
:101730000297DF53B4F390619A743FF0A3745AF0A8
:101740009061A0E4F0906184F0E5E170FC75E10245
:101750007C009061BFE070070CECC394FA40F37416
:10176000FA6C7004791F80777C009061BF12A058DA
:101770009061BFE0FD740112178EEDF0851882852F
:101780001983E0FEEDF9EEF849600A74036870030E
:1017900074806970070CECC394FA40CE74FA6C60E4
:1017A000C37C00801D9061BF1297E71297E7E5BCEC
:1017B000C0E08C08EA2508F582EB3400F583D0E020
:1017C000F00CECC3950A40DDE5E170FC75E1018D9C
:1017D000BC851882851983E0F5BC120AF87900747B
:1017E000021217590298E1E0F5BDE0F5BDE0F5BD44
:1017F000E0F5BD22C082C0837C008C82A882748602
:1018000028F58274053400F583E0C0E0129842D0D8
:10181000E0F00CECC3940840E18034C082C0837CCB
:10182000008C82A882748E28F58274053400F583BA
:10183000E0C0E0129842D0E0F00CECC3940440E128
:10184000800DEA28F582EB3400F58322120C4ED08D
:1018500083D082020135C082C08374FC1217438595
:101860001882851983EAF0A3EBF0A3ECF0A3EDF066
:10187000740412178EE0FAA3E0FB851882851983A1
:10188000E08A828B83F0740112178E1298BBF07479
:101890000212178E1298BBA3F0740312178E1298BF
:1018A000BBA3A3F0E9A2E0E43313138A828B83A3E2
:1018B000A3A3A3F074041217598094E08A828B8347
:1018C000A32274F512179AECFEEDFF740B12178E1B
:1018D0001298E61219B1129D791217597900120C5B
:1018E0004E7F0302186CE0F508A3E0F509120C5ACC
:1018F000750A10780A22C082C08390083A7470F08A
:10190000A374B1F0A3E0541FF090083E741DF0A33F
:101910007442F0A37470F0A374B2F0900844E054E1
:101920001FF0900846741EF0A37412F002984FC086
:1019300082C083900834E0541FF09008367420F081
:10194000A37452F002984F74F412179A8A088B0904
:10195000ECFEEDFF740C12178EE0F50AA3E0F50B18
:10196000EA6E7002EB6F6035120C36EF900830F0C3
:10197000EEA3F0E509A3F0E508A3F0E50A90083529
:10198000F0E50BF50A900834E054E0450AF053D135
:10199000FE75D60175D701E5D1A2E050FA02970E87
:1019A000C082C083EB900838F0EAA3F0E91299F600
:1019B00053D1FD75D60202984F74F712179A740925
:1019C00012178EE0F8ED900838F0ECA3F0E81299C9
:1019D000F6EB900842F0EAA3F0E9900845F0900891
:1019E00044E054E0F053D1FD53D1FB75D60275D6D7
:1019F000047F0102186C90083DF090083CE054E030
:101A0000F022E5B354F849F5B343B301E5B3A2E3DB
:101A100050FA020135C082C083E5B3548F4450F5BB
:101A2000B379107A1C7B8E120C42790602984CC056
:101A300082C083E5B3548F4440F5B37910120C4251
:101A4000790402984C74F012179A74E01217438AC2
:101A50000A8B0B8908ECFEEDFF743012178EE0F54F
:101A60000CA3E0F50D740F5508600478018002782E
:101A700000E9C4540F28F509750E10750F00780E93
:101A80001219AD7C1C7D8E741212178E129B50128F
:101A90001759741012178E7401F0750E0D780E120E
:101AA00019ADAC0AAD0B741312178E129B5012179E
:101AB00059129C4E12178E129C5A1219B1AC0CADD1
:101AC0000D7910740112178EAA82AB83129D8312B6
:101AD00017597900120C4E741F12178E129C631244
:101AE000178E129C3DE509C454F0F9F50A780A12E4
:101AF00019B1EEFCEFFDEEFAEFFB129D83121759C0
:101B000080057900120C4EAA0974FF2AF5090470A9
:101B1000F185080AEE250AF8EF3400F98518828568
:101B20001983E088828983F0740112178E129B5A00
:101B3000F0740212178E129B5AA3F0740312178EC0
:101B4000129B5AA3A3F074201217597F0802186C35
:101B5000AA82AB83120C3C740222E088828983A3A0
:101B60002274F012179A74E01217438A0A8B0B89B9
:101B7000098C0C8D0D743012178E129DAD60047897
:101B80000180027800E9C4540F28F508750E10751D
:101B90000F00780E1219AD7C1C7D8E741212178EF8
:101BA000129B50121759741012178E7401F0750E93
:101BB0000D780E1219ADAC0AAD0B741312178E12FC
:101BC0009B50121759129C4E12178E129C5A1219C2
:101BD000B1EEFCEFFD7910740112178EAA82AB836F
:101BE000129D831217597900120C4E129D891217FB
:101BF0008E129D9F12178E129DB712178E129D98EE
:101C0000741F12178E129C6312178E129C3DE508EA
:101C1000C454F0F9F50A780A1219B1AC0CAD0DAA4A
:101C20000CAB0D129D8312175980057902120C4ED0
:101C3000A80874FF28F5080470F1029B46129C4125
:101C400022AA82AB83120C427906120C4E22E5B313
:101C5000548F4410F5B37910E922129C41750A1093
